:020000040800F2
:10000000B84B002085020008032800081D250008C1
:10001000012800087D040008DD320008000000000F
:10002000000000000000000000000000C501000802
:10003000D90500080000000021020008252C000856
:100040009F0200089F0200089F0200089F0200080C
:100050009F0200089F0200089F0200089F020008FC
:100060009F0200089F0200089F0200089F020008EC
:10007000F90400089F020008050500089F02000817
:100080009F020008110500089F0200088D04000867
:10009000810400089F0200089F0200089F020008D8
:1000A0009F0200089F0200089F0200089F020008AC
:1000B0009F0200089F0200089F0200089F0200089C
:1000C0009F0200089F0200089F0200089F0200088C
:1000D0009F0200089F020008553200089F02000896
:1000E0009F0200089F0200089F0200089F0200086C
:1000F0009F0200089F0200089F0200089F0200085C
:100100009F0200089F0200089F0200089F0200084B
:100110009F0200089F020008012D00089F020008AE
:100120009F0200081D0500089F0200089F020008AA
:100130009F0200089F0200089F020008A504000813
:10014000990400089F0200089F0200089F0200080F
:100150009F020008290500089F0200089F0200086E
:100160009F0200089F0200089F0200089F020008EB
:100170009F0200089F0200089F0200080000000084
:100180009F0200089F0200089F0200089F020008CB
:100190009F0200089F0200089F0200089F020008BB
:1001A00000000000000000009F020008DFF810D0EF
:1001B00000F0EEF800480047CD350008AFF30080AE
:1001C000B84B00202C4B19680868B0E8F04F80F35A
:1001D0000988BFF36F8F4FF0000080F311887047DC
:1001E0000000000008480068006880F308884FF0AD
:1001F000000080F3148862B661B6BFF34F8FBFF37F
:100200006F8F00DF00BF00BF08ED00E0DFF80C00DB
:10021000016841F470010160704700BF88ED00E0A3
:10022000EFF30980BFF36F8F134B1A681EF0100FA6
:1002300008BF20ED108A20E9F04F106009B44FF09C
:10024000500080F31188BFF34F8FBFF36F8F03F01F
:1002500039FE4FF0000080F3118809BC1968086866
:10026000B0E8F04F1EF0100F08BFB0EC108A80F31A
:100270000988BFF36F8F704768000020EFF3058097
:10028000704700000648804706480047FEE7FEE743
:10029000FEE7FEE7FEE7FEE7FEE7FEE7FEE7FEE736
:1002A000F12C0008AD0100082DE9F05F05460020A3
:1002B00092469B4688460646814640241BE02846D7
:1002C00041464746224600F053F853465A46C01A64
:1002D000914110D311461846224600F03AF82D1AE3
:1002E00067EB01084F4622460120002100F031F85B
:1002F00017EB00094E41201EA4F10104DFDC484643
:1003000031462A464346BDE8F09F40EA01039B0779
:1003100003D009E008C9121F08C0042AFAD203E07A
:1003200011F8013B00F8013B521EF9D27047D2B2DE
:1003300001E000F8012B491EFBD270470022F6E7CE
:1003400010B513460A4604461946FFF7F0FF20464B
:1003500010BD202A04DB203A00FA02F10020704789
:100360009140C2F1200320FA03F3194390407047F3
:10037000202A04DB203A21FA02F00021704721FAFA
:1003800002F3D040C2F12002914008431946704761
:10039000064C074D06E0E06840F0010394E80700D2
:1003A00098471034AC42F6D3FFF704FFB44300087B
:1003B000D4430008FFB43048AA2114240170FF215F
:1003C0004170F1218170C4709DF8001001719DF899
:1003D000011041719DF8041081719DF80510C171E3
:1003E0009DF8081001729DF8091041729DF80C10DB
:1003F00081729DF80D10C1729DF8201001739DF857
:10040000211041739DF8241081739DF82510C1734C
:100410009DF8281001749DF8291041749DF82C1046
:1004200081749DF82D10C1749DF8301001759DF8F0
:10043000311041759DF8341081759DF835100023F9
:10044000C175182200211D46241D06E0465C491C8A
:100450003344DBB21D44EDB2C9B28C42F6D88354AA
:10046000521C0549855404B040F2E733F0BCA1F5B5
:100470000A70521C02F001B88C080020FEE7000050
:10048000014800F030BA0000DC040020014800F010
:100490002ABA0000DC040020014800F024BA000061
:1004A00004050020014800F01EBA000004050020E9
:1004B00038B50E4C4FF4007525600025A560E56049
:1004C000082525610A4C050A25706070080AA0708D
:1004D000E170100A20716271180AA071E3716B4615
:1004E00022460249034800F094F838BD2046002017
:1004F000E1000020DC040020014800F0F1BC000015
:100500000C070020014800F0EBBC0000AC06002006
:10051000014800F0E5BC00006C070020014800F035
:10052000DFBC00002C080020014800F0D9BC00000E
:10053000CC07002001681823CAB2103AB2FBF3F2CC
:10054000054B6FF30901032A9B5CC36500D9091DA4
:1005500081650846704700004C43000810B501460D
:1005600000208B698A6A4FF0C07453B1B3F5005F05
:1005700015D072B1012A0CD0022A0AD0032A09D15F
:1005800004E01AB1012A06D0022A03D1C96AC901BE
:1005900000D5012010BDC96AA142FAD010BD002AC1
:1005A000F7D0012AF2D0022AF3D0032AF3D010BDEB
:1005B00030B50468256825F48025256004686360EB
:1005C0008368402B036803D099600068C26030BD27
:1005D0009A600068C16030BD704772B6FEE7B5EE44
:1005E000C00AF1EE10FA01DAB1EE400A704790F855
:1005F0002020012A07D0022A05D0416A41F4802137
:10060000416201207047006842690A43426100204C
:100610007047F0B590F820500468A468012D05D00B
:10062000022D03D0416A41F4802157E014F0406F5D
:1006300001D1E5004FD5C4F301640125A5401D603B
:100640008D684FF4C0739DB1CE6835434E6845EA5E
:10065000C605066803EB0417F5514FF4C275076829
:1006600005EB04150E697E51097D012905D009E0CD
:100670000E88CD6845EA4655EBE701684E5946F4C9
:1006800080764E511179D579567941EA056195798F
:100690002D0445EA062529434FF4C676056806EB86
:1006A0000416A9511178D57841EA056195785278F8
:1006B0002D0445EA022211434FF4C475026805EB8C
:1006C00004155151006803EB0411425842F0010235
:1006D00042500020F0BD416A41F400114162012006
:1006E000F0BD000010B590F82020012A07D0022AA2
:1006F00005D0416A41F480214162012010BD3B4890
:10070000D0F8002242F00102C0F80022D0F8002206
:1007100022F47C52C0F80022D0F800224B6A42EA50
:100720000322C0F800220A7D02F01F0301229A4032
:10073000D0F81C329343C0F81C32CB69B3B9D0F85F
:100740000C329343C0F80C328C894B6864F31F431E
:100750004C6900EBC404C4F840320C890B6864F3A4
:100760001F434C6900EBC404C4F84432CB69012B2D
:1007700016D1D0F80C321343C0F80C320C884B68F9
:1007800064F31F434C6900EBC404C4F840320C8985
:10079000CB6864F31F434C6900EBC404C4F84432D3
:1007A0008B69002BD0F804320ED01343C0F804320A
:1007B0000B69002BD0F8143208D01343C0F8143260
:1007C000096A012904D008E09343EFE79343F5E772
:1007D000D0F81C121143C0F81C12D0F8001221F0FE
:1007E0000101C0F80012002010BD000000640040AC
:1007F000704770B590F82040012C05D0022C03D032
:10080000416A41F4802128E0046809B32469A407FF
:1008100020D04FF4D874056804EB01142D5915F05D
:100820000405956005682D591AD0ED0855600568D6
:100830002C5904F00204D4604FF4DA74056804EB18
:1008400001142E5906F00F06082E0CD308250DE0D2
:10085000E468DCE7416A41F400114162012070BDA7
:100860006D0D1560E3E72D5905F00F05156105685D
:100870002D59C5F30725956105682C59240C546141
:100880004FF4DC72046802EB0112A4581C70046877
:10089000A458240A5C700468A458240C9C70046852
:1008A000A258120EDA704FF4DE72046802EB0112E5
:1008B000A4581C710468A458240A5C710468A458E4
:1008C000240C9C710468A258120EDA71006829B1D8
:1008D000016941F020010161002070BDC16841F053
:1008E0002001C160F8E72DE9F05F054600680024AB
:1008F0004669D0F804908768D0F80CB0D0F810A002
:10090000D0F81880F10748D0F90714D00121816090
:10091000B80703D5284600F082FA0CE0780702D524
:100920004FF4006407E0380702D54FF4805402E02A
:10093000284600F073FAF80516D529684FF4807040
:100940008860B80503D5284600F06BFA0CE07805FE
:1009500002D544F4005407E0380502D544F480443D
:1009600002E0284600F05CFAF80316D529684FF437
:1009700080308860B80303D5284600F054FA0CE0B4
:10098000780302D544F4004407E0380302D544F468
:10099000803402E0284600F045FA300707D55FEAC8
:1009A000CB6004D52968102044F40074C860700737
:1009B0004FF0080707D55FEA0B7004D52868C760B9
:1009C000284600F0A9F9B00706D52868C068800756
:1009D00002D0284600F0A2F9700607D55FEACA6087
:1009E00004D52968102044F480640861B00607D556
:1009F0005FEA0A7004D528680761284600F0DEF92E
:100A0000F00606D528680069800702D0284600F065
:100A1000D6F9B00308D55FEAC96005D5296810206A
:100A20004860284600F0CCF9F00307D55FEA09706A
:100A300004D528684760284600F0F6F9300446D50A
:100A40005FEA497040D5F00504D55FEAC87001D06F
:100A500044F00104B00504D55FEA887001D544F084
:100A60000204700504D55FEA487001D544F004041F
:100A7000300529D518F0700F26D008F070004028F6
:100A800015D006DC102809D020280AD0302816D12D
:100A90000AE050280ED0602811D10EE044F008047E
:100AA0000DE044F010040AE044F0200407E044F0B4
:100AB000400404E044F0800401E044F480742868B9
:100AC000816921F070018161296804204860002C4F
:100AD00005D0686A204368622846FFF789FEBDE8B2
:100AE000F09F70B5040003D094F8200010B104E02A
:100AF000012070BD204600F081F82068016841F0B7
:100B00000101016000F07EFC0546052604E000F0CE
:100B100079FC401B0A2811D820684068C007F6D02D
:100B20002068016821F00201016000F06BFC0546BD
:100B30000BE000F067FC401B0A2806D9606A40F40D
:100B40000030606284F82060D2E720684068800747
:100B5000EFD4207E0128206801683DD021F080017B
:100B60000160607E01282068016838D021F04001D2
:100B70000160A07E01282068016833D021F02001A7
:100B80000160E07E0128206801682ED041F010014C
:100B90000160207F01282068016829D021F0080128
:100BA0000160607F01282068016824D021F00401E1
:100BB0000160D4E902010843D4E904121143084357
:100BC0006168491E08432168C861002060620120F5
:100BD00084F82000002070BD41F08001C0E741F0A2
:100BE0004001C5E741F02001CAE721F01001CFE73D
:100BF00041F00801D4E741F00401D9E7F0B587B02E
:100C0000044614216846FFF799FB3E4B3E48DFF847
:100C1000F0E01968D4F800C03B4A032502260927F2
:100C200010300024491CF4452AD11960012907D14C
:100C3000016841F000710160006800F000700590EB
:100C4000106840F0080010601068CDE9005600F010
:100C50000800CDE9047069462C48CDE9024500F052
:100C6000B1FA00220521132000F06AFC132000F0E5
:100C700059FC00220521142000F062FC14203BE006
:100C8000DFF88CE0F44539D1D0F800C04CF0806C2E
:100C9000C0F800C0D0F800C001290CF0806CCDF87D
:100CA00014C0196007D1016841F00071016000684B
:100CB00000F000700590106840F0020010601068AD
:100CC00002AB00F0020005904FF44050CDE9000661
:100CD00083E8B00069460F4800F074FA002205214D
:100CE0003F2000F02DFC3F2000F01CFC00220521DD
:100CF000402000F025FC402000F014FC07B0F0BDBF
:100D0000006400404000002030380240000C0240E7
:100D100000680040000402407047000000B58BB03E
:100D200001AB03AA0021FFF764FD039940F20323FE
:100D30002048A1F2032299421FD006DCA1F50072DF
:100D4000013A1AD0012A16D117E0012A15D0A2F5CE
:100D50004072FE3A0FD1BDF8041049BA4180BDF887
:100D6000061049BA8180BDF8081049BAC180BDF8A3
:100D70000A1049BA01810BB000BD491EC9B2017009
:100D80000D4A01EB810102EB410032F81130038181
:100D9000BDF804305BBA22F81130BDF8061049BA2C
:100DA0004180BDF8081049BA81809DF80A10817110
:100DB000E1E70000D0000020F845002070477047B0
:100DC0007047000070B5044690F82000012804D058
:100DD000606A40F40020606218E0022084F820007D
:100DE0002068016821F00101016000F00BFB05465D
:100DF0000EE000BF00F006FB401B0A2808D9606A1D
:100E000040F400306062052084F82000012070BDAD
:100E100020684068C007EDD1606270BD70477047C0
:100E2000704770477047704770472DE9F04104469E
:100E3000876D00F0E7FA064694F835000025022891
:100E400006D08020606584F834500120BDE8F08130
:100E50002068016821F0160101602068416921F0D5
:100E600080014161206C08B9A06C20B12068016844
:100E700021F0080101602068016821F00101016092
:100E80000CE000F0BFFA801B052807D92020606520
:100E9000032084F8350084F83450D7E720680068D0
:100EA000C007EED194F85C103F208840B860012064
:100EB00084F8350084F834500020C7E790F83510E6
:100EC000022903D08021416501207047052180F867
:100ED00035100068016821F00101016000207047B1
:100EE0002DE9F84304464FF00009CDF8009063481F
:100EF0004FF41651A56D0068B0FBF1F72E6894F819
:100F00005C10082000FA01F131420FD021680A6814
:100F100052070BD50A6822F004020A6094F85C10AC
:100F20008840A860606D40F00100606594F85C1036
:100F30004FF0010808FA01F0304208D021684969F1
:100F4000090604D5A860606D40F00200606594F861
:100F50005C1004208840304208D021680968890765
:100F600004D5A860606D40F00400606594F85C10E2
:100F700010208840304218D021680968090714D52C
:100F8000A86020680168490304D50068000308D5FB
:100F9000A16C07E00168C90503D4016821F00801CC
:100FA0000160216C09B12046884794F85C1020202C
:100FB0008840304231D021680968C9062DD5A86023
:100FC00094F8350005282068016806D0490347D504
:100FD000006800031DD4616C1CE021F01601016063
:100FE0002068416921F080014161206C08B9A06C42
:100FF00020B12068016821F00801016094F85C10BC
:101000003F208840A86084F8358084F83490216DB2
:101010001FE0E16B09B120468847606D00282BD0A6
:10102000606DC00714D0052084F835002068016881
:1010300021F0010101600098401C0090B84203D8E3
:1010400020680068C007F6D184F8358084F83490B1
:10105000E16C002910D001B02046BDE8F0430847FC
:101060000168C905D5D4016821F01001016084F838
:10107000358084F83490CCE7BDE8F8836400002024
:101080002DE9F041044600F0BDF906465CB10220AE
:1010900084F83500002584F834502068016821F078
:1010A000010101600DE00120BDE8F08100F0AAF926
:1010B000801B052805D920206065032084F83500B1
:1010C000F2E720680068C007F0D122681168204864
:1010D0000140D4E901031843D4E9033633431843EC
:1010E00063691843A3691843E3691843236A1843E3
:1010F0000843616A042903D1D4E90B131943084357
:10110000106020684069666A20F0070130460E438F
:10111000012704280CD1A06A0643E06A40B12046AA
:10112000FFF71CFA20B14020606584F83570BAE7FB
:10113000206846612046FFF7FDF994F85C203F21C6
:1011400091408160656584F835700020ACE700004F
:101150003F8010F02DE9F0410446866D90F8340090
:10116000002501280DD0012084F8340094F8357052
:101170000020012F07D084F8340002252846BDE85E
:10118000F0810220FBE7022784F835706065204675
:10119000FFF70EFA94F85C103F208840B06020689A
:1011A000016841F016010160206C20B120680168DF
:1011B00041F0080101602068016841F0010101600F
:1011C000DCE700002DE9F84FDFF8F8A10022012448
:1011D00003254FF00F090AF1040BAAF1040E00BF1A
:1011E0000B6804FA02F63340B34270D10F7907F06E
:1011F0000307012F01D0022F16D187684FEA42085A
:1012000005FA08FC27EA0C07D1F80CC00CFA08FC18
:101210004CEA070CC0F808C04768B7430E79C6F31C
:10122000001696403E4346600E79F643B6070AD054
:10123000C7684FEA420C05FA0CF6B7438E6806FA07
:101240000CF63E43C6600E7906F00306022E10D15E
:10125000D60800EB8608D8F8206057074FEAD76C0D
:1012600009FA0CF7BE430F6907FA0CF73743C8F8C1
:10127000207006684FEA420C05FA0CF7BE430F795E
:1012800007F0030707FA0CF7374307604E6816F4B8
:10129000403F1CD04C4E376847F480473760366873
:1012A00022F0030706F480460096484E07EB060C32
:1012B000DCF8086897073F0F09FA07F826EA0806DE
:1012C000DFF80C81404503D14FF0000841E072E0A7
:1012D000DFF80081404502D14FF0010839E0DFF826
:1012E000F880404502D14FF0020832E0DFF8EC8090
:1012F000404502D14FF003082BE0DFF8E480404581
:1013000002D14FF0040824E0DFF8D880404502D134
:101310004FF005081DE0DFF8D080404502D14FF0C6
:10132000060816E0DFF8C480404502D14FF00708F8
:101330000FE0DFF8BC80404502D14FF0080808E01C
:10134000DFF8B080404502D14FF0090801E04FF0CE
:101350000A0808FA07F848EA0608CCF80888DAF814
:1013600000605746D1F804C09E435FEACC2C00D5FC
:101370001E433E60DBF800605F46D1F804C09E4328
:101380005FEA8C2C00D51E433E60DEF80060774695
:10139000D1F804C09E435FEA8C3C00D51E433E60FA
:1013A000084F083F3E68D1F804C09E435FEACC3C3A
:1013B00000D51E433E60521C102AFFF411AFBDE859
:1013C000F88F0000083C01404438024000300140E2
:1013D000000002400004024000080240000C0240ED
:1013E000001002400014024000180240001C02409D
:1013F00000200240002402400AB1816170470904C4
:10140000FBE700000148806870470000580000209A
:1014100002488168027811448160704758000020BA
:101420000B4810B5016841F400710160016841F496
:1014300080610160016841F480710160032000F067
:101440009FF80F2000F006F800F050F8002010BDC3
:10145000003C024030B505461F4887B000240168B3
:1014600041F010010160006806A900F01000009032
:1014700001A800F069F90498A8B100F085F94000CE
:101480001649174AB0FBF1F11648491E026040F2B6
:10149000E732C0E90324C0E90114846100F07EFB57
:1014A000040003D015E000F06FF9E9E70D4800F003
:1014B000A3FB04000DD1362000F034F8102D07D224
:1014C00000222946362000F03BF80748056000E07E
:1014D000012407B0204630BD4038024040420F0092
:1014E00000100040C00800205C0000200C4882B0C2
:1014F000016841F480410160006800F48040009080
:101500000748001F016841F0805101600068002217
:1015100000F0805000900F21901E02B000F010B833
:1015200044380240002809DB00F01F0201219140ED
:101530004009800000F1E020C0F800117047000071
:10154000F0B40E4B1B680C46C3F30223C3F107052E
:10155000042D00D90425191D072901D2002300E01C
:10156000DB1E012606FA05F1491E214099409E40E6
:10157000761E16403143F0BC01F0C4BE0CED00E015
:10158000064900F0070208684FF6FF03184040EADA
:101590000220034A10430860704700000CED00E091
:1015A0000000FA052DE9F8431748016841F0805121
:1015B00001600068154F00F08050012600903E64E5
:1015C000FFF720FF05464FF47A78114C05E000BF85
:1015D000FFF718FF401B40450DD86068C003F7D5E2
:1015E0007E64FFF70FFF0546464607E0FFF70AFF58
:1015F000401BB04202D90320BDE8F8836068800335
:10160000F4D50020F8E700004038024000000E4208
:10161000007000402DE9F0470E46050065D0DFF868
:101620001481D8F80000F7B200F00F00B04207D2E2
:1016300088F80070D8F8000000F00F00B04254D1D4
:1016400028683D4C810712D5400703D5206840F437
:10165000E05020602878000703D5206840F46040FF
:1016600020602068A96820F0F000084320602878F6
:10167000C0072DD0304968680839012812D00228E7
:1016800013D0032811D00968890700292DDA2168B1
:1016900021F0030101432160FFF7B4FE814641F2CE
:1016A000883A0EE009688903EFE709688901ECE7E9
:1016B000FFF7A8FEA0EB0901514502D90320BDE8C0
:1016C000F0872068696800F00C00B0EB810FEFD163
:1016D000D8F80010404601F00F01B14207D9077059
:1016E000006800F00F00B04201D00120E7E7287841
:1016F000400705D52068E96820F4E05008432060E1
:101700002878000706D52068296920F4604040EA5F
:10171000C100206000F058F82168084AC1F30311A5
:10172000515CC8400649086006480068FFF792FE11
:101730000020C4E7003C024008380240544300083F
:10174000640000205C0000200F2202600C4A136835
:1017500003F003034360136803F0F003836013682E
:1017600003F4E053C36012684FF4E05303EAD2027B
:1017700002610448006800F00F0008607047000034
:1017800008380240003C02400448054900680968E6
:10179000044AC1F38221515CC840704764000020B4
:1017A0000838024064430008044805490068096895
:1017B000044AC1F34231515CC840704764000020C4
:1017C0000838024064430008154810B5006810F05E
:1017D0000C02144813D01449042A0FD0082A0ED141
:1017E0000F4C241F2268236802F03F025B0207D5DA
:1017F0002068C0F38810A0FB010106E0084610BD78
:101800002168C1F38811A1FB00010023FEF74CFD04
:101810002168C1F30141491C4900B0FBF1F010BD42
:10182000083802400024F400001BB7002DE9F84FEF
:1018300004006ED02078DFF84C93C007A9F10405AE
:101840004AD009F104000168C1F38101012908D0DF
:101850000068C0F3810002280AD1D9F800004002D4
:1018600006D52868800337D560680028E1D033E0CA
:101870006068B0F5803F10D0B0F5A02F286810D078
:1018800020F480302860286820F480202860606878
:10189000A8B1FFF7B7FD06460DE0286840F4803098
:1018A000F4E740F480202860F7E700BFFFF7AAFDC7
:1018B000801B642873D828688003F7D50CE0FFF7F5
:1018C000A1FD064605E000BFFFF79CFD801B6428D4
:1018D000F0D828688003F7D42078DFF8AC8280073E
:1018E0004FF0000A3ED5A748001D016811F00C0F0B
:1018F00008D00068C0F3810002280BD1D9F800009D
:10190000400207D42868800716D5E068012800D176
:1019100012E033E1E068B8B10120C8F80000FFF739
:1019200071FD064605E000BFFFF76CFD801B022835
:10193000C0D828688007F7D52868216920F0F8000A
:1019400040EAC10028600DE0C8F800A0FFF75AFD8A
:10195000064604E0FFF756FD801B02281FD82868C2
:101960008007F7D42078000722D5864F8748616921
:10197000703771B101210160FFF744FD064604E0B4
:10198000FFF740FD801B022809D838688007F7D58B
:101990000EE0C0F800A0FFF735FD064605E082E046
:1019A000FFF730FD801B02287DD838688007F7D408
:1019B0002078400768D5DFF8CCB100270BF13C0B4D
:1019C000DBF80000C0000BD4DBF8001041F08051C0
:1019D000CBF80010DBF80000012700F080500090E9
:1019E0006B4E3068C00510D4306840F480703060B1
:1019F000FFF708FD009005E0FFF704FD0099401A8D
:101A0000022850D83068C005F6D55E4EA0686C3606
:101A100001280FD00528306810D020F00100306078
:101A2000306820F004003060A068B8B1FFF7EAFC2D
:101A300000900FE0306840F00100F4E740F004004F
:101A40003060F7E7FFF7DEFC0099411A41F2883079
:101A5000814266D830688007F4D50EE0FFF7D2FCEB
:101A6000009007E0FFF7CEFC0099411A41F2883060
:101A7000814256D830688007F4D42FB1DBF80010CB
:101A800021F08051CBF80010A069C8B33D49091D71
:101A90000968C1F3810102294AD00228504607D0C3
:101AA000C8F8600000E03CE0FFF7ACFC04463BE017
:101AB0004746C8F86000FFF7A5FC064605E000BFF2
:101AC000FFF7A0FC801B02282BD828688001F7D4E0
:101AD000D4E907010843A16A2E4A490802EB0141F3
:101AE000626A41EA8211084394F82C1040EA0161CD
:101AF000C9F8001001203866FFF784FC044606E0B0
:101B00003EE000BFFFF77EFC001B022809D82868D2
:101B10008001F7D534E000BFFFF774FC001B0228FA
:101B200002D90320BDE8F88F28688001F4D427E0AB
:101B30000128F7D0D9F80000E26900F48001914251
:101B40001CD1226A00F03F01914217D147F6C071C3
:101B5000626A0140B1EB821F10D1A26A4FF0FF33DD
:101B600000F4403103EB5202B1EB024F06D194F87E
:101B70002C1000F07060B0EB016F01D00120D1E7B4
:101B80000020CFE70438024000004742800E474261
:101B9000007000400000FFFF7047704710B5040060
:101BA00003D094F83D0010B107E0012010BD0020E3
:101BB00084F83C00204600F01EF8022084F83D0026
:101BC000211D206801F0A2F8012084F8460084F865
:101BD0003E0084F83F0084F8400084F8410084F817
:101BE000420084F8430084F8440084F8450084F8F7
:101BF0003D00002010BD704790F83D10012901D034
:101C000001207047022180F83D100168CA6842F047
:101C10000102CA6000681149884214D0B0F1804FB7
:101C200011D00F4988420ED00E4988420BD00E4980
:101C3000884208D00D49884205D00D49884202D01B
:101C40000C49884204D1816801F00701062903D0BC
:101C5000016841F00101016000207047000001406F
:101C60000004004000080040000C00400004014057
:101C7000004001400018004070472DE9F041044643
:101C80000068C66805694FF00007A90713D5B107BA
:101C900011D5F91E01610120207720688069800735
:101CA000204602D0FFF7E8FF04E000F07EF820466F
:101CB00000F07CF82777680716D5700714D52168DF
:101CC0006FF004000861022020772068806910F41A
:101CD000407F204602D0FFF7CFFF04E000F065F818
:101CE000204600F063F82777280715D5300713D56D
:101CF00021686FF008000861042020772068C0691F
:101D00008007204602D0FFF7B7FF04E000F04DF84F
:101D1000204600F04BF82777E80616D5F00614D5D4
:101D200021686FF010000861082020772068C069E2
:101D300010F4407F204602D0FFF79EFF04E000F041
:101D400034F8204600F032F82777E80708D0F0078B
:101D500006D021686FF001000861204600F028F8E5
:101D6000280608D5300606D521686FF08000086186
:101D70002046FFF711FF680608D5700606D52168D2
:101D80006FF040000861204600F01CF8A8060AD554
:101D9000B00608D521686FF0200008612046BDE834
:101DA000F041FFF7FABEBDE8F081704770470000D0
:101DB00000680349884201D1FFF72ABB7047000041
:101DC000001000407047704770470000F8B5016888
:101DD00004460868CA684B6910F00F0F4FF0000501
:101DE00059D003F0010602F49077374365D0C1075C
:101DF00005D0D10503D5616C41F001016164410753
:101E000005D5D90703D0616C41F0020161648107F7
:101E100005D5D90703D0616C41F004016164010765
:101E200007D502F02001314303D0616C41F0080175
:101E30006164616C00293AD0800604D5900602D511
:101E4000204601F083F820684069616CC0F380107F
:101E5000090700D460B3204601F043F820684069C8
:101E6000400621D52068143050E8001F21F04001C1
:101E700040E80012002AF5D1E06BA8B16E49016577
:101E8000E06BFFF71BF8002811D0E06B016D01B08B
:101E9000BDE8F040084783060FD593060DD52046D0
:101EA000BDE8F84001F052B82046FFF78DFFF8BDBD
:101EB0002046FFF789FF6564F8BD266B2023012EBD
:101EC0007DD1C6067BD5D60679D5086848680090CE
:101ED00048694FF00206400641D5E16B086840684A
:101EE0000004000CE8D0A28D8242E5D9E085C869E3
:101EF000B0F5807F2DD020680C3050E8001F21F411
:101F0000807140E80012002AF5D12068143050E8B2
:101F1000001F21F0010140E80012002AF5D12068DD
:101F2000143050E8001F21F0400140E80012002A60
:101F3000F5D184F84230256320680C3050E8001F4A
:101F400021F0100140E80012002AF5D1E06BFEF705
:101F50006CFF6663A08DE18D401A81B22AE0A08DEE
:101F6000E18D401A81B2E08D0028A5D00029A3D0D0
:101F700022680C3252E8000F20F4907042E800070B
:101F8000002FF5D12068143050E8002F22F0010214
:101F900040E80027002FF5D184F8423025632068FF
:101FA0000C3050E8002F22F0100240E80023002BF4
:101FB000F5D166632046FFF706FFF8BDFFE705068B
:101FC0002BD5150629D594F841002128F5D1A06814
:101FD000B0F5805F01D12069B0B1206A411C216257
:101FE000216800784860E08C401E0004000CE0840A
:101FF000E3D12068C16821F08001C1602068C16818
:1020000041F04001C160D8E7206A0088C0F30800B1
:102010004860206A801C2062E5E74006CDD5500666
:10202000CBD5CA68204622F04002CA6084F841300D
:1020300000F073FAC1E70000E52D000870B5040058
:1020400004D094F84100002510B106E0012070BDD5
:1020500084F84050204600F023F8242084F8410002
:102060002068C16821F40051C160204600F0D0FF13
:102070002068016921F4904101612068416921F0E3
:102080002A0141612068C16841F40051C160656462
:10209000202084F8410084F842006563002070BD70
:1020A0002DE9F04F87B0044614216846FEF746F943
:1020B0009448DFF84C821038D4F800C0914B0222CB
:1020C0000321DFF844E2002506154FF0080A4FF01F
:1020D00020674FF48079C44557D1D3F800C0AB4690
:1020E0004CF0804CC3F800C01B6803F0804305939C
:1020F000036843F0100303600068CDE9025100F06B
:1021000010000590C801CDE90002CDF810A0694685
:102110007046FFF757F8DFF8F8A17C495046CAF837
:102120000010C0E90175C0E90356CAF81450C0E9AF
:102130000659B846CAF820504F46CAF82450FEF750
:102140009FFF08B1FEF749FA714D7048C4F83CA0F2
:1021500060353038CAF83840C5E900084020A8602A
:10216000C5E903B6C5F814B0C5E906B7C5F820B08F
:102170002846C5F824B0FEF783FF08B1FEF72DFA14
:10218000A563AC6307B0BDE8F08FDFF88881C44574
:1021900038D1D3F800C04CF0004CC3F800C01B6825
:1021A00003F000430593036843F0100303600068E5
:1021B00000F0100005908DE82600CDE9031A69466D
:1021C0007046FEF7FFFFDFF84881504908F1C0086C
:1021D00048314046C8F80010C0E90175C0E903560F
:1021E000C8F81450C0E90659C8F82050C8F824505F
:1021F000FEF746FF08B1FEF7F0F9C4F83C80C8F8D6
:102200003840BFE7DFF81081C44522D11C6844F490
:1022100000341C601B6803F400330593036843F02B
:1022200008030360006800F00800059060208DE856
:1022300025000720CDE9031069463848FEF7C2FFA4
:10224000002205212620FFF77BF92620FFF76AF9F7
:1022500098E7334B9C4595D12A4B1B1DD3F800C002
:102260004CF0200CC3F800C01B6803F0200305935A
:10227000036843F0400303600068CDE9025100F0B9
:10228000400005904FF48440CDE90002CDF810A045
:1022900069462448FEF796FFDFF890B02249584679
:1022A000B046E0E802174021A0E82201BA4640F813
:1022B00014594E46C0E9065905625846CBF82450D9
:1022C000FEF7DEFE08B1FEF788F9184F1648C4F88D
:1022D00038B060377838CBF838403860C7E901A5A6
:1022E000C7E903587D61C7E906563D6238467D62FD
:1022F000FEF7C6FE08B1FEF770F9E763BC6341E77D
:10230000007800404038024000100240586002400F
:10231000AC060020007C004000440040000C02405D
:102320000014014000180240A0640240CC070020C5
:1023300090F84230202B01D00220704721B11AB111
:102340000023036300F0EABE0120704790F842309A
:10235000202B01D00220704721B11AB10023036362
:1023600000F024BF0120704770B53C49884203D17A
:1023700020226039394815E038494831884204D173
:102380002022883901F188000CE03449D831884294
:102390000CD1A1F1F80000F0C3F830492022203917
:1023A00001F1F800BDE87040FFF7C2BF2B49903142
:1023B000884251D12A4C2B4A002021782579555446
:1023C0006378FD2B01D1FC2D00D0C9B3491CC9B2E3
:1023D00001232170012908D15678402E02D0412EC8
:1023E00002D002E0A37005E0E370A678012E01D1CF
:1023F000402903D0E678012E0ED023E02070A07093
:102400001948036092F83F00FD281BD1402215496E
:102410001648FDF77AFF15E0382913D12070E070D7
:102420001348036092F83700FD2804D138220D4983
:102430001048FDF76AFF40210A48FDF77FFF01E0E1
:10244000FFE7207065700649BDE87040034801222F
:10245000091D9030FFF77ABF70BD00008C05002089
:102460004400002078470020F0000020A046002013
:10247000F4000020E046002070472DE9F8430446B0
:1024800090F84100984616460D46202802D00220BA
:10249000BDE8F88385B17EB100206064212084F816
:1024A0004100FEF7AFFFA6848146E684A06820279E
:1024B000B0F5805F02D003E00120E9E7206910B1A8
:1024C0002E4600250EE000260CE08021204600F07C
:1024D00088FEA8B9C6B116F8010B21684860E08CE7
:1024E000401EE084E08C4B464FF00002CDF80080A7
:1024F0000028EAD14FF04001204600F072FE40B1C2
:1025000084F841700320C3E735F8020BC0F30800DC
:10251000E3E784F841700020BAE77047FEE7000067
:1025200030B50022094B1146445C412C08D14418B7
:10253000A578422D04D162781A70A2785A700122CF
:10254000491C1029F0DB104630BD0000520000206D
:102550000F4810B50D4901600521416000214FF47D
:1025600000328160C0E9031252014261017601220A
:1025700042768176C17601774177FEF7B2FA00287C
:1025800003D0BDE81040FEF728B810BD006400403D
:10259000DC040020104810B50E490160052141609F
:1025A00000214FF04072C0E902124FF40032026184
:1025B000520142610176012242768176C17601772D
:1025C0004177FEF78EFA002803D0BDE81040FEF7F1
:1025D00004B810BD00680040040500201D4808B57F
:1025E000016841F400110160016801F400110091DB
:1025F000016841F4800101600068002200F480005D
:10260000009005210C20FEF79BFF0C20FEF78AFFAF
:10261000002205210E20FEF793FF0E20FEF782FF19
:10262000002205211120FEF78BFF1120FEF77AFF13
:10263000002205213920FEF783FF3920FEF772FFC3
:10264000002205214520FEF77BFFBDE8084045201C
:10265000FEF768BF3038024010B58EB01C220B491F
:102660006846FDF752FE0021684601F06CF8084C00
:1026700006491C22A0611C3107A8FDF746FE002177
:1026800007A801F060F8E0610EB010BD1443000827
:102690002000002010B586B014216846FDF74EFEDC
:1026A0001D48016841F010010160016801F010014E
:1026B0000591016841F040010160016801F04001AD
:1026C0000591016841F008010160016801F008010D
:1026D0000591016841F080010160016801F080010D
:1026E0000591016841F00201016000680B4C00F0A7
:1026F0000200059001223C212046FEF77DFE3C2091
:102700000121CDE900010320CDE9021069462046F0
:10271000FEF758FD06B010BD30380240001C0240E4
:102720000C4810B50A4901604FF4E13141600021C5
:1027300081600C22C160C0E904128161C161FFF7B0
:102740007DFC002803D0BDE81040FDF746BF10BD5A
:10275000007800408C0500200C4810B50A49016043
:102760004FF4E1314160002181600C22C160C0E979
:1027700004128161C161FFF761FC002803D0BDE84C
:102780001040FDF72ABF10BD007C0040D40500209A
:102790000C4810B50A4901604FF4E1314160002155
:1027A00081600C22C160C0E904128161C161FFF740
:1027B00045FC002803D0BDE81040FDF70EBF10BD5A
:1027C000004400401C0600200C4810B50A49016076
:1027D0004FF4E1314160002181600C22C160C0E909
:1027E00004128161C161FFF729FC002803D0BDE814
:1027F0001040FDF7F2BE10BD001401406406002039
:10280000FEE7FEE7414D424E424C434FDFF80C815C
:10281000DFF80C91DFF80CA1DFF80CB12888322822
:1028200006D240F2E733012240A14148FFF725FEDE
:102830003068012868D04FF4C87000BF00EE100A5D
:10284000F8EE400AC4ED010A94ED021A94ED000A74
:1028500000F034FF3868D8ED000AB0F9020000EE4D
:10286000100A2F48B8EEC00A00F072F8DAF800003B
:10287000DBED000AB0F9020000EE100A2D48B8EEB8
:10288000C00A00F065F82C480068B0F9020000EEBC
:10289000100A2A48B8EEC00AD0ED000A284800F015
:1028A00057F828480068B0F9020000EE100A2648E0
:1028B000B8EEC00AD0ED000A244800F049F82348D9
:1028C00090ED0D0ABDEEC00A10EE100A03B21C48CE
:1028D00090ED0D0ABDEEC00A10EE100A02B21548C6
:1028E00090ED0D0ABDEEC00A10EE100A99ED0D0A2A
:1028F00001B2BDEEC00A10EE100A00B2FDF7D8FD1D
:10290000022000F013FF89E7002097E7D2000020A3
:1029100054000020200000200400002014000020AB
:102920001801002008000020180000204E000000C0
:1029300064060020740100200C0000201C00002010
:10294000D001002010000020000000202C020020F8
:1029500010B504002DED028B9FED6C2A16D0D4ED3E
:10296000151AC4ED161A94ED141A84ED151AC4ED57
:102970000B0A84ED0C0A30EEC00A84ED140A2078AC
:1029800048B1012841D002287CD077E0B0EE420A5D
:10299000BDEC028B10BDD4ED010AF0EEC01A11EEB1
:1029A000900A60EE800A5A49C4ED0E0A884208DA9D
:1029B000D4ED0F1A94ED022A42EE001AC4ED0F1A5C
:1029C00001E084ED0F2A30EE410A94ED031A20EE67
:1029D000011A84ED101AD4ED0F1A94ED0A0AF4EEE0
:1029E000C01AF1EE10FA09DCB1EE400AF4EEC01A9A
:1029F000F1EE10FA02D394ED0F0A01E084ED0F0A14
:102A000030EE800A30EE010A26E070EE410A94EDC5
:102A1000012A60EE820AC4ED0E0A94ED022A22EE2B
:102A2000002A84ED0F2AD4ED122A70EE820AC4ED3A
:102A3000132AD4ED112AC4ED122AF0EE002A01EE79
:102A4000620A30EE210A84ED110A94ED031A21EE98
:102A5000000A84ED100A51E084ED0D0AD4ED090A54
:102A6000B4EEE00AF1EE10FA06DCF1EE600AB4EE24
:102A7000E00AF1EE10FA01D2C4ED0D0A94ED0D0A50
:102A800086E7FFE7FDF7ABFDD4ED060A20EE200A4E
:102A900000F048FCB7EE008A94ED051AC8EE000A73
:102AA00038EE600AD4ED040A41EE000A94ED140AEF
:102AB00094ED151A30EE411A60EE810AC4ED0E0A4B
:102AC000FDF78DFDD4ED070A20EE200A00F02AFC68
:102AD000C8EE000A94ED080A94ED151A20EE800A5B
:102AE000D4ED140A70EE810AB6EE001A60EE810A87
:102AF00020EE200A84ED0F0AD4ED0E0A30EE800A93
:102B0000D4ED0D0A30EE200AA6E700000000000018
:102B100000007A4300283CD0002A3AD0017092EDA0
:102B2000001A80ED011A92ED011A80ED021A92ED61
:102B3000021A80ED031A92ED031A80ED041A92ED49
:102B4000041A80ED051A92ED051A80ED081A92ED2F
:102B5000061A80ED061A92ED071A80ED071A80ED2D
:102B6000090A9FED0C0AC0ED0A0A80ED130A80EDF8
:102B7000120A80ED110A80ED0D0A80ED100A80ED39
:102B80000F0A80ED0E0A80ED160A80ED150A80ED21
:102B9000140A7047000000001F4C204E204F86B0E2
:102BA000002500BF94ED140A04950595BDEEC00AFA
:102BB00010EE100A00B2CDE9020594ED100ABDEE48
:102BC000C00A10EE100A94ED0F0A00B2BDEEC00A62
:102BD00010EE101A09B2CDE9001094ED0E0ABDEE08
:102BE000C00A10EE100A94ED0D0A03B2BDEEC00A41
:102BF00010EE100A97ED000A02B2BDEEC00A30686E
:102C000010EE101AB0F9020009B2FDF7D3FB0A204A
:102C100000F08CFDC6E70000180100200400002031
:102C20001400002010B5502080F31188BFF34F8F9F
:102C3000BFF36F8F01F05EFA18B104494FF0805076
:102C40000860002080F3118810BD000004ED00E052
:102C500030B593B030216846FDF770FB14210CA805
:102C6000FDF76CFB20480025016841F080510160B0
:102C7000006800F0805011901C48016841F4404108
:102C800001600068022400F440401190012000908F
:102C9000000401908001CDE9064006200890B42090
:102CA000CDE9090404200B906846FEF7BFFD08B18A
:102CB00072B6FEE7FEF776FC08B172B6FEE70CA925
:102CC0000F2081E831004FF4A0500F904FF4805056
:102CD000109005210CA8FEF79DFC002801D072B6CB
:102CE000FEE713B030BD00004038024000700040E5
:102CF0000248016841F470010160704788ED00E00E
:102D00000148FEF7BABF0000C0080020F0B5026815
:102D1000294C2A4D2A4E2B4F2B4B4FF0804CA04272
:102D200009D0604507D0A84205D0B04203D0B842D0
:102D300001D0984204D122F0700E4A6842EA0E0295
:102D4000A0421BD0604519D0A84217D0B04215D080
:102D5000B84213D0984211D01C4DA8420ED01C4D41
:102D6000A8420BD01B4DA84208D01B4DA84205D04D
:102D70001A4DA84202D01A4DA84203D122F4407540
:102D8000CA682A434D6922F080022A4302608A6899
:102D9000C2620A688262A04201D0984201D10969E8
:102DA0000163012141610169C90703D0016921F073
:102DB00001010161F0BD000000000140000400407D
:102DC00000080040000C00400004014000400140A9
:102DD000004401400048014000180040001C004031
:102DE0000020004010B5806B0021C185C184FEF732
:102DF000EBFF10BD70B5846B2068406994F84110FA
:102E0000C0F3C0100025212904D118B1E584204663
:102E100000F08EF82068406994F84210C0F38010EA
:102E2000222904D118B1E585204600F05AF8606CDB
:102E300040F0100060642046FEF7C6FF70BD10B57C
:102E40000146806B096809684FF00002C9052ED45D
:102E5000C28501680C3151E8003F23F4807341E8DA
:102E60000034002CF5D10168143151E8003F23F003
:102E7000010341E80034002CF5D10168143151E818
:102E8000003F23F0400341E80034002CF5D120211D
:102E900080F84210016B012909D101680C3151E819
:102EA000003F23F0100341E80034002CF5D14263C9
:102EB000016B012902D0FFF757FA10BD818DFEF793
:102EC00082FF10BD10B5806B01214163016B0129A8
:102ED00002D0FFF7D1FA10BD818D4908FEF773FFCC
:102EE00010BD01680C3151E8002F22F4907241E8C6
:102EF0000023002BF5D10168143151E8002F22F096
:102F0000010241E80023002BF5D1016B012909D111
:102F100001680C3151E8002F22F0100241E8002333
:102F2000002BF5D1202180F8421000210163704769
:102F300001680C3151E8002F22F0C00241E8002363
:102F4000002BF5D1202180F84110704708B590F88A
:102F50004210222901D0022008BD82684FF480531C
:102F60009A4201D1016921B1816A9A421BD04AB1CA
:102F70000AE00268816A5268C2F308020A80816A24
:102F8000891C08E0026972B10268526802F07F028F
:102F90000A70816A491C8162C18D491E0904090CAD
:102FA000C18503D01BE002685268F1E70168CA6876
:102FB00022F02002CA600168CA6822F48072CA60E6
:102FC00001684A6922F001024A61202180F842101A
:102FD00000214163026B012A03D0FFF7C5F90020ED
:102FE00008BD016301680C3151E8002F22F0100286
:102FF00041E80023002BF5D101680A68D20602D50A
:103000000A6849680091818DFEF7DDFEE7E7000060
:1030100070B5044600680169E26821F4405111432B
:1030200001612169A068E2690843616911430843AD
:103030002168CA6849F20C639A430243CA60206857
:103040004169A26921F4407111434161314920680D
:10305000884202D03049884202D1FEF7A5FB01E048
:10306000FEF792FBE2690023192164253226B2F5AE
:10307000004F626828D0A0FB0101930F9200FDF77A
:1030800013F90146B0FBF5F06FF01802504301EB65
:10309000800006EB0010B0FBF5F000F0F002B1FB91
:1030A000F5F002EB0012B1FBF5F06FF01803584396
:1030B00001EB800006EB0010B0FBF5F000F00F0014
:1030C00021681044886070BDA0FB010192185B412B
:1030D000FDF7EAF80146B0FBF5F00201B1FBF5F0AF
:1030E0006FF01803584301EB800006EBC000B0FB03
:1030F000F5F000F0F80002EB4002B1FBF5F05843A8
:1031000001EB800006EBC000B0FBF5F000F007001B
:10311000D6E70000001001400014014038B581627C
:1031200004468285002013466064222284F84220EF
:10313000E56B1B4AEA63E56B1A4A2A64E56B1A4A97
:10314000EA64E26B10650A462168E06B091DFEF730
:1031500001F82068016840680090206948B1206843
:103160000C3050E8001F41F4807140E80012002A42
:10317000F5D12068143050E8001F41F0010140E80B
:103180000012002AF5D12068143050E8001F41F0E9
:10319000400140E80012002AF5D1002038BD0000AF
:1031A0003F2E0008C52E0008F52D0008816282859B
:1031B000C28500214164222180F84210016921B1B9
:1031C0000168CA6842F48072CA6001684A6942F0C4
:1031D00001024A610068C16841F02001C16000201D
:1031E00070472DE9F843984617460D460446089E59
:1031F00024E0701C22D0FEF705F9A0EB0800B042D5
:103200001AD8CEB12068C168490717D5802D15D0CE
:10321000402D13D00168C94309070FD40168002568
:10322000406800902046FFF75CFE0820606484F848
:1032300040500120BDE8F8830320FBE720680068C8
:1032400035EA000004D00020B842D2D00020F1E7D7
:103250000120F9E70148FEF7B9BD00001C06002077
:103260001B4910B50020C880088148818881194910
:10327000202201F16000FFF75BF81649202220317F
:1032800001F18800FFF754F812492022403101F182
:10329000F800FFF74DF80F4860300068C16841F052
:1032A0001001C1600B48A8300068C16841F01001EE
:1032B000C16009480068C16841F01001C16006485A
:1032C00048380068C16841F01001C16010BD0000BD
:1032D000440000202C05002064060020FEE7410089
:1032E000080218BF04200A0E18BF40F001004FF07A
:1032F0007F4232EA010108BF40F00200012808BF06
:10330000052070470907090E002804DB00F1E020C2
:1033100080F80014704700F00F0000F1E02080F802
:10332000141D704710B510EE104A4FF0194068494F
:10333000002200EB44002DED028B884257D8DFEDD0
:10334000650A14F0004F60EE200A14BFBEEE001AAA
:10335000B6EE001A71EE200AFDEEE00A10EE900AB9
:1033600000EE900AF8EEE00A9FED5B1A00EEC10A4B
:103370009FED5A1A00EEC10ADFED590A9FED591A66
:1033800000EE201ADFED580A40EE010A9FED571AB1
:10339000574B00F0030100EE201A21EE000A7B4497
:1033A00003EB8103D3ED000A524B7B4403EB810313
:1033B00093ED001A504B41EE000A7B4403EB810170
:1033C000801091ED000A70EE800AEABB00EE100A50
:1033D000B8EEC01ADFED491A9FED490ABDEC028B29
:1033E00001EE210ABCEEC00A20EE200A10BD4FF00B
:1033F000FF40A0431BD04FF0CE40B0EB440F82BF44
:10340000B7EE000ABDEC028B10BD3E48B0EB440F96
:1034100028BF012293D2022000F09CF814F0004F44
:1034200015D0BDEC028BBDE8104000F07BB814F560
:10343000000F02BF9FED340ABDEC028B10BDBDEC46
:10344000028BBDE8104000E007E000F05FB8BDEC83
:10345000028BBDE8104000F05DB800EBD07359104E
:103460004FF07E5202EBC15100EE101AA0EB630048
:1034700002EBC05060EE200A00EE100A20EE208A17
:1034800018EE100A88B118EE100AB0F1FF4F15D0EF
:1034900018EE100AFFF723FF042808BF00F042F8D7
:1034A000B0EE480ABDEC028B10BD022000F052F8CD
:1034B000BDEC028BBDE8104000F034B8022000F0F3
:1034C00049F8BDEC028BBDE8104000F023B80000C5
:1034D0000000501E3BAAB8400070313EF4FD053795
:1034E00012BB2A3D12BB2A3EFFFFFF3EFFFF7F3F7C
:1034F000DA0F0000DE0F0000AE0F00000000004BEE
:1035000000007E4E0000A0850000000030EE000AA2
:10351000704700009FED020A20EE000A704700008D
:10352000000000709FED020A20EE000A70470000C4
:103530000000001002E008C8121F08C1002AFAD1DA
:1035400070477047002001E001C1121F002AFBD123
:103550007047000001490860704700001401002016
:1035600000B58BB000200121CDE906010891009043
:103570000190029003900590049069460C48FDF775
:10358000B1F80B48FDF71EFC02210948FDF72FF8A2
:103590000E200990059069460648FDF7A3F80548F6
:1035A000FDF710FC02210348FDF721F80BB000BD28
:1035B000DC0400200405002000F00300024900EBB9
:1035C000800001EB40007047F84500202DED028B94
:1035D000FDF726FFFFF73CFBFFF75CF8FEF7FEFF69
:1035E000FFF79EF8FFF7B8F8FFF7EEF8FEF7B0FF29
:1035F000FEF7D0FFFFF7CCF8FFF732FEFFF7B0FF82
:10360000012223492348FEF7A1FE0020FFF7D4FF43
:10361000214C20600120FFF7CFFF60600220FFF700
:10362000CBFFA0600320FFF7C7FF9FED1C8ADFEDF3
:103630001C8AE060F0EE480AB0EE680A194A0021E0
:103640001948FFF767FA174A1748F0EE480AB0EE34
:10365000680A203200215C30FFF75CFA114A1248F8
:10366000F0EE480AB0EE680A40320021B830FFF7A9
:1036700051FA0C4AF0EE480AB0EE680A60320021B6
:103680000A48FFF747FAFEF7E7FF00F057F8FEE7B2
:10369000480000201C0600200400002000803B455C
:1036A00000007A4594420008180100202C020020F6
:1036B0000021842800D0C11C08467047164870EECF
:1036C000602A164990ED032AD0ED041A30EE803AB4
:1036D00041EE022A62EEA12AC1ED002AD0ED052AB0
:1036E0000F4801EE223A23EE213A80ED003A30EE07
:1036F000C03AF1EE600A0B4830EEC00A01EE023A21
:1037000001EE220A23EE212A80ED002A20EE210A72
:10371000054880ED000A70472000002014000020BA
:10372000180000201C0000200000002010B5002818
:1037300000D1012000F052FB002010BD10B500F0B8
:1037400075FB002010BD30B585B004460D4661699B
:10375000B4F90800002910D0A16971B1FFF7A8FFE2
:103760006269A1690192029100902B462269216849
:10377000606800F08FFC049010E0FFF799FF04A947
:1037800001910090208A2B4682B22168606800F087
:103790004BFC012802D005B0002030BD049805B0D4
:1037A00030BD00002DE9F04104460F46194EF56882
:1037B0003068001D00F044FA48B93068012190F8E3
:1037C0002C0001FA00F0316921EA00003061B4F107
:1037D000FF3F07D137B13068BDE8F041011D0E4809
:1037E00000F075BA2C4430684460AC4206D23068B0
:1037F000011DB06BBDE8F04100F04EBA3068011D0C
:10380000706B00F049FAB06A844200D2B462BDE83D
:10381000F081000068000020E409002070B5044633
:1038200000F062FA1C4DA868401CA860286810B11E
:10383000686938B10CE02C60A868012808D100F054
:10384000EDF805E02868E16AC06A884200D82C607B
:10385000686A401C6862E06A01212A69814011435C
:1038600029610E4900EB800001EB8000211D00F072
:103870002EFA00F059FA686900280CD02868E16A2D
:10388000C06A884207D206494FF080500860BFF3F3
:103890004F8FBFF36F8F70BD6800002008090020B4
:1038A00004ED00E070B50D4C6068002815D00C4E9A
:1038B00000F01AFAF068C568281D00F0C1F9A06888
:1038C000401EA0606068401E606000F02DFA28462F
:1038D00000F008F860680028EAD170BD6800002098
:1038E000D009002010B5044694F8511000290BD0DF
:1038F000012911D0022914D0502080F31188BFF380
:103900004F8FBFF36F8FFEE7206B00F023FA204646
:10391000BDE8104000F01EBA2046BDE8104000F09F
:1039200019BA10BD4FF47051104810F0070F06D0AF
:10393000C01D20F007000D49411AC1F570510C4A15
:103940001060002353600144083921F00701183A40
:1039500011604B600B600B1A43600160406890601F
:1039600050604FF00040506170470000F80900209F
:10397000BC000020074E4FF08054074DFFF792FF28
:1039800030680128FAD92C60BFF34F8FBFF36F8FD7
:10399000F4E700000809002004ED00E02DE9F047FD
:1039A0008146099E089D0A9C9A46521E206B00EB98
:1039B000820020F00708002700290CD000202318DF
:1039C0000A5C83F834200A5C12B1401C1028F6D33C
:1039D00084F8437001E084F83470072D00D3062585
:1039E000E5626564A764201D00F053F904F1180036
:1039F00000F04FF92461C5F10700A0616462E7643B
:103A000084F8507052464946404600F003F9206061
:103A1000002E00D03460BDE8F087000070B50024AF
:103A20000F4D04EB840005EB800000F027F9641CC7
:103A3000072CF6D30B4800F021F90B4800F01EF9D3
:103A40000A4800F01BF90A4800F018F9094800F08C
:103A500015F90948034941631431816370BD0000C1
:103A60000809002094090020A8090020BC090020B2
:103A7000D0090020E40900206800002010B4144997
:103A800000E011460A688242FBD34B6803EB010C4D
:103A9000844503D140681844486008460C68D0F853
:103AA00004C00CEB0003A3420CD10A4B1B689A42E2
:103AB00006D05268624442600A681268026002E0FE
:103AC000036000E00260814200D0086010BC7047D3
:103AD000BC000020A40000200749486B00680028B3
:103AE00005D0486BC068C0684068886270474FF076
:103AF000FF30886270470000680000200A48406874
:103B0000B0F1FF3F07D0502080F31188BFF34F8FF3
:103B1000BFF36F8FFEE7502080F31188BFF34F8F04
:103B2000BFF36F8FFEE70000C40000202DE9F041D5
:103B30000546002600F0BEF9344F386808B9FFF793
:103B4000F1FE7869054251D19DB1083515F0070F96
:103B50000FD005F00700C0F10800054415F0070F6D
:103B600007D0502080F31188BFF34F8FBFF36F8FC2
:103B7000FEE7002D3AD07868854237D824490846B8
:103B8000046801E0214604466068A84202D2206829
:103B90000028F7D13868844228D0086800F1080668
:103BA000206808606068411B10290FD9601910F067
:103BB000070F07D0502080F31188BFF34F8FBFF35A
:103BC0006F8FFEE741606560FFF758FF61687868B6
:103BD000401A7860BA68904200D2B86078690843A9
:103BE000606000202060F868401CF86000F0ECFA8B
:103BF00016F0070F07D0502080F31188BFF34F8FC6
:103C0000BFF36F8FFEE73046BDE8F081A4000020CF
:103C1000BC000020001F4FF080730360001F21F0E4
:103C200001010160001F0549016014380260001F96
:103C30006FF002010160203870470000FD3A000873
:103C40000169436882689A60836842685A604A687A
:103C5000824201D182684A60002202610868401EE7
:103C60000860086870470000034B036003F15400CC
:103C700008608020106070478802002000F1080171
:103C800041604FF0FF328260C1600161002101603C
:103C9000704700210161704710B4D1F800C0BCF139
:103CA000FF3F02D000F1080202E0026904E01A4678
:103CB00053681C686445FAD953684B6099608A6000
:103CC000516008610168491C016010BC704742687E
:103CD0004A6093688B6093685960916008610168DD
:103CE000491C016070470000502080F31188BFF329
:103CF0004F8FBFF36F8F0A494868401C4860012806
:103D00000CD10848006810F0FF0F07D0502080F356
:103D10001188BFF34F8FBFF36F8FFEE7704700002E
:103D2000C400002004ED00E009494868002806D0DE
:103D3000401E4860002801D180F311887047502050
:103D400080F31188BFF34F8FBFF36F8FFEE7000042
:103D5000C400002070B500282AD0A0F10804154D39
:103D600060686969084207D1502080F31188BFF369
:103D70004F8FBFF36F8FFEE722683AB1502080F378
:103D80001188BFF34F8FBFF36F8FFEE788436060EA
:103D900000F090F860686968084468602046FFF7A2
:103DA0006DFE2869401C2861BDE8704000F00CBA27
:103DB00070BD0000A40000204FF0E0200021016150
:103DC000816105494FF47A720968B1FBF2F1491E2D
:103DD00041610721016170476400002010B502466F
:103DE0000020002A12D00F48006B38B1502080F319
:103DF0001188BFF34F8FBFF36F8FFEE700F05AF8C3
:103E000000211046FFF7CEFC00F0DEF9002807D1B4
:103E100005494FF080500860BFF34F8FBFF36F8F9D
:103E200010BD00006800002004ED00E010B586B071
:103E300000240594049403AA04A905A8FFF714FF1D
:103E400005980499019102900023009415A1174848
:103E5000039A00F01FF91649C86208B1012000E07A
:103E6000002001280AD0B0F1FF3F19D1502080F383
:103E70001188BFF34F8FBFF36F8FFEE7502080F3A1
:103E80001188BFF34F8FBFF36F8F4FF0FF30886201
:103E900001204861CC6006B0BDE8104000F042B897
:103EA00006B010BD49444C450000000075390008BB
:103EB000680000200248016B491C01637047000044
:103EC00068000020154A106B002802D00120D06144
:103ED00070470020D0611069B0FA80F0C0F11F0077
:103EE0000F4900EB800051F8203073B101EB8000E6
:103EF00041684968416000F10803994201D149686D
:103F000041604068C06810607047502080F311889D
:103F1000BFF34F8FBFF36F8FFEE7000068000020F4
:103F20000809002010B582B038480168384A91422B
:103F300007D1502080F31188BFF34F8FBFF36F8FED
:103F4000FEE700683349884207D1502080F311888A
:103F5000BFF34F8FBFF36F8FFEE72F4908780190B3
:103F6000FF200870087800909DF800009DF8002060
:103F700000F0F000904207D0502080F31188BFF38A
:103F80004F8FBFF36F8FFEE79DF80000234C00F0CA
:103F9000500020700720A0609DF8000010F0800FF6
:103FA0000BD0A068401EA0609DF80000400000906B
:103FB0009DF8000010F0800FF3D1A068032807D00F
:103FC000502080F31188BFF34F8FBFF36F8FFEE750
:103FD0004FF44070A060019808701148016841F4E6
:103FE00070010160016841F070410160FFF7E4FE7B
:103FF00000206060FCF70AF90A48016841F040417E
:104000000160FCF7EFF802B0002010BD00ED00E009
:1040100071C20F4170C20F4100E400E0C4000020F3
:1040200020ED00E034EF00E02DE9F04F85B081464F
:104030000F9F0E9E8A4690469B464FEA8800FFF7E8
:1040400075FD054628000AD05420FFF76FFD044691
:104050000CB1256304E02846FFF77CFE00E0002455
:104060009CB1002084F8510003905B4642465146C3
:104070000197009602944846FFF790FC2046FFF710
:10408000CDFB05B00120BDE8F08F05B04FF0FF304B
:10409000BDE8F08F70B586B00646DDF828C00C9CF0
:1040A0000B98002816D0ECB154250495206302200B
:1040B00084F85100002005AD0390CDF800C00195B3
:1040C00002943046FFF76AFC2046FFF7A7FB0598ED
:1040D00006B070BD502080F31188BFF34F8FBFF33F
:1040E0006F8FFEE7502080F31188BFF34F8FBFF32F
:1040F0006F8FFEE72DE9F0470026314F386B00281F
:1041000005D0B869401CB8613046BDE8F087F86852
:10411000451CFD609DB9786B006838B1502080F374
:104120001188BFF34F8FBFF36F8FFEE7786BB96BCA
:104130007963B863386A401C3862FFF7CDFCB86A0F
:10414000DFF8808085420FD34FF00109786B00685B
:1041500038B1786BC068C4686068854212D2B862B2
:1041600002E04FF0FF30B8623868C06A00EB8000B0
:1041700058F82000012800D90126F8690028C3D08A
:104180000126C1E7201DFFF75BFDA06A18B104F10D
:104190001800FFF755FDE16A3A6909FA01F010438A
:1041A000386101EB810008EB8000211DFFF78FFDD6
:1041B000E06A3968C96A8842C8D30126C6E70000A8
:1041C00068000020080900202DE9F0470024A046DF
:1041D0002D4D286B002807D0FFF786FD286B401E69
:1041E0002863286B40B149E0502080F31188BFF369
:1041F0004F8FBFF36F8FFEE7A86800283ED0234F94
:104200003868012600B3A7F1B409F868C46804F15E
:104210001800FFF715FD201DFFF712FDE06A2A695F
:1042200006FA00F11143296100EB800009EB8000E0
:10423000211DFFF74CFDE06A2968C96A884200D356
:10424000EE6138680028E0D10CB1FFF745FCAC699D
:1042500044B1FFF74FFF00B1EE61641E002CF8D1AE
:104260000020A861E86948B14FF0010808494FF003
:1042700080500860BFF34F8FBFF36F8FFFF754FD7F
:104280004046BDE8F087000068000020BC0900201F
:1042900004ED00E0CDCC8C40CDCC4C3D0000404046
:1042A0000000404000000000000000000AD7A33CCE
:1042B0000AD7A33CCDCC8C40CDCC4C3D0000404037
:1042C0000000404000000000000000000AD7A33CAE
:1042D0000AD7A33CCDCC8C40CDCC4C3D0000404017
:1042E0000000404000000000000000000AD7A33C8E
:1042F0000AD7A33CCDCC8C40CDCC4C3D00004040F7
:104300000000404000000000000000000AD7A33C6D
:104310000AD7A33C9C430008992B0008000000002A
:10432000000000000001000000000000000000008C
:10433000A843000805280008FDFF00000000000059
:104340000001000000000000000000000006101640
:104350000006101600000000000000000102030427
:104360000607080900000000010203040000803F66
:104370000030983F0000B53F0040D73F00000000EC
:10438000320A7E397F661E395B991F390000803FF3
:10439000F037983FF304B53FFD44D73F646566614D
:1043A000756C745461736B005049445F436F6E7455
:1043B000726F6C00D4430008000000201801000058
:1043C00034350008EC44000818010020A04A000021
:1043D000443500080000000000000000000000005C
:1043E00000000000000000000000000000000000CD
:1043F00000000000000000000000000000000000BD
:104400000000803F0000803F0000803F000000006F
:10441000000000000000000000000000000000009C
:10442000000000000000000000000000010000008B
:1044300010000000000000000024F4000000000054
:10444000000000000000000000000000000000006C
:10445000000000000000000000000000000000005C
:10446000000000000000000000000000000000004C
:10447000000000000000000000000000000000003C
:10448000000000000000000000000000000000002C
:10449000000000000000000000000000AAAAAAAA74
:1044A000000000000000000000000000000000000C
:1044B00000000000000000000000000000000000FC
:1044C00000000000000000000000000000000000EC
:1044D00000000000000000000000000000000000DC
:0C44E000000000000000000000000000D0
:04000005080001AD41
:00000001FF
