:020000040800F2
:10000000184C002085020008932D0008B52A00082E
:10001000912D000891090008CD3A00080000000069
:10002000000000000000000000000000C501000802
:100030007D0B00080000000021020008D5310008F7
:100040009F0200089F0200089F0200089F0200080C
:100050009F0200089F0200089F0200089F020008FC
:100060009F0200089F0200089F0200089F020008EC
:100070009D0A00089F020008A90A00089F020008C4
:100080009F020008B50A00089F020008A1090008A5
:10009000950900089F0200089F0200089F020008BF
:1000A0009F0200089F0200089F0200089F020008AC
:1000B0009F0200089F0200089F0200089F0200089C
:1000C0009F0200089F0200089F0200089F0200088C
:1000D0009F0200089F020008453A00089F0200089E
:1000E0009F0200089F0200089F0200089F0200086C
:1000F0009F0200089F0200089F0200089F0200085C
:100100009F0200089F0200089F0200089F0200084B
:100110009F0200089F020008B13200089F020008F9
:100120009F020008C10A00089F0200089F02000801
:100130009F0200089F0200089F020008B9090008FA
:10014000AD0900089F0200089F0200089F020008F6
:100150009F020008CD0A00089F0200089F020008C5
:100160009F0200089F0200089F0200089F020008EB
:100170009F0200089F0200089F0200080000000084
:100180009F0200089F0200089F0200089F020008CB
:100190009F0200089F0200089F0200089F020008BB
:1001A00000000000000000009F020008DFF810D0EF
:1001B00000F0DCFB00480047F94B0008AFF300807B
:1001C000184C00202C4B19680868B0E8F04F80F3F9
:1001D0000988BFF36F8F4FF0000080F311887047DC
:1001E0000000000008480068006880F308884FF0AD
:1001F000000080F3148862B661B6BFF34F8FBFF37F
:100200006F8F00DF00BF00BF08ED00E0DFF80C00DB
:10021000016841F470010160704700BF88ED00E0A3
:10022000EFF30980BFF36F8F134B1A681EF0100FA6
:1002300008BF20ED108A20E9F04F106009B44FF09C
:10024000500080F31188BFF34F8FBFF36F8F05F01D
:1002500095F94FF0000080F3118809BC196808680F
:10026000B0E8F04F1EF0100F08BFB0EC108A80F31A
:100270000988BFF36F8F704768000020EFF3058097
:10028000704700000648804706480047FEE7FEE743
:10029000FEE7FEE7FEE7FEE7FEE7FEE7FEE7FEE736
:1002A000A1320008AD0100082DE9F05F05460020ED
:1002B00092469B4688460646814640241BE02846D7
:1002C00041464746224600F01BFA53465A46C01A9A
:1002D000914110D311461846224600F002FA2D1A19
:1002E00067EB01084F4622460120002100F0F9F992
:1002F00017EB00094E41201EA4F10104DFDC484643
:1003000031462A464346BDE8F09F40EA01039B0779
:1003100003D009E008C9121F08C0042AFAD203E07A
:1003200011F8013B00F8013B521EF9D27047D2B2DE
:1003300001E000F8012B491EFBD270470022F6E7CE
:1003400010B513460A4604461946FFF7F0FF20464B
:1003500010BD2DE9FE4F804681EA0300C00F0C4618
:10036000009021F0004123F00045B8EB0200A941C4
:1003700005D24046214690461C460B46024623F0D5
:100380000040104347D0270DC7F30A00C3F30A51BA
:100390000290401A019040286BDAC3F3130040F436
:1003A000801B0098924620B10023D2EB030A63EB36
:1003B0000B0B01985946C0F14002504600F091F9EC
:1003C00006460D4650465946019A00F0A9F910EB31
:1003D00008006141002487EA115284EAE7731A4356
:1003E00040D0009A62B3019A012A4FEA075215DC05
:1003F000001B61EB02014FF0004202EA0752CDE917
:100400000042001C41F5801132462B4600F0E0F915
:1004100003B0BDE8F08F40462146F9E7001B61EBD1
:100420000201001C41F5801300185B412018A2F561
:10043000001747EB030140EAD570B6196D4111E092
:100440006D084FEA360645EAC0754FEA0752001BB1
:1004500061EB0201001C41F5801149084FEA3000B0
:100460000019514132462B4603B0BDE8F04F00F071
:10047000A0B90098012240000023D0EB020263EBF8
:10048000E073009821464FEAE074B8EB000061EB9E
:100490000401E9E783F000435BE781F0004158E79E
:1004A0002DE9FE4F81EA030404F0004421F00041ED
:1004B00000944FF0000B23F0004350EA01045ED09B
:1004C00052EA03045BD0C3F30A54C1F30A552C4427
:1004D000A4F2F3340194A0FB0254C1F3130141F4DC
:1004E0008011C3F3130343F4801301FB024400FBA8
:1004F000034E840A970A44EA815447EA8357A4FBCF
:10050000076802958D0A05FB07854FEA932C04FBCB
:100510000C542705029D4FEA065847EA1637B5EBFB
:1005200008056EEB070C870E920E47EA811742EA28
:100530008312A7FB0201B6EB0B0164EB00042B0D49
:1005400043EA0C335E1844EB1C50DA465146E7FB95
:100550000201C5F313044FEA0B3343EA14534FEA85
:100560000432019C43EA0603A4F10C040294009CAB
:10057000CDE900B400F02CF903B0BDE8F08F002005
:100580000146F9E72DE9F04D81EA030404F0004B40
:1005900021F0004514464FF0000A23F0004150EAD4
:1005A000050220D054EA01021DD0C5F30A570246C5
:1005B000C5F31303C1F31300C1F30A5640F48015C9
:1005C00043F48013A7EB0608101BD64608F2FD384B
:1005D00073EB050002D308F1010801E092185B41BA
:1005E000B8F1000F03DA00200146BDE8F08D0020CD
:1005F0004FF48011064684460EE0171B73EB050787
:1006000005D3121B63EB050306434CEA010C4908B2
:100610004FEA300092185B4150EA0107EDD152EAEF
:10062000030012D082EA040083EA0501084305D0E2
:10063000101BAB4106D20122002306E000224FF03E
:10064000004302E06FF0010253101AEB06004CEB7E
:10065000085110EB0A0041EB0B01BDE8F04D00F032
:10066000A8B80EB5C10F80EAE0700844CA0700219F
:1006700040F233438DE80E000A460B4600F0A8F81E
:1006800003B000BD00F0004230F000400AD0C10DC0
:1006900001F56071C0F3160042EA0151C20840073B
:1006A0001143704700200146704701F0004330B409
:1006B00021F0004150EA010206D00A0DA2F5607255
:1006C000C1F31301002A02DC30BC00207047440F44
:1006D00044EAC104C100E01830BC00EBC25000F095
:1006E00031B8202A04DB203A00FA02F100207047DA
:1006F0009140C2F1200320FA03F319439040704760
:10070000202A04DB203A21FA02F00021704721FA66
:1007100002F3D040C2F120029140084319467047CD
:10072000202A06DBCB17203A41FA02F043EAE073B5
:1007300006E041FA02F3D040C2F1200291400843A2
:10074000194670470029A8BF7047401C490008BFE0
:1007500020F00100704710B4B0FA80FC00FA0CF0F1
:1007600050EA010404BF10BC704749B1CCF1200429
:1007700021FA04F411FA0CF118BF012121430843B6
:10078000A3EB0C01CB1D4FEA00614FEA102042BFE2
:10079000002010BC704700EBC35010440029A4BFD8
:1007A00010BC7047401C490008BF20F0010010BC7D
:1007B000704710B5141E73F1000408DA401C41F1B3
:1007C000000192185B411A4301D120F0010010BDD5
:1007D0002DE9F04D92469B4611B1B1FA81F202E04B
:1007E000B0FA80F220329046FFF77BFF04460F46B6
:1007F00040EA0A0041EA0B0153465A46084313D027
:10080000114653EA010019D0C8F140025046FFF7E3
:1008100077FF05460E46504659464246FFF761FFB0
:10082000084305D0012004E020463946BDE8F08D9C
:100830000020054346EAE0762C4337430A986305D7
:10084000E40AA0EB08000022FD0A44EA47540A30FB
:1008500002D500200146E9E7010510196941DDE9EB
:10086000084500196941BDE8F04DA2E770B521F0D7
:10087000004303430CD0C1F30A550024D5EB040513
:1008800064EB0403D617AD1AB34102DB0020014626
:1008900070BD201841EB025170BD2DE9F04D0023D1
:1008A0001A461B1A8A4103DB00200146BDE8F08D81
:1008B000C1F30A52C1F3130141F480154FF0000B4C
:1008C000D10702D100186D41521E0027044640F2A4
:1008D000FF11384601EB620A3E4680460246002080
:1008E0004FF48011FFF70CFFC2197141BB1846EBA2
:1008F0000100B4EB030C75EB000C04D3E41A65EBB8
:10090000000517460E46241908F101006D41804686
:100910003428E3DDF91946EB0600091BA84103D290
:100920004FF0FF32134601E0002213461BEB070095
:1009300046EB0A51BDE8F04DFFF73BBF30B5041E52
:1009400071F1000404DB4FF00044404264EB01010C
:10095000141E73F1000405DB1C464FF000435242A5
:1009600063EB0403994208BF904230BD064C074D2B
:1009700006E0E06840F0010394E80700984710346F
:10098000AC42F6D3FFF716FC205B0008405B000882
:10099000FEE70000014800F078BA000038050020AA
:1009A000014800F072BA000038050020014800F04C
:1009B0006CBA000060050020014800F066BA000033
:1009C0006005002038B50E4C4FF4007525600025F9
:1009D000A560E560082525610A4C050A2570607050
:1009E000080AA070E170100A20716271180AA071E3
:1009F000E3716B4622460249034800F0DCF838BD3B
:100A00007C460020E10000203805002010B50024BD
:100A100044EA036343EA02422DED048B42EA0121DA
:100A2000014301D5641E00E00124C1F3C750C1F3A6
:100A3000160100EE101A9FED161A7F38B8EE400A24
:100A4000C0EE010AB7EE000A30EE808AFFF709FE19
:100A500041EC110B9FED0F0B03F06AF9B0EE409AD9
:100A600000EE104AF0EE609AB8EEC00A20EE080AD6
:100A700010EE100AFFF706FE53EC192BFFF710FDDE
:100A8000FFF713FEBDEC048B00EE100A10BD000052
:100A9000FEFFFF4A0000000000000040014800F097
:100AA000F1BC000068070020014800F0EBBC00002A
:100AB00008070020014800F0E5BC0000C80700203E
:100AC000014800F0DFBC000088080020014800F069
:100AD000D9BC00002808002001681823CAB2103AC7
:100AE000B2FBF3F2054B6FF30901032A9B5CC3656C
:100AF00000D9091D8165084670470000245A000886
:100B000010B5014600208B698A6A4FF0C07453B15A
:100B1000B3F5005F15D072B1012A0CD0022A0AD0B9
:100B2000032A09D104E01AB1012A06D0022A03D10E
:100B3000C96AC90100D5012010BDC96AA142FAD015
:100B400010BD002AF7D0012AF2D0022AF3D0032ADE
:100B5000F3D010BD30B50468256825F480252560E4
:100B6000046863608368402B036803D09960006861
:100B7000C26030BD9A600068C16030BD704772B617
:100B8000FEE7B5EEC00AF1EE10FA01DAB1EE400A66
:100B9000704790F82020012A07D0022A05D0416A28
:100BA00041F48021416201207047006842690A4394
:100BB000426100207047F0B590F820500468A468A6
:100BC000012D05D0022D03D0416A41F4802157E068
:100BD00014F0406F01D1E5004FD5C4F30164012545
:100BE000A5401D608D684FF4C0739DB1CE6835433C
:100BF0004E6845EAC605066803EB0417F5514FF445
:100C0000C275076805EB04150E697E51097D01293F
:100C100005D009E00E88CD6845EA4655EBE7016846
:100C20004E5946F480764E511179D579567941EA7C
:100C3000056195792D0445EA062529434FF4C676CA
:100C4000056806EB0416A9511178D57841EA0561CB
:100C5000957852782D0445EA022211434FF4C47569
:100C6000026805EB04155151006803EB041142586A
:100C700042F0010242500020F0BD416A41F40011EF
:100C800041620120F0BD000010B590F82020012A3B
:100C900007D0022A05D0416A41F480214162012037
:100CA00010BD3B48D0F8002242F00102C0F80022FB
:100CB000D0F8002222F47C52C0F80022D0F80022A2
:100CC0004B6A42EA0322C0F800220A7D02F01F03A9
:100CD00001229A40D0F81C329343C0F81C32CB69F1
:100CE000B3B9D0F80C329343C0F80C328C894B68FE
:100CF00064F31F434C6900EBC404C4F840320C8910
:100D00000B6864F31F434C6900EBC404C4F844321D
:100D1000CB69012B16D1D0F80C321343C0F80C323A
:100D20000C884B6864F31F434C6900EBC404C4F89F
:100D300040320C89CB6864F31F434C6900EBC40458
:100D4000C4F844328B69002BD0F804320ED0134320
:100D5000C0F804320B69002BD0F8143208D01343CA
:100D6000C0F81432096A012904D008E09343EFE780
:100D70009343F5E7D0F81C121143C0F81C12D0F8C9
:100D8000001221F00101C0F80012002010BD000087
:100D900000640040704770B590F82040012C05D0E9
:100DA000022C03D0416A41F4802128E0046809B391
:100DB0002469A40720D04FF4D874056804EB01140B
:100DC0002D5915F00405956005682D591AD0ED08C8
:100DD000556005682C5904F00204D4604FF4DA74AD
:100DE000056804EB01142E5906F00F06082E0CD3EB
:100DF00008250DE0E468DCE7416A41F40011416236
:100E0000012070BD6D0D1560E3E72D5905F00F054C
:100E1000156105682D59C5F30725956105682C599D
:100E2000240C54614FF4DC72046802EB0112A458E4
:100E30001C700468A458240A5C700468A458240C2C
:100E40009C700468A258120EDA704FF4DE720468C7
:100E500002EB0112A4581C710468A458240A5C71A6
:100E60000468A458240C9C710468A258120EDA710C
:100E7000006829B1016941F020010161002070BDC5
:100E8000C16841F02001C160F8E72DE9F05F054637
:100E9000006800244669D0F804908768D0F80CB048
:100EA000D0F810A0D0F81880F10748D0F90714D076
:100EB00001218160B80703D5284600F082FA0CE0D2
:100EC000780702D54FF4006407E0380702D54FF4E5
:100ED000805402E0284600F073FAF80516D5296818
:100EE0004FF480708860B80503D5284600F06BFA8F
:100EF0000CE0780502D544F4005407E0380502D52B
:100F000044F4804402E0284600F05CFAF80316D569
:100F100029684FF480308860B80303D5284600F074
:100F200054FA0CE0780302D544F4004407E0380397
:100F300002D544F4803402E0284600F045FA300738
:100F400007D55FEACB6004D52968102044F400740B
:100F5000C86070074FF0080707D55FEA0B7004D52B
:100F60002868C760284600F0A9F9B00706D52868A8
:100F7000C068800702D0284600F0A2F9700607D5A5
:100F80005FEACA6004D52968102044F480640861CF
:100F9000B00607D55FEA0A7004D5286807612846BD
:100FA00000F0DEF9F00606D528680069800702D057
:100FB000284600F0D6F9B00308D55FEAC96005D528
:100FC000296810204860284600F0CCF9F00307D5C6
:100FD0005FEA097004D528684760284600F0F6F9F2
:100FE000300446D55FEA497040D5F00504D55FEA84
:100FF000C87001D044F00104B00504D55FEA8870E0
:1010000001D544F00204700504D55FEA487001D5AB
:1010100044F00404300529D518F0700F26D008F0EC
:101020007000402815D006DC102809D020280AD0EE
:10103000302816D10AE050280ED0602811D10EE0D9
:1010400044F008040DE044F010040AE044F02004E9
:1010500007E044F0400404E044F0800401E044F47C
:1010600080742868816921F07001816129680420F9
:101070004860002C05D0686A204368622846FFF764
:1010800089FEBDE8F09F70B5040003D094F82000FD
:1010900010B104E0012070BD204600F081F8206806
:1010A000016841F00101016000F07EFC0546052663
:1010B00004E000F079FC401B0A2811D82068406841
:1010C000C007F6D02068016821F00201016000F03D
:1010D0006BFC05460BE000F067FC401B0A2806D9B4
:1010E000606A40F40030606284F82060D2E72068D3
:1010F00040688007EFD4207E0128206801683DD039
:1011000021F080010160607E01282068016838D0EC
:1011100021F040010160A07E01282068016833D0E1
:1011200021F020010160E07E0128206801682ED0B6
:1011300041F010010160207F01282068016829D05A
:1011400021F008010160607F01282068016824D037
:1011500021F004010160D4E902010843D4E904123A
:10116000114308436168491E08432168C861002093
:101170006062012084F82000002070BD41F08001F1
:10118000C0E741F04001C5E741F02001CAE721F086
:101190001001CFE741F00801D4E741F00401D9E79D
:1011A000F0B587B0044614216846FFF7C7F83E4BF8
:1011B0003E48DFF8F0E01968D4F800C03B4A032548
:1011C0000226092710300024491CF4452AD1196051
:1011D000012907D1016841F000710160006800F049
:1011E00000700590106840F0080010601068CDE9AC
:1011F000005600F00800CDE9047069462C48CDE99E
:10120000024500F0B1FA00220521132000F06AFC2B
:10121000132000F059FC00220521142000F062FC8C
:1012200014203BE0DFF88CE0F44539D1D0F800C061
:101230004CF0806CC0F800C0D0F800C001290CF060
:10124000806CCDF814C0196007D1016841F00071BD
:101250000160006800F000700590106840F0020026
:101260001060106802AB00F0020005904FF440508F
:10127000CDE9000683E8B00069460F4800F074FA33
:10128000002205213F2000F02DFC3F2000F01CFC37
:1012900000220521402000F025FC402000F014FC35
:1012A00007B0F0BD0064004040000020303802402C
:1012B000000C02400068004000040240704700003B
:1012C00000B58BB001AB03AA0021FFF764FD0399C1
:1012D00040F203232048A1F2032299421FD006DCEA
:1012E000A1F50072013A1AD0012A16D117E0012A9D
:1012F00015D0A2F54072FE3A0FD1BDF8041049BADC
:101300004180BDF8061049BA8180BDF8081049BA7D
:10131000C180BDF80A1049BA01810BB000BD491E59
:10132000C9B201700D4A01EB810102EB410032F8B4
:1013300011300381BDF804305BBA22F81130BDF8DA
:10134000061049BA4180BDF8081049BA81809DF85D
:101350000A108171E1E70000D0000020544600200F
:10136000704770477047000070B5044690F8200041
:10137000012804D0606A40F40020606218E0022076
:1013800084F820002068016821F00101016000F06C
:101390000BFB05460EE000BF00F006FB401B0A28D1
:1013A00008D9606A40F400306062052084F82000AB
:1013B000012070BD20684068C007EDD1606270BD3B
:1013C00070477047704770477047704770472DE906
:1013D000F0410446876D00F0E7FA064694F83500C0
:1013E0000025022806D08020606584F83450012052
:1013F000BDE8F0812068016821F0160101602068D5
:10140000416921F080014161206C08B9A06C20B1D4
:101410002068016821F0080101602068016821F05E
:10142000010101600CE000F0BFFA801B052807D91C
:1014300020206065032084F8350084F83450D7E715
:1014400020680068C007EED194F85C103F20884007
:10145000B860012084F8350084F834500020C7E7D4
:1014600090F83510022903D0802141650120704792
:10147000052180F835100068016821F00101016044
:10148000002070472DE9F84304464FF00009CDF8DD
:10149000009063484FF41651A56D0068B0FBF1F75A
:1014A0002E6894F85C10082000FA01F131420FD048
:1014B00021680A6852070BD50A6822F004020A6004
:1014C00094F85C108840A860606D40F00100606591
:1014D00094F85C104FF0010808FA01F0304208D08F
:1014E00021684969090604D5A860606D40F00200D2
:1014F000606594F85C1004208840304208D0216870
:101500000968890704D5A860606D40F00400606533
:1015100094F85C1010208840304218D02168096887
:10152000090714D5A86020680168490304D500683C
:10153000000308D5A16C07E00168C90503D4016860
:1015400021F008010160216C09B12046884794F818
:101550005C1020208840304231D021680968C906DB
:101560002DD5A86094F8350005282068016806D0BC
:10157000490347D5006800031DD4616C1CE021F0CD
:10158000160101602068416921F080014161206CF1
:1015900008B9A06C20B12068016821F00801016041
:1015A00094F85C103F208840A86084F8358084F867
:1015B0003490216D1FE0E16B09B120468847606DD2
:1015C00000282BD0606DC00714D0052084F83500AA
:1015D0002068016821F0010101600098401C009022
:1015E000B84203D820680068C007F6D184F8358077
:1015F00084F83490E16C002910D001B02046BDE899
:10160000F04308470168C905D5D4016821F01001ED
:10161000016084F8358084F83490CCE7BDE8F88325
:10162000640000202DE9F041044600F0BDF90646B3
:101630005CB1022084F83500002584F8345020681D
:10164000016821F0010101600DE00120BDE8F08199
:1016500000F0AAF9801B052805D920206065032029
:1016600084F83500F2E720680068C007F0D12268EE
:10167000116820480140D4E901031843D4E9033636
:101680003343184363691843A3691843E369184354
:10169000236A18430843616A042903D1D4E90B1370
:1016A00019430843106020684069666A20F007010A
:1016B00030460E43012704280CD1A06A0643E06A95
:1016C00040B12046FFF71CFA20B14020606584F845
:1016D0003570BAE7206846612046FFF7FDF994F8B7
:1016E0005C203F2191408160656584F83570002061
:1016F000ACE700003F8010F02DE9F0410446866D14
:1017000090F83400002501280DD0012084F8340021
:1017100094F835700020012F07D084F8340002259A
:101720002846BDE8F0810220FBE7022784F83570E7
:1017300060652046FFF70EFA94F85C103F20884061
:10174000B0602068016841F016010160206C20B192
:101750002068016841F0080101602068016841F0DB
:1017600001010160DCE700002DE9F84FDFF8F8A186
:101770000022012403254FF00F090AF1040BAAF1FE
:10178000040E00BF0B6804FA02F63340B34270D176
:101790000F7907F00307012F01D0022F16D18768B8
:1017A0004FEA420805FA08FC27EA0C07D1F80CC0FA
:1017B0000CFA08FC4CEA070CC0F808C04768B743AD
:1017C0000E79C6F3001696403E4346600E79F64306
:1017D000B6070AD0C7684FEA420C05FA0CF6B743C1
:1017E0008E6806FA0CF63E43C6600E7906F00306D4
:1017F000022E10D1D60800EB8608D8F820605707D3
:101800004FEAD76C09FA0CF7BE430F6907FA0CF7D9
:101810003743C8F8207006684FEA420C05FA0CF707
:10182000BE430F7907F0030707FA0CF73743076049
:101830004E6816F4403F1CD04C4E376847F4804742
:101840003760366822F0030706F480460096484E5B
:1018500007EB060CDCF8086897073F0F09FA07F852
:1018600026EA0806DFF80C81404503D14FF0000856
:1018700041E072E0DFF80081404502D14FF00108FD
:1018800039E0DFF8F880404502D14FF0020832E03D
:10189000DFF8EC80404502D14FF003082BE0DFF881
:1018A000E480404502D14FF0040824E0DFF8D880FE
:1018B000404502D14FF005081DE0DFF8D0804045DB
:1018C00002D14FF0060816E0DFF8C480404502D18F
:1018D0004FF007080FE0DFF8BC80404502D14FF021
:1018E000080808E0DFF8B080404502D14FF0090851
:1018F00001E04FF00A0808FA07F848EA0608CCF8B1
:101900000888DAF800605746D1F804C09E435FEAC1
:10191000CC2C00D51E433E60DBF800605F46D1F85A
:1019200004C09E435FEA8C2C00D51E433E60DEF867
:1019300000607746D1F804C09E435FEA8C3C00D536
:101940001E433E60084F083F3E68D1F804C09E43E6
:101950005FEACC3C00D51E433E60521C102AFFF4C7
:1019600011AFBDE8F88F0000083C01404438024048
:101970000030014000000240000402400008024024
:10198000000C024000100240001402400018024007
:10199000001C024000200240002402400AB1816184
:1019A00070470904FBE700000148806870470000A9
:1019B0005800002002488168027811448160704715
:1019C000580000200B4810B5016841F40071016017
:1019D000016841F480610160016841F48071016037
:1019E000032000F09FF80F2000F006F800F050F8F8
:1019F000002010BD003C024030B505461F4887B0AE
:101A00000024016841F010010160006806A900F09F
:101A10001000009001A800F069F90498A8B100F046
:101A200085F940001649174AB0FBF1F11648491EE6
:101A3000026040F2E732C0E90324C0E90114846186
:101A400000F07EFB040003D015E000F06FF9E9E739
:101A50000D4800F0A3FB04000DD1362000F034F84F
:101A6000102D07D200222946362000F03BF8074807
:101A7000056000E0012407B0204630BD4038024038
:101A800040420F00001000401C0900205C000020B4
:101A90000C4882B0016841F480410160006800F4A4
:101AA000804000900748001F016841F080510160AC
:101AB0000068002200F0805000900F21901E02B0BC
:101AC00000F010B844380240002809DB00F01F0283
:101AD000012191404009800000F1E020C0F8001190
:101AE00070470000F0B40E4B1B680C46C3F3022392
:101AF000C3F10705042D00D90425191D072901D2BA
:101B0000002300E0DB1E012606FA05F1491E2140F4
:101B100099409E40761E16403143F0BC02F002B858
:101B20000CED00E0064900F0070208684FF6FF03DD
:101B3000184040EA0220034A104308607047000042
:101B40000CED00E00000FA052DE9F84317480168A4
:101B500041F0805101600068154F00F0805001266F
:101B600000903E64FFF720FF05464FF47A78114C51
:101B700005E000BFFFF718FF401B40450DD8606827
:101B8000C003F7D57E64FFF70FFF0546464607E022
:101B9000FFF70AFF401BB04202D90320BDE8F883DB
:101BA00060688003F4D50020F8E700004038024068
:101BB00000000E42007000402DE9F0470E4605007F
:101BC00065D0DFF81481D8F80000F7B200F00F00FC
:101BD000B04207D288F80070D8F8000000F00F007B
:101BE000B04254D128683D4C810712D5400703D537
:101BF000206840F4E05020602878000703D5206872
:101C000040F4604020602068A96820F0F00008439C
:101C100020602878C0072DD030496868083901282D
:101C200012D0022813D0032811D00968890700298F
:101C30002DDA216821F0030101432160FFF7B4FE92
:101C4000814641F2883A0EE009688903EFE70968A6
:101C50008901ECE7FFF7A8FEA0EB0901514502D985
:101C60000320BDE8F0872068696800F00C00B0EB45
:101C7000810FEFD1D8F80010404601F00F01B142BA
:101C800007D90770006800F00F00B04201D00120B2
:101C9000E7E72878400705D52068E96820F4E05098
:101CA000084320602878000706D52068296920F4B9
:101CB000604040EAC100206000F058F82168084AFE
:101CC000C1F30311515CC84006490860064800682A
:101CD000FFF792FE0020C4E7003C024008380240B3
:101CE0002C5A0008640000205C0000200F220260D3
:101CF0000C4A136803F003034360136803F0F00316
:101D00008360136803F4E053C36012684FF4E05338
:101D100003EAD20202610448006800F00F00086084
:101D20007047000008380240003C02400448054962
:101D300000680968044AC1F38221515CC8407047B9
:101D400064000020083802403C5A00080448054955
:101D500000680968044AC1F34231515CC8407047C9
:101D600064000020083802403C5A0008154810B5AD
:101D7000006810F00C02144813D01449042A0FD044
:101D8000082A0ED10F4C241F2268236802F03F025C
:101D90005B0207D52068C0F38810A0FB010106E0B4
:101DA000084610BD2168C1F38811A1FB0001002382
:101DB000FEF77AFA2168C1F30141491C4900B0FBE2
:101DC000F1F010BD083802400024F400001BB700F9
:101DD0002DE9F84F04006ED02078DFF84C93C0074F
:101DE000A9F104054AD009F104000168C1F3810199
:101DF000012908D00068C0F3810002280AD1D9F86F
:101E00000000400206D52868800337D560680028A6
:101E1000E1D033E06068B0F5803F10D0B0F5A02F7E
:101E2000286810D020F480302860286820F48020B2
:101E300028606068A8B1FFF7B7FD06460DE0286886
:101E400040F48030F4E740F480202860F7E700BFDA
:101E5000FFF7AAFD801B642873D828688003F7D594
:101E60000CE0FFF7A1FD064605E000BFFFF79CFD73
:101E7000801B6428F0D828688003F7D42078DFF826
:101E8000AC8280074FF0000A3ED5A748001D0168CC
:101E900011F00C0F08D00068C0F3810002280BD1AC
:101EA000D9F80000400207D42868800716D5E068FA
:101EB000012800D112E033E1E068B8B10120C8F890
:101EC0000000FFF771FD064605E000BFFFF76CFD5F
:101ED000801B0228C0D828688007F7D528682169A8
:101EE00020F0F80040EAC10028600DE0C8F800A02A
:101EF000FFF75AFD064604E0FFF756FD801B022857
:101F00001FD828688007F7D42078000722D5864F8D
:101F100087486169703771B101210160FFF744FDA5
:101F2000064604E0FFF740FD801B022809D8386808
:101F30008007F7D50EE0C0F800A0FFF735FD064694
:101F400005E082E0FFF730FD801B02287DD838686D
:101F50008007F7D42078400768D5DFF8CCB1002798
:101F60000BF13C0BDBF80000C0000BD4DBF80010D9
:101F700041F08051CBF80010DBF80000012700F0A1
:101F8000805000906B4E3068C00510D4306840F42B
:101F900080703060FFF708FD009005E0FFF704FD5A
:101FA0000099401A022850D83068C005F6D55E4E18
:101FB000A0686C3601280FD00528306810D020F0BA
:101FC00001003060306820F004003060A068B8B1D3
:101FD000FFF7EAFC00900FE0306840F00100F4E702
:101FE00040F004003060F7E7FFF7DEFC0099411A8B
:101FF00041F28830814266D830688007F4D50EE01F
:10200000FFF7D2FC009007E0FFF7CEFC0099411AE1
:1020100041F28830814256D830688007F4D42FB11D
:10202000DBF8001021F08051CBF80010A069C8B394
:102030003D49091D0968C1F3810102294AD00228DE
:10204000504607D0C8F8600000E03CE0FFF7ACFC69
:1020500004463BE04746C8F86000FFF7A5FC06468B
:1020600005E000BFFFF7A0FC801B02282BD82868E2
:102070008001F7D4D4E907010843A16A2E4A490830
:1020800002EB0141626A41EA8211084394F82C1084
:1020900040EA0161C9F8001001203866FFF784FCAE
:1020A000044606E03EE000BFFFF77EFC001B02286E
:1020B00009D828688001F7D534E000BFFFF774FC29
:1020C000001B022802D90320BDE8F88F2868800190
:1020D000F4D427E00128F7D0D9F80000E26900F431
:1020E000800191421CD1226A00F03F01914217D138
:1020F00047F6C071626A0140B1EB821F10D1A26A3B
:102100004FF0FF3300F4403103EB5202B1EB024FCA
:1021100006D194F82C1000F07060B0EB016F01D084
:102120000120D1E70020CFE70438024000004742F9
:10213000800E4742007000400000FFFF704770476C
:1021400010B5040003D094F83D0010B107E0012061
:1021500010BD002084F83C00204600F01EF802204C
:1021600084F83D00211D206801F0A8F8012084F8C2
:10217000460084F83E0084F83F0084F8400084F86C
:10218000410084F8420084F8430084F8440084F855
:10219000450084F83D00002010BD704790F83D10C8
:1021A000012901D001207047022180F83D1001680B
:1021B000CA6842F00102CA6000681149884214D01E
:1021C000B0F1804F11D00F4988420ED00E4988429D
:1021D0000BD00E49884208D00D49884205D00D49E0
:1021E000884202D00C49884204D1816801F007017D
:1021F000062903D0016841F0010101600020704709
:10220000000001400004004000080040000C0040B5
:1022100000040140004001400018004070472DE9D3
:10222000F04104460068C66805694FF00007A90739
:1022300013D5B10711D5F91E01610120207720685F
:1022400080698007204602D0FFF7E8FF04E000F035
:102250007EF8204600F07CF82777680716D57007CF
:1022600014D521686FF004000861022020772068EF
:10227000806910F4407F204602D0FFF7CFFF04E0D2
:1022800000F065F8204600F063F82777280715D599
:10229000300713D521686FF008000861042020770B
:1022A0002068C0698007204602D0FFF7B7FF04E02E
:1022B00000F04DF8204600F04BF82777E80616D5D9
:1022C000F00614D521686FF010000861082020770F
:1022D0002068C06910F4407F204602D0FFF79EFFBF
:1022E00004E000F034F8204600F032F82777E807E1
:1022F00008D0F00706D021686FF001000861204681
:1023000000F028F8280608D5300606D521686FF0B9
:10231000800008612046FFF711FF680608D57006A7
:1023200006D521686FF040000861204600F01CF8D7
:10233000A8060AD5B00608D521686FF0200008610C
:102340002046BDE8F041FFF7FABEBDE8F0817047D6
:102350007047000000680349884201D1FFF72ABB9B
:102360007047000000100040704770477047000041
:10237000F8B5016804460868CA684B6910F00F0F89
:102380004FF0000559D003F0010602F4907737436F
:1023900065D0C10705D0D10503D5616C41F00101BD
:1023A0006164410705D5D90703D0616C41F0020192
:1023B0006164810705D5D90703D0616C41F0040140
:1023C0006164010707D502F02001314303D0616C3D
:1023D00041F008016164616C00293AD0800604D59F
:1023E000900602D5204601F0A9F920684069616C89
:1023F000C0F38010090700D460B3204601F069F9EA
:1024000020684069400621D52068143050E8001F3C
:1024100021F0400140E80012002AF5D1E06BA8B19C
:102420006E490165E06BFFF71BF8002811D0E06BE7
:10243000016D01B0BDE8F040084783060FD5930653
:102440000DD52046BDE8F84001F078B92046FFF7E9
:102450008DFFF8BD2046FFF789FF6564F8BD266B48
:102460002023012E7DD1C6067BD5D60679D50868F6
:102470004868009048694FF00206400641D5E16B7C
:10248000086840680004000CE8D0A28D8242E5D9BB
:10249000E085C869B0F5807F2DD020680C3050E809
:1024A000001F21F4807140E80012002AF5D1206855
:1024B000143050E8001F21F0010140E80012002A0A
:1024C000F5D12068143050E8001F21F0400140E8A9
:1024D0000012002AF5D184F84230256320680C30C0
:1024E00050E8001F21F0100140E80012002AF5D149
:1024F000E06BFEF76CFF6663A08DE18D401A81B240
:102500002AE0A08DE18D401A81B2E08D0028A5D08F
:102510000029A3D022680C3252E8000F20F49070FA
:1025200042E80007002FF5D12068143050E8002F52
:1025300022F0010240E80027002FF5D184F8423054
:10254000256320680C3050E8002F22F0100240E88C
:102550000023002BF5D166632046FFF706FFF8BD88
:10256000FFE705062BD5150629D594F8410021284B
:10257000F5D1A068B0F5805F01D12069B0B1206AC3
:10258000411C2162216800784860E08C401E0004F4
:10259000000CE084E3D12068C16821F08001C160B3
:1025A0002068C16841F04001C160D8E7206A008816
:1025B000C0F308004860206A801C2062E5E74006FE
:1025C000CDD55006CBD5CA68204622F04002CA605D
:1025D00084F8413000F06DFAC1E70000D5350008FD
:1025E00070B5040004D094F84100002510B106E055
:1025F000012070BD84F84050204600F023F82420CC
:1026000084F841002068C16821F40051C16020466F
:1026100001F0F6F82068016921F490410161206819
:10262000416921F02A0141612068C16841F40051EB
:10263000C1606564202084F8410084F8420065632D
:10264000002070BD2DE9F04F87B004461421684684
:10265000FDF774FE9448DFF84C821038D4F800C0BF
:10266000914B02220321DFF844E2002506154FF0CA
:10267000080A4FF020674FF48079C44557D1D3F84A
:1026800000C0AB464CF0804CC3F800C01B6803F0A0
:1026900080430593036843F0100303600068CDE9AD
:1026A000025100F010000590C801CDE90002CDF8FC
:1026B00010A069467046FFF757F8DFF8F8A17C498B
:1026C0005046CAF80010C0E90175C0E90356CAF8BF
:1026D0001450C0E90659B846CAF820504F46CAF807
:1026E0002450FEF79FFF08B1FEF749FA714D70487C
:1026F000C4F83CA060353038CAF83840C5E9000855
:102700004020A860C5E903B6C5F814B0C5E906B70E
:10271000C5F820B02846C5F824B0FEF783FF08B1FD
:10272000FEF72DFAA563AC6307B0BDE8F08FDFF8C4
:102730008881C44538D1D3F800C04CF0004CC3F8B0
:1027400000C01B6803F000430593036843F01003C7
:102750000360006800F0100005908DE82600CDE9C8
:10276000031A69467046FEF7FFFFDFF848815049BB
:1027700008F1C00848314046C8F80010C0E90175AA
:10278000C0E90356C8F81450C0E90659C8F82050EB
:10279000C8F82450FEF746FF08B1FEF7F0F9C4F878
:1027A0003C80C8F83840BFE7DFF81081C44522D12B
:1027B0001C6844F400341C601B6803F40033059368
:1027C000036843F008030360006800F00800059008
:1027D00060208DE825000720CDE9031069463848C0
:1027E000FEF7C2FF002205212620FFF77BF92620F5
:1027F000FFF76AF998E7334B9C4595D12A4B1B1D8F
:10280000D3F800C04CF0200CC3F800C01B6803F0E4
:1028100020030593036843F0400303600068CDE99B
:10282000025100F0400005904FF48440CDE90002D1
:10283000CDF810A069462448FEF796FFDFF890B067
:1028400022495846B046E0E802174021A0E822019C
:10285000BA4640F814594E46C0E906590562584632
:10286000CBF82450FEF7DEFE08B1FEF788F9184FCA
:102870001648C4F838B060377838CBF8384038603C
:10288000C7E901A5C7E903587D61C7E906563D625E
:1028900038467D62FEF7C6FE08B1FEF770F9E763C1
:1028A000BC6341E70078004040380240001002401D
:1028B0005860024008070020007C004000440040AF
:1028C000000C02400014014000180240A0640240C5
:1028D0002808002090F84230202B01D002207047B9
:1028E00021B11AB10023036301F010B80120704731
:1028F00090F84230202B01D00220704721B11AB14C
:102900000023036301F04AB80120704770B53949CC
:10291000884203D120226039364810E035494831D9
:10292000884204D12022883901F1880007E031492A
:10293000D831884207D12022F83901F1F800BDE8EA
:102940007040FFF7C7BF2B499031884251D12A4CC4
:102950002A4A00202178257955546378FD2B01D12E
:10296000FC2D00D0C9B3491CC9B201232170012933
:1029700008D15678402E02D0412E02D002E0A3703A
:1029800005E0E370A678012E01D1402903D0E67856
:10299000012E0ED023E02070A0701948036092F839
:1029A0003F00FD281BD1402214491648FDF7ADFC1D
:1029B00015E0382913D12070E0701348036092F8B5
:1029C0003700FD2804D138220C491048FDF79DFC42
:1029D00040210A48FDF7B2FC01E0FFE72070657076
:1029E0000549BDE8704003480122091D9030FFF7FA
:1029F0007FBF70BDE805002048000020D4470020BC
:102A0000F0000020FC460020F40000203C4700209D
:102A100070472DE9F843044690F841009846164661
:102A20000D46202802D00220BDE8F88385B17EB192
:102A300000206064212084F84100FEF7B5FFA684E1
:102A40008146E684A0682027B0F5805F02D003E0CD
:102A50000120E9E7206910B12E4600250EE000268E
:102A60000CE08021204600F0B4FFA8B9C6B116F8EA
:102A7000010B21684860E08C401EE084E08C4B46EE
:102A80004FF00002CDF800800028EAD14FF040015D
:102A9000204600F09EFF40B184F841700320C3E758
:102AA00035F8020BC0F30800E3E784F8417000201A
:102AB000BAE77047FEE7000010B5084B0021425C02
:102AC000412A07D14218D478422C03D154781C7083
:102AD00092785A70491C1E29F1DB10BD5600002067
:102AE0000F4810B50D4901600521416000214FF4E8
:102AF00000328160C0E90312520142610176012275
:102B000042768176C17601774177FEF7BCFA0028DC
:102B100003D0BDE81040FEF732B810BD006400409D
:102B200038050020104810B50E49016005214160AC
:102B300000214FF04072C0E902124FF400320261EE
:102B4000520142610176012242768176C176017797
:102B50004177FEF798FA002803D0BDE81040FEF751
:102B60000EB810BD00680040600500201D4808B583
:102B7000016841F400110160016801F40011009145
:102B8000016841F4800101600068002200F48000C7
:102B9000009005210C20FEF7A5FF0C20FEF794FF06
:102BA000002205210E20FEF79DFF0E20FEF78CFF70
:102BB000002205211120FEF795FF1120FEF784FF6A
:102BC000002205213920FEF78DFF3920FEF77CFF1A
:102BD000002205214520FEF785FFBDE8084045207D
:102BE000FEF772BF3038024010B58EB01C220B4980
:102BF0006846FDF78AFB0021684602F0CAF8084CD7
:102C000006491C22A0611C3107A8FDF77EFB0021AC
:102C100007A802F0BEF8E0610EB010BDEC59000844
:102C20002000002010B586B014216846FDF786FB11
:102C30001D48016841F010010160016801F01001B8
:102C40000591016841F040010160016801F0400117
:102C50000591016841F008010160016801F0080177
:102C60000591016841F080010160016801F0800177
:102C70000591016841F00201016000680B4C00F011
:102C80000200059001223C212046FEF787FE3C20F1
:102C90000121CDE900010320CDE90210694620465B
:102CA000FEF762FD06B010BD30380240001C024045
:102CB0000C4810B50A4901604FF4E1314160002130
:102CC00081600C22C160C0E904128161C161FFF71B
:102CD00087FC002803D0BDE81040FDF750BF10BDB1
:102CE00000780040E80500200C4810B50A49016052
:102CF0004FF4E1314160002181600C22C160C0E9E4
:102D000004128161C161FFF76BFC002803D0BDE8AC
:102D10001040FDF734BF10BD007C0040300600209D
:102D20000C4810B50A4901604FF4E13141600021BF
:102D300081600C22C160C0E904128161C161FFF7AA
:102D40004FFC002803D0BDE81040FDF718BF10BDB0
:102D500000440040780600200C4810B50A49016084
:102D60004FF4E1314160002181600C22C160C0E973
:102D700004128161C161FFF733FC002803D0BDE874
:102D80001040FDF7FCBE10BD00140140C00600203D
:102D9000FEE7FEE72DED028B484E494D9FED498A37
:102DA000494C307801287CD14848FFF785FE2868D7
:102DB00030B101281BD0022814D0032817D018E006
:102DC0009FED430A434884ED010A40F2DC5100883C
:102DD00088420ED340F2E73303223FA13F48FFF77A
:102DE00018FE06E09FED3E0A84ED010A01E084ED45
:102DF000018A94EC030A01F087FF3A480068B0F9B1
:102E0000020000EE100A3848B8EEC00AD0ED000A01
:102E1000364800F07FF836480068B0F9020000EE4E
:102E2000100A3448B8EEC00AD0ED000A324800F06B
:102E300071F832480068B0F9020000EE100A30481C
:102E4000B8EEC00AD0ED000A2E4800F063F82E4814
:102E50000068B0F9020000EE100A2C48B8EEC00A73
:102E6000D0ED000A2A4800F055F8294890ED0D0AE7
:102E7000BDEEC00A10EE100A03B2224890ED0D0A12
:102E8000BDEEC00A10EE100A02B21B4890ED0D0A0A
:102E9000BDEEC00A10EE100A01B2144890ED0D0A02
:102EA00000E006E0BDEEC00A10EE100A00B2FDF729
:102EB00089FD022001F060FF73E70000EC000020B4
:102EC00044000020000096C320000020C805002018
:102ED0000000C843D2000020414E4200C00600203E
:102EE0000000000004000020140000201801002051
:102EF0000800002018000020740100200C000020B1
:102F00001C000020D0010020100000200000002044
:102F10002C02002010B504002DED028B9FED6C2AD1
:102F200016D0D4ED151AC4ED161A94ED141A84EDCA
:102F3000151AC4ED0B0A84ED0C0A30EEC00A84EDBC
:102F4000140A207848B1012841D002287CD077E0CB
:102F5000B0EE420ABDEC028B10BDD4ED010AF0EEDA
:102F6000C01A11EE900A60EE800A5A49C4ED0E0AAA
:102F7000884208DAD4ED0F1A94ED022A42EE001AC4
:102F8000C4ED0F1A01E084ED0F2A30EE410A94EDF2
:102F9000031A20EE011A84ED101AD4ED0F1A94EDE5
:102FA0000A0AF4EEC01AF1EE10FA09DCB1EE400A9A
:102FB000F4EEC01AF1EE10FA02D394ED0F0A01E01C
:102FC00084ED0F0A30EE800A30EE010A26E070EE42
:102FD000410A94ED012A60EE820AC4ED0E0A94EDD6
:102FE000022A22EE002A84ED0F2AD4ED122A70EE76
:102FF000820AC4ED132AD4ED112AC4ED122AF0EE90
:10300000002A01EE620A30EE210A84ED110A94EDE5
:10301000031A21EE000A84ED100A51E084ED0D0A36
:10302000D4ED090AB4EEE00AF1EE10FA06DCF1EE96
:10303000600AB4EEE00AF1EE10FA01D2C4ED0D0A16
:1030400094ED0D0A86E7FFE7FDF79BFDD4ED060A38
:1030500020EE200A00F076FDB7EE008A94ED051A06
:10306000C8EE000A38EE600AD4ED040A41EE000A08
:1030700094ED140A94ED151A30EE411A60EE810AAF
:10308000C4ED0E0AFDF77DFDD4ED070A20EE200AFF
:1030900000F058FDC8EE000A94ED080A94ED151AE8
:1030A00020EE800AD4ED140A70EE810AB6EE001A02
:1030B00060EE810A20EE200A84ED0F0AD4ED0E0A9C
:1030C00030EE800AD4ED0D0A30EE200AA6E70000AB
:1030D0000000000000007A4300283CD0002A3AD0CB
:1030E000017092ED001A80ED011A92ED011A80ED47
:1030F000021A92ED021A80ED031A92ED031A80ED86
:10310000041A92ED041A80ED051A92ED051A80ED6D
:10311000081A92ED061A80ED061A92ED071A80ED54
:10312000071A80ED090A9FED0C0AC0ED0A0A80ED2E
:10313000130A80ED120A80ED110A80ED0D0A80ED70
:10314000100A80ED0F0A80ED0E0A80ED160A80ED60
:10315000150A80ED140A704700000000174E184C45
:10316000002520784F2804D0532807D052280AD0B1
:103170000CE060784B2809D101201DE060785428CC
:1031800004D1022018E06078472814D06DB10025E2
:1031900020210C48FDF7D2F80020208040F2E733D0
:1031A000042209A10A48FFF734FC00F0F3F80A20D2
:1031B00001F0E2FDD5E703203060E8E7440000209D
:1031C00056000020C8050020414F4B42000000007F
:1031D000C006002010B5502080F31188BFF34F8F38
:1031E000BFF36F8F02F0E2FA18B104494FF080503C
:1031F0000860002080F3118810BD000004ED00E09D
:1032000030B593B030216846FDF798F814210CA82A
:10321000FDF794F820480025016841F080510160D5
:10322000006800F0805011901C48016841F4404152
:1032300001600068022400F44040119001200090D9
:10324000000401908001CDE9064006200890B420DA
:10325000CDE9090404200B906846FEF7B9FD08B1DA
:1032600072B6FEE7FEF770FC08B172B6FEE70CA975
:103270000F2081E831004FF4A0500F904FF48050A0
:10328000109005210CA8FEF797FC002801D072B61B
:10329000FEE713B030BD000040380240007000402F
:1032A0000248016841F470010160704788ED00E058
:1032B0000148FEF7B4BF00001C090020F0B5026809
:1032C000294C2A4D2A4E2B4F2B4B4FF0804CA042BD
:1032D00009D0604507D0A84205D0B04203D0B8421B
:1032E00001D0984204D122F0700E4A6842EA0E02E0
:1032F000A0421BD0604519D0A84217D0B04215D0CB
:10330000B84213D0984211D01C4DA8420ED01C4D8B
:10331000A8420BD01B4DA84208D01B4DA84205D097
:103320001A4DA84202D01A4DA84203D122F440758A
:10333000CA682A434D6922F080022A4302608A68E3
:10334000C2620A688262A04201D0984201D1096932
:103350000163012141610169C90703D0016921F0BD
:1033600001010161F0BD00000000014000040040C7
:1033700000080040000C00400004014000400140F3
:10338000004401400048014000180040001C00407B
:10339000002000402DE9F047874C2DED068B9FED76
:1033A000878BA0684FF00009012874D1854D68789B
:1033B000412871D1A87830286ED1AB7A6A7A297AFF
:1033C000E879FDF723FB05F16C08464688ED000A15
:1033D000AB7B6A7B297BE87AFDF718FB86ED010A57
:1033E000AB7C6A7C297CE87BFDF710FB86ED020A4A
:1033F000AB7D6A7D297DE87CFDF708FB86ED030A3D
:10340000AB7E6A7E297EE87DFDF700FB86ED040A2F
:10341000AB7F6A7F297FE87EFDF7F8FA86ED050A23
:1034200010EE105AF068FDF72DF953EC182BFDF74C
:1034300037F8FDF73AF900EE100A634E10EE100A65
:10344000624F84ED030A9FED629AB04202DD30EED6
:10345000490A05E010EE100AB84203D930EE090A15
:1034600084ED030AD8F81000FDF70CF9B0EE48AA75
:10347000F0EE68AA53EC1A2BFDF712F8FDF715F9D8
:1034800000EE100A10EE100A84ED040AB04204DDCA
:1034900030EE490A07E02CE029E010EE100AB842AD
:1034A00003D930EE090A84ED040A2846FDF7EAF84C
:1034B00053EC1A2BFCF7F4FFFDF7F7F800EE100AB7
:1034C00010EE100A84ED050AB04202DD30EE490A22
:1034D00005E010EE100AB84203D930EE090A84ED77
:1034E000050A207818B984ED090A01202070C4F873
:1034F00008906068012859D1324D403D68784028D5
:1035000052D1A87838284FD1AB7A6A7A297AE879EB
:10351000FDF77CFA05F1780686ED000AAB7B6A7B45
:10352000297BE87AFDF772FA86ED010AAB7C6A7CAA
:10353000297CE87BFDF76AFA86ED020AAB7D6A7D9D
:10354000297DE87CFDF762FA86ED030AAB7E6A7E90
:10355000297EE87DFDF75AFA86ED040AAB7F6A7F83
:10356000297FE87EFDF752FA86ED050A3068FDF7FF
:1035700089F853EC182BFCF793FFFDF796F8A06140
:103580007068FDF77FF853EC182BFCF789FFFDF707
:103590008CF8E061B068FDF775F853EC182BFCF778
:1035A0007FFFFDF782F82062C4F804900020BDEC94
:1035B000068BBDE8F0870000EC000020F8C1631A1C
:1035C000DCA54C403C47002000003443000034C3DD
:1035D0000000B44310B5806B0021C185C184FEF7A3
:1035E000C5FE10BD70B5846B2068406994F8411029
:1035F000C0F3C0100025212904D118B1E58420466C
:1036000000F08EF82068406994F84210C0F38010F2
:10361000222904D118B1E585204600F05AF8606CE3
:1036200040F0100060642046FEF7A0FE70BD10B5AB
:103630000146806B096809684FF00002C9052ED465
:10364000C28501680C3151E8003F23F4807341E8E2
:103650000034002CF5D10168143151E8003F23F00B
:10366000010341E80034002CF5D10168143151E820
:10367000003F23F0400341E80034002CF5D1202125
:1036800080F84210016B012909D101680C3151E821
:10369000003F23F0100341E80034002CF5D14263D1
:1036A000016B012902D0FFF731F910BD818DFEF7C2
:1036B0005CFE10BD10B5806B01214163016B0129D7
:1036C00002D0FFF7A5F910BD818D4908FEF74DFE28
:1036D00010BD01680C3151E8002F22F4907241E8CE
:1036E0000023002BF5D10168143151E8002F22F09E
:1036F000010241E80023002BF5D1016B012909D11A
:1037000001680C3151E8002F22F0100241E800233B
:10371000002BF5D1202180F8421000210163704771
:1037200001680C3151E8002F22F0C00241E800236B
:10373000002BF5D1202180F84110704708B590F892
:103740004210222901D0022008BD82684FF4805324
:103750009A4201D1016921B1816A9A421BD04AB1D2
:103760000AE00268816A5268C2F308020A80816A2C
:10377000891C08E0026972B10268526802F07F0297
:103780000A70816A491C8162C18D491E0904090CB5
:10379000C18503D01BE002685268F1E70168CA687E
:1037A00022F02002CA600168CA6822F48072CA60EE
:1037B00001684A6922F001024A61202180F8421022
:1037C00000214163026B012A03D0FFF79FF800201C
:1037D00008BD016301680C3151E8002F22F010028E
:1037E00041E80023002BF5D101680A68D20602D512
:1037F0000A6849680091818DFEF7B7FDE7E7000090
:1038000070B5044600680169E26821F44051114333
:1038100001612169A068E2690843616911430843B5
:103820002168CA6849F20C639A430243CA6020685F
:103830004169A26921F44071114341613149206815
:10384000884202D03049884202D1FEF77FFA01E077
:10385000FEF76CFAE2690023192164253226B2F5DD
:10386000004F626828D0A0FB0101930F9200FCF783
:103870001BFD0146B0FBF5F06FF01802504301EB61
:10388000800006EB0010B0FBF5F000F0F002B1FB99
:10389000F5F002EB0012B1FBF5F06FF0180358439E
:1038A00001EB800006EB0010B0FBF5F000F00F001C
:1038B00021681044886070BDA0FB010192185B4133
:1038C000FCF7F2FC0146B0FBF5F00201B1FBF5F0AC
:1038D0006FF01803584301EB800006EBC000B0FB0B
:1038E000F5F000F0F80002EB4002B1FBF5F05843B0
:1038F00001EB800006EBC000B0FBF5F000F0070024
:10390000D6E70000001001400014014038B5816284
:1039100004468285002013466064222284F84220F7
:10392000E56B1B4AEA63E56B1A4A2A64E56B1A4A9F
:10393000EA64E26B10650A462168E06B091DFDF739
:10394000DBFE2068016840680090206948B120686B
:103950000C3050E8001F41F4807140E80012002A4A
:10396000F5D12068143050E8001F41F0010140E813
:103970000012002AF5D12068143050E8001F41F0F1
:10398000400140E80012002AF5D1002038BD0000B7
:103990002F360008B5360008E535000881628285BB
:1039A000C28500214164222180F84210016921B1C1
:1039B0000168CA6842F48072CA6001684A6942F0CC
:1039C00001024A610068C16841F02001C160002025
:1039D00070472DE9F843984617460D460446089E61
:1039E00024E0701C22D0FDF7DFFFA0EB0800B042FE
:1039F0001AD8CEB12068C168490717D5802D15D0D7
:103A0000402D13D00168C94309070FD40168002570
:103A1000406800902046FFF75CFE0820606484F850
:103A200040500120BDE8F8830320FBE720680068D0
:103A300035EA000004D00020B842D2D00020F1E7DF
:103A40000120F9E70148FEF793BC0000780600204A
:103A50001B4910B50020C880088148818881194918
:103A6000202201F16000FEF735FF164920222031A7
:103A700001F18800FEF72EFF12492022403101F1AA
:103A8000F800FEF727FF0F4860300068C16841F07A
:103A90001001C1600B48A8300068C16841F01001F6
:103AA000C16009480068C16841F01001C160064862
:103AB00048380068C16841F01001C16010BD0000C5
:103AC0004800002088050020C0060020FEE703B45F
:103AD00001984100009850EAC12018BF04204A0D07
:103AE00018BF40F0010040F2FF72B2EB515F08BF17
:103AF00040F00200012808BF052002B070474100D5
:103B0000080218BF04200A0E18BF40F001004FF051
:103B10007F4232EA010108BF40F00200012808BFDD
:103B2000052070470907090E002804DB00F1E0209A
:103B300080F80014704700F00F0000F1E02080F8DA
:103B4000141D704710B510EE104A4FF01940684927
:103B5000002200EB44002DED028B884257D8DFEDA8
:103B6000650A14F0004F60EE200A14BFBEEE001A82
:103B7000B6EE001A71EE200AFDEEE00A10EE900A91
:103B800000EE900AF8EEE00A9FED5B1A00EEC10A23
:103B90009FED5A1A00EEC10ADFED590A9FED591A3E
:103BA00000EE201ADFED580A40EE010A9FED571A89
:103BB000574B00F0030100EE201A21EE000A7B446F
:103BC00003EB8103D3ED000A524B7B4403EB8103EB
:103BD00093ED001A504B41EE000A7B4403EB810148
:103BE000801091ED000A70EE800AEABB00EE100A28
:103BF000B8EEC01ADFED491A9FED490ABDEC028B01
:103C000001EE210ABCEEC00A20EE200A10BD4FF0E2
:103C1000FF40A0431BD04FF0CE40B0EB440F82BF1B
:103C2000B7EE000ABDEC028B10BD3E48B0EB440F6E
:103C300028BF012293D2022000F096FF14F0004F1B
:103C400015D0BDEC028BBDE8104000F075BF14F537
:103C5000000F02BF9FED340ABDEC028B10BDBDEC1E
:103C6000028BBDE8104000E007E000F059BFBDEC5A
:103C7000028BBDE8104000F057BF00EBD073591025
:103C80004FF07E5202EBC15100EE101AA0EB630020
:103C900002EBC05060EE200A00EE100A20EE208AEF
:103CA00018EE100A88B118EE100AB0F1FF4F15D0C7
:103CB00018EE100AFFF723FF042808BF00F03CFFAE
:103CC000B0EE480ABDEC028B10BD022000F04CFFA4
:103CD000BDEC028BBDE8104000F02EBF022000F0CA
:103CE00043FFBDEC028BBDE8104000F01DBF00009B
:103CF0000000501E3BAAB8400070313EF4FD05376D
:103D000012BB2A3D12BB2A3EFFFFFF3EFFFF7F3F53
:103D1000921E0000961E0000661E00000000004B70
:103D200000007E4E0000A0850000000000000000A2
:103D30002DE9F04D2DED040B2DED0E8B96B0DDE948
:103D40002550279CDDF890A025F0004624F000487F
:103D5000BAF1000F14BF0121002101EB4502FC491B
:103D600053184A1093422AD3002814BF012300237A
:103D700003EB44030B44F7498B4220D358EA00017C
:103D80009FEDF59B76D0DFF8D8B35D4503D1BAF14E
:103D9000000F05D188E0BAF1000F08BF002100D064
:103DA000012101EB450111F5001F08D8002814BFBF
:103DB0000121002101EB440111F5001F0BD99DEDFC
:103DC000261B9DED240B16B0BDEC0E8B04B0BDE898
:103DD000F04D00F069BE0027002DBCBFE1498845C9
:103DE00021DAE1498845A8BF02271CDAC3451ADC5D
:103DF000DE4901EB2851142908DDC1F1340220FA13
:103E000002F101FA02F282420DD108E058B9C1F183
:103E1000140228FA02F101FA02F2424503D101F03C
:103E20000101C1F1020756EA0A0124D1002C22DA6D
:103E3000002D18BF022F01D0012F0AD0022000F060
:103E400093FE16B0BDEC0E8B04B0BDE8F04D00F053
:103E500013BE022000F088FE00F00EFE51EC100BA5
:103E600081F0004141EC100B16B0BDEC0E8B04B09C
:103E7000BDE8F08D18E09FEDBEAB9FEDBF8B002835
:103E800071D1B848804522D105F1804010F58010ED
:103E900008BFBAF1000F07D0B3450ADC002CA8BF59
:103EA0009DED260BE0DA0DE0B0EE490AF0EE690A6E
:103EB000DAE7002C06DA9DED260B51EC100B81F0B1
:103EC00000416FE0AE48784490ED000BCCE7D84558
:103ED0004DD1002C48DA2EB186423AD1BAF1000F0A
:103EE00042D126E0BAF1000F13D0022000F03CFED0
:103EF00000F0F6FD8DED020B9DED240B8DED000B1A
:103F000010EE900A039961F31E0003909DED020BE1
:103F1000AAE78DED02AB9DED240B1AEE901A10EE80
:103F2000900A8DED000B61F31E0003909DED020BD6
:103F30009AE78DED028B9DED240B18EE901A10EE92
:103F4000900A8DED000B61F31E0003909DED020BB6
:103F50008AE709DA9DED240B51EC190B53EC102B79
:103F6000FCF710FB1EE020E09DED240B7CE7864271
:103F70001BDAB4F1804F0DD0A4F10050B0F1FF5026
:103F800013D1002D11DB9DED240B51EC100B01F032
:103F90007DF907E09DED240B53EC102B51EC100B39
:103FA00000F0C2BC41EC100B5EE79DED240B51EC20
:103FB000100B00F00BFEBAF1000FCDE90E0142D15B
:103FC0009FED710B46B3A6F1E040B0F17F600CD0DD
:103FD0005E4538D1002D00DAA7B3022F0CBF0120B7
:103FE0004FF0FF30FCF73DFBDCE7002D01DD002C3E
:103FF0000DDA002D01DD002C1FDB002D16DA002C60
:1040000014DB012F08BF9FED620B3FF42DAFB0EE24
:104010004A0AF0EE6A0A27E7022F18BF002D0CD0DB
:10402000012F0AD1002DFFF61FAF06E0002DB8BF0B
:10403000002C08DA012F3FF417AFB0EE480AF0EE7B
:10404000680A11E71BE0012000EBE57050EA070168
:1040500015D0791EB0EE498AF0EE698A084308BF90
:104060009FED4D8B4E480025804570DD4D494E48F3
:10407000884514DDB0420DDB002C19DB2FE0012058
:1040800000F072FD16B0BDEC0E8B04B0BDE8F04D33
:1040900000F016BDB34502DC002C09DC1FE08642AF
:1040A00002DA002C1BDA03E05E452BDD002C16DD66
:1040B000022000F059FD00F013FD8DED020B53ECD2
:1040C0001A2B51EC180BFCF7EBF9CDE90001039921
:1040D000019861F31E0003909DED020BC4E60220DF
:1040E00000F042FD00F00CFD10EE901A18EE900A60
:1040F0008DED020B8DED008B61F31E0003909DEDA5
:10410000020BB1E69DED0E0B53EC192B51EC100B8D
:10411000FCF7C0F99FED260BCDE9080153EC102BFD
:104120009DED080B51EC100BFCF7BAF99FED221B2B
:1041300053EC112BFCF7B1F99DED081B53EC112B3F
:10414000FCF7AEF99FED1E1B53EC112B3CE08CE00D
:10415000FFFF1F00FFFF0F00000000000000F03F06
:104160000000F03F0000F07F0000404301FCFFFF33
:10417000000000000000F07F0000000000000000D0
:10418000361C00000000000000000000000000805D
:10419000000000000000F0FF000000000000F0BF81
:1041A0000000E0410000F043FFFFEF3F000000008F
:1041B000000000000000D03F555555555555D53FDE
:1041C000000000000000E03FFCF767F99DED080BE0
:1041D00041EC1A0B53EC102B51EC100BFCF760F96F
:1041E00053EC1A2BFCF75CF941EC1A0B9FEDFE0B1C
:1041F00053EC102B9DED080B51EC100BFCF750F914
:1042000041EC1B0B9FEDFA0B51EC1A0B53EC102BEE
:10421000FCF746F941EC1A0B9FEDF70B53EC102B12
:104220009DED080B51EC100BFCF73AF953EC1A2BEF
:10423000FCF730F941EC1A0B51EC1B0B53EC1A2B29
:10424000FCF787F80690CDE906519DED060B53EC7F
:104250001B2B51EC100BFCF71DF953EC1A2BFCF740
:104260001CF941EC100B00F0A1B90020B6F5801F3D
:104270000EDA9FEDE30B53EC102B9DED0E0B51EC82
:10428000100BFCF70DF9CDE90E016FF034000E466E
:1042900000EB2650A0F2FF37C6F31300DA4940F0D6
:1042A0007F6646F040568842D8BF002408DDD749D3
:1042B0008142C8BF012403DC0024A6F580167F1CC0
:1042C000D348784400EBC4000F9690ED00CB9DEDF1
:1042D0000E0B53EC1C2B51EC100BFCF7DBF89DED97
:1042E0000E0B41EC1B0B53EC1C2B51EC100BFCF791
:1042F00030F841EC100B51EC190B53EC102BFCF780
:1043000041F941EC1D0B51EC1B0B53EC1D2BFCF741
:10431000C7F841EC1A0BBF488DED10AB78441095EF
:1043200090ED000B4FF0005040EA660000EB844037
:104330008DED080B00F5002009909DED080B53EC66
:104340001C2B51EC100BFCF7A5F89DED0E1B53EC4C
:10435000112BFCF7A2F841EC100B53EC102B9DED48
:10436000100B51EC100BFCF79BF89DED080B41EC8A
:104370001C0B53EC102B9DED100B51EC100BFCF7AC
:104380008FF853EC1B2BFCF788F853EC1C2BFCF735
:1043900081F853EC1D2BFCF783F841EC1C0B53EC1C
:1043A0001A2B51EC1A0BFCF77BF841EC1B0B9A48CB
:1043B0000621B0EE4B0AF0EE6B0A784400F0E0FA0A
:1043C000B0EE401AF0EE601AB0EE41DAF0EE61DACB
:1043D00053EC1B2B51EC1B0BFCF762F853EC1D2B21
:1043E000FCF75EF89DED100B41EC1B0B53EC1A2B08
:1043F00051EC100BFBF7ADFF53EC1C2BFCF750F806
:1044000053EC1B2BFBF7A5FF9DED100B41EC1B0B99
:1044100053EC102B51EC100BFCF742F841EC1D0B48
:104420009FED7FEB53EC1E2BFBF793FF53EC1B2B05
:10443000FBF78FFF0890CDE908519DED080B53EC79
:104440001E2B51EC100BFCF725F853EC1D2BFCF741
:1044500021F853EC1B2BFCF720F89DED080B41ECE9
:104460001D0B53EC102B9DED100B51EC100BFCF7BA
:1044700017F841EC1B0B53EC1A2B51EC1D0BFCF7FE
:104480000FF89DED080B41EC1A0B53EC102B51EC7F
:104490001C0BFCF705F853EC1A2BFBF75AFF41EC09
:1044A0001A0B51EC1B0B53EC1A2BFBF752FF0C9021
:1044B000CDE90C519DED0C0B53EC1B2B51EC100B6B
:1044C000FBF7E8FF53EC1A2BFBF7E7FF41EC1B0B64
:1044D0009FED550B53EC102B9DED0C0B51EC100B7D
:1044E000FBF7DEFF41EC1A0B9FED510B51EC1B0B60
:1044F00053EC102BFBF7D4FF41EC1B0B9FED4E0B45
:1045000053EC102B9DED0C0B51EC100BFBF7C8FF7F
:1045100053EC1B2BFBF71DFF41EC100B4848784474
:1045200000EBC40090ED001B51EC100B53EC112B71
:10453000FBF70FFF41EC1B0B3846FCF792F8CDE977
:10454000080153EC1B2B51EC1A0BFBF702FF41EC5B
:10455000100B3C48784400EBC40090ED00CB51ECCC
:10456000100B53EC1C2BFBF7F4FE9DED081B53ECDA
:10457000112BFBF7EEFE0690CDE906519DED080BE1
:1045800053EC102B9DED060B51EC100BFBF782FF4B
:1045900053EC1C2BFBF77EFF53EC1A2BFBF77AFF37
:1045A00053EC1B2BFBF779FF41EC100B9DED261B09
:1045B00053EC102B8DED001B00959DED260B51EC5F
:1045C000100BFBF76DFF9DED000B41EC1A0B53EC4C
:1045D000102B9DED260B51EC100BFBF75BFF9DEDB7
:1045E000061B53EC112B2FE0000000604715F73F2E
:1045F000FE822B654715F73F44DF5DF80BAE543E56
:1046000000000000000040438E9803007AB60B00C3
:10461000B2170000E0170000EA16000000000000DA
:104620000000000000000840000000E009C7EE3F65
:10463000FD033ADC09C7EE3FF5015B14E02F3EBEF7
:104640007615000030150000FBF72AFF53EC1A2BFB
:10465000FBF77FFE9DED060B41EC1A0B53EC102B84
:104660009DED000B51EC100BFBF71AFFCDE90C018F
:104670009DED0C0B51EC1A0B53EC102BFBF769FE64
:10468000CDE902010C46AA498C422FDB611A08438E
:1046900018D19DED0C0B53EC102B9DED020B51EC42
:1046A000100BFBF7F7FE41EC1B0B9FEDA30B51EC3E
:1046B0001A0B53EC102BFBF74CFE53EC1B2BFCF7A7
:1046C0003DF92DD2022000F04FFA00F009FA10EE69
:1046D000901A18EE900A8DED020B8DED008B61F3B0
:1046E0001E0003909DED020BFFF7BEBB944A24F021
:1046F0000041914214D39349214408437FF4EFAC25
:104700009DED0C0B53EC102B9DED020B51EC100B9F
:10471000FBF7C0FE53EC1A2BFCF710F97FF6DFAC69
:1047200024F000408849894A002601EB205182424A
:104730002BDA481C4FF4801121FA00F02044844AFF
:10474000C0F30A517A44A1F2FF3192ED000B814A85
:104750008DED080BCA4020EA0202C0F3130040F4BA
:104760008010C1F1140120FA01F60992002CB8BFA3
:1047700076429DED080B53EC102B9DED0C0B51EC8C
:10478000100BFBF787FECDE90C019DED0C0B51ECF6
:104790001A0B53EC102BFBF7DCFD9FED6F0B089011
:1047A000CDE9085153EC102B9DED080B51EC100B8B
:1047B000FBF776FE41EC1B0B9FED690B53EC102BC6
:1047C0009DED080B51EC100BFBF76AFE9DED0C0BF9
:1047D00041EC1C0B53EC102B9DED080B51EC100B16
:1047E000FBF758FE53EC1A2BFBF757FE9FED5E1BB1
:1047F00053EC112BFBF754FE53EC1C2BFBF7A9FDDC
:1048000041EC1A0B51EC1B0B53EC1A2BFBF7A1FDDF
:10481000CDE902019DED020B53EC1B2B51EC100B6B
:10482000FBF738FE53EC1A2BFBF737FE9DED020B1E
:1048300041EC1A0B53EC102B51EC100BFBF730FE34
:10484000CDE908014A489DED080B0521784400F0A8
:1048500097F89DED081B51EC100B53EC112BFBF757
:104860001FFE9DED021B53EC112BFBF716FECDE94D
:1048700006019DED020B53EC1A2B51EC100BFBF7CC
:104880000FFE53EC1A2BFBF764FD9FED3B0B41EC45
:104890001A0B53EC102B9DED060B51EC100BFBF794
:1048A000F9FD9DED060B41EC1B0B53EC102B9DED20
:1048B000020B51EC100BFBF7F3FD53EC1B2BFBF73A
:1048C00061FE53EC1A2BFBF7E5FD9DED021B53EC4B
:1048D000112BFBF7DFFD53EC192BFBF7DEFDCDE9C8
:1048E000020101EB065001150029C8BF039015DC39
:1048F0009DED020B324651EC100BFBF7B7FFFFF7B3
:10490000E6F8042808BF00F0FBF832469DED020BE4
:1049100051EC100BFBF7AAFFCDE902019DED020B54
:1049200051EC180B53EC102BFBF7BAFDFFF73ABB19
:104930000000904000000000FE822B654715973C68
:1049400000CC904000346F3F01FCFFFF0000E03FCF
:10495000B8130000FFFF0F0000000000432EE63FE9
:10496000396CA80C615C20BEEF39FAFE422EE63F9E
:10497000881200000000000000000000000000405D
:1049800070B504462DED028B4D1E00EBC500B0EE58
:10499000408AF0EE608A90ED000B35F0060017D0EB
:1049A00053EC182B51EC100BFBF77AFD41EC100B7C
:1049B0006D1E04EBC50090ED001B51EC100B53EC89
:1049C000112BFBF7C6FC41EC100B35F00600E7D1CC
:1049D000022D36D0042D1CD0062D1CBFBDEC028B41
:1049E00070BD53EC182B51EC100BFBF759FD94EDF7
:1049F0000A1B53EC112BFBF7ACFC53EC182BFBF709
:104A00004FFD94ED081B53EC112BFBF7A2FC41EC7E
:104A1000100B53EC182B51EC100BFBF741FD94EDF0
:104A2000061B53EC112BFBF794FC53EC182BFBF7F4
:104A300037FD94ED040B53EC102BFBF78AFC41EC93
:104A4000100B53EC182B51EC100BFBF729FD94EDD8
:104A5000021B53EC112BFBF77CFC53EC182BFBF7E0
:104A60001FFD94ED001B53EC112BFBF772FCBDEC0A
:104A7000028B41EC100B70BD9FED070B10B553EC92
:104A8000102B9FED070B51EC100BFBF77BFD41EC5E
:104A9000100B10BD0000000000000000000000002E
:104AA000000000000000F03F10B553EC112B51EC5A
:104AB000100BFBF74EFC41EC100B10BD000000008A
:104AC0009FED050B10B553EC102B51EC100BFBF7C1
:104AD00059FD41EC100B10BD00000000000000006B
:104AE0009FED050B10B553EC102B51EC100BFBF7A1
:104AF000D7FC41EC100B10BD00000000000000705E
:104B00009FED050B10B553EC102B51EC100BFBF780
:104B1000C7FC41EC100B10BD0000000000000010AD
:104B200030EE000A704700009FED020A20EE000AF6
:104B300070470000000000709FED020A20EE000A9E
:104B4000704700000000001002E008C8121F08C1F2
:104B5000002AFAD170477047002001E001C1121FFE
:104B6000002AFBD17047000001490860704700002F
:104B70001401002000B58BB000200121CDE9060111
:104B8000089100900190029003900590049069466E
:104B90000C48FCF779F80B48FCF7E6FB02210948C2
:104BA000FBF7F7FF0E200990059069460648FCF7D1
:104BB0006BF80548FCF7D8FB02210348FBF7E9FF37
:104BC0000BB000BD380500206005002082B0CDE9A3
:104BD000000121F0004001909DED000B02B051EC6E
:104BE000100B704700F00300024900EB800001EB5E
:104BF00040007047544600202DED028BFCF7E2FE8A
:104C0000FEF7FEFAFEF70EF8FDF7B0FFFEF750F8DC
:104C1000FEF76AF8FEF7A0F8FDF762FFFDF782FFE6
:104C2000FEF77EF8FEF714FFFFF7A4FF01222949E3
:104C30002948FDF75DFE0020FFF7D4FF274C2060D8
:104C40000120FFF7CFFF60600220FFF7CBFFA060DD
:104C50000320FFF7C7FF9FED228ADFED228AE06085
:104C6000F0EE480AB0EE680A1F4A00211F48FEF71E
:104C700033FA1D4A1D48F0EE480AB0EE680A2032A9
:104C800000215C30FEF728FA174A1848F0EE480A6F
:104C9000B0EE680A40320021B830FEF71DFA124A21
:104CA000F0EE480AB0EE680A603200211048FEF7C4
:104CB00013FA0D4A0E48DFED0F0A9FED0F0A8032FE
:104CC00002215C30FEF708FAFDF78EFF00F05CF879
:104CD000FEE700004C0000207806002004000020C1
:104CE00000803B4500007A454C590008180100201F
:104CF0002C0200200000E1440080094500218428A6
:104D000000D0C11C08467047164870EE602A16494C
:104D100090ED032AD0ED041A30EE803A41EE022ADB
:104D200062EEA12AC1ED002AD0ED052A0F4801EE5E
:104D3000223A23EE213A80ED003A30EEC03AF1EE0D
:104D4000600A0B4830EEC00A01EE023A01EE220A78
:104D500023EE212A80ED002A20EE210A054880ED6D
:104D6000000A7047200000201400002018000020D6
:104D70001C0000200000002010B5002800D10120F8
:104D800000F088FB002010BD10B500F0ABFB002048
:104D900010BD30B585B004460D466169B4F9080010
:104DA000002910D0A16971B1FFF7A8FF6269A1695C
:104DB0000192029100902B4622692168606800F000
:104DC000C5FC049010E0FFF799FF04A90191009041
:104DD000208A2B4682B22168606800F081FC01289D
:104DE00002D005B0002030BD049805B030BD0000F1
:104DF0002DE9F04104460F46194EF5683068001D54
:104E000000F07BFA48B93068012190F82C0001FAD3
:104E100000F0316921EA00003061B4F1FF3F07D1B1
:104E200037B13068BDE8F041011D0E4800F0ABBA63
:104E30002C4430684460AC4206D23068011DB06B2F
:104E4000BDE8F04100F084BA3068011D706B00F0DD
:104E50007FFAB06A844200D2B462BDE8F0810000FB
:104E600068000020400A002070B5044600F098FA5F
:104E70001C4DA868401CA860286810B1686938B14A
:104E80000CE02C60A868012808D100F0EDF805E0DE
:104E90002868E16AC06A884200D82C60686A401CB1
:104EA0006862E06A01212A698140114329610E4943
:104EB00000EB800001EB8000211D00F064FA00F09F
:104EC0008FFA686900280CD02868E16AC06A8842B5
:104ED00007D206494FF080500860BFF34F8FBFF3F1
:104EE0006F8F70BD680000206409002004ED00E0B1
:104EF00070B50D4C6068002815D00C4E00F050FACB
:104F0000F068C568281D00F0F8F9A068401EA06090
:104F10006068401E606000F063FA284600F008F800
:104F200060680028EAD170BD680000202C0A0020CB
:104F300010B5044694F8511000290BD0012911D066
:104F4000022914D0502080F31188BFF34F8FBFF394
:104F50006F8FFEE7206B00F059FA2046BDE8104045
:104F600000F054BA2046BDE8104000F04FBA10BD22
:104F70004FF47051104810F0070F06D0C01D20F0FC
:104F800007000D49411AC1F570510C4A1060002309
:104F900053600144083921F00701183A11604B6051
:104FA0000B600B1A436001604068906050604FF0E6
:104FB0000040506170470000540A0020BC000020EF
:104FC000074E4FF08054074DFFF792FF30680128DD
:104FD000FAD92C60BFF34F8FBFF36F8FF4E7000057
:104FE0006409002004ED00E02DE9F0478146099EA8
:104FF000089D0A9C9A46521E206B00EB820020F00E
:105000000708002700290CD0002023180A5C83F829
:1050100034200A5C12B1401C1028F6D384F8437087
:1050200001E084F83470072D00D30625E56265643D
:10503000A764201D00F089F904F1180000F085F93B
:105040002461C5F10700A0616462E76484F85070D0
:1050500052464946404600F003F92060002E00D039
:105060003460BDE8F087000070B500240F4D04EBFC
:10507000840005EB800000F05DF9641C072CF6D37A
:105080000B4800F057F90B4800F054F90A4800F0BB
:1050900051F90A4800F04EF9094800F04BF9094867
:1050A000034941631431816370BD0000640900202D
:1050B000F0090020040A0020180A00202C0A002011
:1050C000400A00206800002010B4144900E0114696
:1050D0000A688242FBD34B6803EB010C844503D181
:1050E00040681844486008460C68D0F804C00CEBCF
:1050F0000003A3420CD10A4B1B689A4206D05268A7
:10510000624442600A681268026002E0036000E0E4
:105110000260814200D0086010BC7047BC000020D3
:10512000A40000200749486B0068002805D0486BA0
:10513000C068C0684068886270474FF0FF3088627E
:1051400070470000680000200A484068B0F1FF3F47
:1051500007D0502080F31188BFF34F8FBFF36F8FBC
:10516000FEE7502080F31188BFF34F8FBFF36F8F9E
:10517000FEE70000C40000202DE9F04105460026AE
:1051800000F0F4F9344F386808B9FFF7F1FE786998
:10519000054251D19DB1083515F0070F0FD005F02C
:1051A0000700C0F10800054415F0070F07D0502094
:1051B00080F31188BFF34F8FBFF36F8FFEE7002D91
:1051C0003AD07868854237D824490846046801E017
:1051D000214604466068A84202D220680028F7D120
:1051E0003868844228D0086800F108062068086002
:1051F0006068411B10290FD9601910F0070F07D004
:10520000502080F31188BFF34F8FBFF36F8FFEE7FD
:1052100041606560FFF758FF61687868401A786000
:10522000BA68904200D2B860786908436060002094
:105230002060F868401CF86000F022FB16F0070FB1
:1052400007D0502080F31188BFF34F8FBFF36F8FCB
:10525000FEE73046BDE8F081A4000020BC0000203D
:10526000001F4FF080730360001F21F001010160F7
:10527000001F0549016014380260001F6FF0020131
:1052800001602038704700004951000800B52DED3D
:10529000048B83B041EC190BFBF7FFFA41EC180BC0
:1052A00018EE100A18EE901A8DED008B002818BF2A
:1052B0000120084320F00040C0F17F6000F1E04091
:1052C000C00F14D019EE101A19EE900A8DED009B44
:1052D000002918BF0121084320F00040C0F17F6081
:1052E00000F1E040C00F04BF0120FFF73DFC51EC8E
:1052F000180B03B0BDEC048B00BD016943688268E4
:105300009A60836842685A604A68824201D1826822
:105310004A60002202610868401E08600868704701
:10532000034B036003F15400086080201060704755
:10533000E402002000F1080141604FF0FF3282607A
:10534000C160016100210160704700210161704767
:1053500010B4D1F800C0BCF1FF3F02D000F1080248
:1053600002E0026904E01A4653681C686445FAD9F1
:1053700053684B6099608A60516008610168491CFC
:10538000016010BC704742684A6093688B60936804
:105390005960916008610168491C01607047000014
:1053A000502080F31188BFF34F8FBFF36F8F0A49EE
:1053B0004868401C486001280CD10848006810F07B
:1053C000FF0F07D0502080F31188BFF34F8FBFF33A
:1053D0006F8FFEE770470000C400002004ED00E07E
:1053E00009494868002806D0401E4860002801D1BD
:1053F00080F311887047502080F31188BFF34F8FDE
:10540000BFF36F8FFEE70000C400002070B50028D6
:105410002AD0A0F10804154D60686969084207D1D7
:10542000502080F31188BFF34F8FBFF36F8FFEE7DB
:1054300022683AB1502080F31188BFF34F8FBFF339
:105440006F8FFEE78843606000F090F860686968DD
:10545000084468602046FFF737FE2869401C286131
:10546000BDE8704000F00CBA70BD0000A400002040
:105470004FF0E02000210161816105494FF47A720B
:105480000968B1FBF2F1491E4161072101617047D2
:105490006400002010B502460020002A12D00F48F8
:1054A000006B38B1502080F31188BFF34F8FBFF3EA
:1054B0006F8FFEE700F05AF800211046FFF798FCC6
:1054C00000F0DEF9002807D105494FF08050086050
:1054D000BFF34F8FBFF36F8F10BD00006800002037
:1054E00004ED00E010B586B000240594049403AAEE
:1054F00004A905A8FFF714FF0598049901910290EB
:105500000023009415A11748039A00F01FF91649CB
:10551000C86208B1012000E0002001280AD0B0F1E3
:10552000FF3F19D1502080F31188BFF34F8FBFF395
:105530006F8FFEE7502080F31188BFF34F8FBFF3CA
:105540006F8F4FF0FF30886201204861CC6006B059
:10555000BDE8104000F042B806B010BD49444C45CB
:1055600000000000C14F0008680000200248016BE5
:10557000491C01637047000068000020154A106B49
:10558000002802D00120D06170470020D06110694E
:10559000B0FA80F0C0F11F000F4900EB800051F815
:1055A000203073B101EB800041684968416000F12F
:1055B0000803994201D1496841604068C0681060A1
:1055C0007047502080F31188BFF34F8FBFF36F8F68
:1055D000FEE70000680000206409002010B582B0DA
:1055E00038480168384A914207D1502080F3118829
:1055F000BFF34F8FBFF36F8FFEE7006833498842D8
:1056000007D1502080F31188BFF34F8FBFF36F8F06
:10561000FEE72F4908780190FF2008700878009075
:105620009DF800009DF8002000F0F000904207D0A7
:10563000502080F31188BFF34F8FBFF36F8FFEE7C9
:105640009DF80000234C00F0500020700720A0605F
:105650009DF8000010F0800F0BD0A068401EA060E5
:105660009DF80000400000909DF8000010F0800FB1
:10567000F3D1A068032807D0502080F31188BFF32E
:105680004F8FBFF36F8FFEE74FF44070A06001981B
:1056900008701148016841F470010160016841F02F
:1056A00070410160FFF7E4FE00206060FAF7AEFD94
:1056B0000A48016841F040410160FAF793FD02B0E9
:1056C000002010BD00ED00E071C20F4170C20F411B
:1056D00000E400E0C400002020ED00E034EF00E032
:1056E0002DE9F04F85B081460F9F0E9E8A46904669
:1056F0009B464FEA8800FFF73FFD054628000AD089
:105700005420FFF739FD04460CB1256304E0284618
:10571000FFF77CFE00E000249CB1002084F85100DB
:1057200003905B46424651460197009602944846D4
:10573000FFF75AFC2046FFF797FB05B00120BDE8B4
:10574000F08F05B04FF0FF30BDE8F08F70B586B038
:105750000646DDF828C00C9C0B98002816D0ECB14A
:10576000542504952063022084F85100002005ADE3
:105770000390CDF800C0019502943046FFF734FC49
:105780002046FFF771FB059806B070BD502080F3EE
:105790001188BFF34F8FBFF36F8FFEE7502080F368
:1057A0001188BFF34F8FBFF36F8FFEE72DE9F047EE
:1057B0000026314F386B002805D0B869401CB8610D
:1057C0003046BDE8F087F868451CFD609DB9786BF0
:1057D000006838B1502080F31188BFF34F8FBFF3BA
:1057E0006F8FFEE7786BB96B7963B863386A401CDA
:1057F0003862FFF797FCB86ADFF8808085420FD3E4
:105800004FF00109786B006838B1786BC068C468E4
:105810006068854212D2B86202E04FF0FF30B86291
:105820003868C06A00EB800058F82000012800D9D1
:105830000126F8690028C3D00126C1E7201DFFF723
:105840005CFDA06A18B104F11800FFF756FDE16A8B
:105850003A6909FA01F01043386101EB810008EB65
:105860008000211DFFF78FFDE06A3968C96A884210
:10587000C8D30126C6E700006800002064090020A4
:105880002DE9F0470024A0462D4D286B002807D0B5
:10589000FFF786FD286B401E2863286B40B149E066
:1058A000502080F31188BFF34F8FBFF36F8FFEE757
:1058B000A86800283ED0234F3868012600B3A7F11E
:1058C000B409F868C46804F11800FFF716FD201D3C
:1058D000FFF713FDE06A2A6906FA00F11143296116
:1058E00000EB800009EB8000211DFFF74CFDE06A12
:1058F0002968C96A884200D3EE6138680028E0D17F
:105900000CB1FFF70FFCAC6944B1FFF74FFF00B1DA
:10591000EE61641E002CF8D10020A861E86948B14E
:105920004FF0010808494FF080500860BFF34F8FD7
:10593000BFF36F8FFFF754FD4046BDE8F0870000CE
:1059400068000020180A002004ED00E0CDCC8C4057
:10595000CDCC4C3D00004040000040400000000025
:10596000000000000AD7A33C0AD7A33CCDCC8C4052
:10597000CDCC4C3D00004040000040400000000005
:10598000000000000AD7A33C0AD7A33CCDCC8C4032
:10599000CDCC4C3D000040400000404000000000E5
:1059A000000000000AD7A33C0AD7A33CCDCC8C4012
:1059B000CDCC4C3D000040400000404000000000C5
:1059C000000000000AD7A33C0AD7A33C00002042F5
:1059D0000000000000000000000000410000000086
:1059E000000000000AD7A33C0AD7A33C085B0008CC
:1059F0005D31000800000000000000000001000010
:105A00000000000000000000145B0008952D000855
:105A1000FDFF000000000000000100000000000089
:105A2000000000000006101600061016000000001E
:105A3000000000000102030406070809000000003E
:105A4000010203040000803F0030983F0000B53F92
:105A50000040D73F00000000320A7E397F661E39C1
:105A60005B991F390000803FF037983FF304B53F42
:105A7000FD44D73F00000000000000000000F03FA0
:105A8000000000000000F83F0000000000000000DF
:105A90000000004003B8E23F0000000000000000EA
:105AA00006D0CF43EBFD4C3E033333333333E33F78
:105AB000FFAB6FDBB66DDB3F4D268F515555D53FA4
:105AC00001411DA96074D13F65DBC9934A86CD3F72
:105AD000EF4E454A287ECA3F3E5555555555C53F60
