:020000040800F2
:10000000F84900200D0300086B220008FF1F0008BC
:100010006922000869050008812800080000000026
:100020000000000000000000000000004D02000879
:100030007106000800000000A9020008A1220008C3
:1000400027030008270300082703000827030008E8
:1000500027030008270300082703000827030008D8
:1000600027030008270300082703000827030008C8
:100070009D05000827030008A905000827030008BC
:1000800027030008B50500082703000879050008C4
:100090006D05000827030008270300082703000850
:1000A0002703000827030008270300082703000888
:1000B0002703000827030008270300082703000878
:1000C0002703000827030008270300082703000868
:1000D0002703000827030008270300082703000858
:1000E0002703000827030008270300082703000848
:1000F0002703000827030008270300082703000838
:100100002703000827030008270300082703000827
:1001100027030008270300087D23000827030008A1
:100120002703000827030008270300082703000807
:10013000270300082703000827030008910500088B
:100140008505000827030008270300082703000887
:1001500027030008C105000827030008270300083B
:1001600027030008270300082703000827030008C7
:1001700027030008270300082703000800000000E9
:1001800027030008270300082703000827030008A7
:100190002703000827030008270300082703000897
:1001A00000000000000000002703000800F002F833
:1001B00000F03CF80AA090E8000C82448344AAF1C5
:1001C0000107DA4501D100F031F8AFF2090EBAE8C3
:1001D0000F0013F0010F18BFFB1A43F0010318477B
:1001E0007433000094330000103A24BF78C878C1FB
:1001F000FAD8520724BF30C830C144BF04680C602D
:10020000704700000023002400250026103A28BF74
:1002100078C1FBD8520728BF30C148BF0B60704778
:100220001FB503F059F91FBD10B510BD00F067F9F7
:100230001146FFF7F5FF02F061FB00F085F903B40A
:10024000FFF7F2FF03BC00F089F900002C4B19689E
:100250000868B0E8F04F80F30988BFF36F8F4FF064
:10026000000080F311887047000000000848006813
:10027000006880F308884FF0000080F3148862B6AD
:1002800061B6BFF34F8FBFF36F8F00DF00BF00BFBA
:1002900008ED00E0DFF80C00016841F47001016036
:1002A000704700BF88ED00E0EFF30980BFF36F8F68
:1002B000134B1A681EF0100F08BF20ED108A20E9BA
:1002C000F04F106009B44FF0500080F31188BFF375
:1002D0004F8FBFF36F8F02F0FDFE4FF0000080F3F1
:1002E000118809BC19680868B0E8F04F1EF0100FBB
:1002F00008BFB0EC108A80F30988BFF36F8F704796
:1003000030000020EFF30580704700000948804767
:1003100009480047FEE7FEE7FEE7FEE7FEE7FEE7E7
:10032000FEE7FEE7FEE7FEE704480549054A064BFF
:10033000704700006D230008AD010008F84300205D
:10034000F8490020F8450020F845002053EA020C47
:1003500000F069802DE9F04B4FF00006002B1FBF25
:10036000B3FA83F503FA05F424FA05F65E4012BFEA
:100370001643B2FA82F502FA05F4C5F120051EBF54
:1003800022FA05FC44EA0C04203556EA044C4FEAF4
:10039000144418BF641C4FF000084FF0000990424D
:1003A00071EB030C39D3002919BFB1FA81F701FAB7
:1003B00007F6B0FA80F700FA07F6C7F120071EBF6C
:1003C00020FA07FC46EA0C062037B6FBF4FCA7EB44
:1003D0000507103F07F01F0BCBF120060CFA0BFBB3
:1003E0002CFA06F644BFB3460026202FA4BF5E4673
:1003F0004FF0000B5BEA060C08BF4FF0010B19EB46
:100400000B09ABFB027C48EB0608C01B06FB02CCC9
:100410000BFB03CC71EB0C01C1E70B4602464146D6
:100420004846BDE8F08B13B54FF000004FF00001D7
:10043000AFF30080BDE81C40704710B5203AC0F013
:100440000B80B1E81850203AA0E81850B1E81850D5
:10045000A0E81850BFF4F5AF5FEA027C24BFB1E812
:100460001850A0E8185044BF18C918C0BDE8104083
:100470005FEA827C24BF51F8043B40F8043B08BF8C
:100480007047D20728BF31F8023B48BF11F8012B53
:1004900028BF20F8023B48BF00F8012B70474FF0FF
:1004A000000200B5134694469646203922BFA0E8C4
:1004B0000C50A0E80C50B1F12001BFF4F7AF0907D0
:1004C00028BFA0E80C5048BF0CC05DF804EB8900C1
:1004D00028BF40F8042B08BF704748BF20F8022B04
:1004E00011F0804F18BF00F8012B7047704770471C
:1004F00070470000004870479843002070477546D9
:10050000FFF7F8FFAE4605006946534620F00700A6
:10051000854618B020B5FFF707FFBDE820404FF033
:1005200000064FF000074FF000084FF0000B21F0DD
:100530000701AC46ACE8C009ACE8C009ACE8C009AA
:10054000ACE8C0098D46704710B50446AFF3008093
:100550002046BDE81040FFF772BE00000149182098
:10056000ABBEFEE726000200FEE70000014800F0F7
:1005700096B9000000030020014800F090B9000087
:1005800000030020014800F08AB900002803002081
:10059000014800F084B9000028030020014800F061
:1005A000FFBB0000C8040020014800F0F9BB0000B8
:1005B00068040020014800F0F3BB0000280500207B
:1005C000014800F0EDBB00008805002001681823F9
:1005D000CAB2103AB2FBF3F2054B6FF30901032ADA
:1005E0009B5CC36500D9091D816508467047000002
:1005F0001C35000810B5014600208B698A6A4FF04F
:10060000C07453B1B3F5005F15D072B1012A0CD09C
:10061000022A0AD0032A09D104E01AB1012A06D01D
:10062000022A03D1C96AC90100D5012010BDC96AD7
:10063000A142FAD010BD002AF7D0012AF2D0022A36
:10064000F3D0032AF3D010BD30B50468256825F433
:1006500080252560046863608368402B036803D0AD
:1006600099600068C26030BD9A600068C16030BDAA
:10067000704772B6FEE790F82020012A07D0022AC0
:1006800005D0416A41F48021416201207047006831
:1006900042690A43426100207047000010B590F89B
:1006A0002020012A07D0022A05D0416A41F4802186
:1006B0004162012010BD3B48D0F8002242F0010207
:1006C000C0F80022D0F8002222F47C52C0F80022A8
:1006D000D0F800224B6A42EA0322C0F800220A7DC9
:1006E00002F01F0301229A40D0F81C329343C0F855
:1006F0001C32CB69B3B9D0F80C329343C0F80C323A
:100700008C894B6864F31F434C6900EBC404C4F844
:1007100040320C890B6864F31F434C6900EBC4043E
:10072000C4F84432CB69012B16D1D0F80C321343F4
:10073000C0F80C320C884B6864F31F434C6900EB23
:10074000C404C4F840320C89CB6864F31F434C697D
:1007500000EBC404C4F844328B69002BD0F8043297
:100760000ED01343C0F804320B69002BD0F81432BA
:1007700008D01343C0F81432096A012904D008E0F4
:100780009343EFE79343F5E7D0F81C121143C0F809
:100790001C12D0F8001221F00101C0F80012002054
:1007A00010BD000000640040704770B590F8204014
:1007B000012C05D0022C03D0416A41F4802128E0AD
:1007C000046809B32469A40720D04FF4D8740568DD
:1007D00004EB01142D5915F00405956005682D5999
:1007E0001AD0ED08556005682C5904F00204D46055
:1007F0004FF4DA74056804EB01142E5906F00F0665
:10080000082E0CD308250DE0E468DCE7416A41F4CA
:1008100000114162012070BD6D0D1560E3E72D5997
:1008200005F00F05156105682D59C5F3072595617C
:1008300005682C59240C54614FF4DC72046802EBF7
:100840000112A4581C700468A458240A5C7004683F
:10085000A458240C9C700468A258120EDA704FF44D
:10086000DE72046802EB0112A4581C710468A458DB
:10087000240A5C710468A458240C9C710468A25872
:10088000120EDA71006829B1016941F0200101619D
:10089000002070BDC16841F02001C160F8E72DE97A
:1008A000F05F0546006800244669D0F80490876828
:1008B000D0F80CB0D0F810A0D0F81880F10748D0CC
:1008C000F90714D001218160B80703D5284600F04C
:1008D00060FA0CE0780702D54FF4006407E03807AF
:1008E00002D54FF4805402E0284600F051FAF80592
:1008F00016D529684FF480708860B80503D528465E
:1009000000F049FA0CE0780502D544F4005407E001
:10091000380502D544F4804402E0284600F03AFA53
:10092000F80316D529684FF480308860B80303D5E2
:10093000284600F032FA0CE0780302D544F4004473
:1009400007E0380302D544F4803402E0284600F082
:1009500023FA300707D55FEACB6004D52968102059
:1009600044F40074C86070074FF0080707D55FEAC9
:100970000B7004D52868C760284600F0A9F9B007B5
:1009800006D52868C068800702D0284600F0A2F982
:10099000700607D55FEACA6004D52968102044F4C0
:1009A00080640861B00607D55FEA0A7004D528683C
:1009B0000761284600F0BCF9F00606D528680069F2
:1009C000800702D0284600F0B4F9B00308D55FEAEA
:1009D000C96005D5296810204860284600F0AAF9AA
:1009E000F00307D55FEA097004D5286847602846F8
:1009F00000F0D4F9300446D55FEA497040D5F005DF
:100A000004D55FEAC87001D044F00104B00504D5F4
:100A10005FEA887001D544F00204700504D55FEAEE
:100A2000487001D544F00404300529D518F0700F42
:100A300026D008F07000402815D006DC102809D018
:100A400020280AD0302816D10AE050280ED060287D
:100A500011D10EE044F008040DE044F010040AE067
:100A600044F0200407E044F0400404E044F0800433
:100A700001E044F480742868816921F0700181618B
:100A8000296804204860002C05D0686A2043686209
:100A90002846FFF789FEBDE8F09F70B5040003D03B
:100AA00094F8200010B104E0012070BD204600F051
:100AB00081F82068016841F00101016000F002FC4A
:100AC0000546052604E000F0FDFB401B0A2811D86E
:100AD00020684068C007F6D02068016821F0020154
:100AE000016000F0EFFB05460BE000F0EBFB401B64
:100AF0000A2806D9606A40F40030606284F82060F9
:100B0000D2E7206840688007EFD4207E0128206863
:100B100001683DD021F080010160607E01282068DD
:100B2000016838D021F040010160A07E01282068D2
:100B3000016833D021F020010160E07E01282068A7
:100B400001682ED041F010010160207F012820684B
:100B5000016829D021F008010160607F0128206828
:100B6000016824D021F004010160D4E902010843A6
:100B7000D4E90412114308436168491E08432168FF
:100B8000C86100206062012084F82000002070BD50
:100B900041F08001C0E741F04001C5E741F020018C
:100BA000CAE721F01001CFE741F00801D4E741F096
:100BB0000401D9E7F0B587B0044614216846FFF771
:100BC0006EFC3E4B3E48DFF8F0E01968D4F800C0F8
:100BD0003B4A03250226092710300024491CF4450E
:100BE0002AD11960012907D1016841F00071016023
:100BF000006800F000700590106840F00800106078
:100C00001068CDE9005600F00800CDE9047069468F
:100C10002C48CDE9024500F035FA002205211320C9
:100C200000F0EEFB132000F0DDFB00220521142074
:100C300000F0E6FB14203BE0DFF88CE0F44539D10E
:100C4000D0F800C04CF0806CC0F800C0D0F800C0F4
:100C500001290CF0806CCDF814C0196007D101682F
:100C600041F000710160006800F0007005901068AC
:100C700040F002001060106802AB00F00200059026
:100C80004FF44050CDE9000683E8B00069460F48B4
:100C900000F0F8F9002205213F2000F0B1FB3F20D1
:100CA00000F0A0FB00220521402000F0A9FB40201D
:100CB00000F098FB07B0F0BD006400400800002081
:100CC00030380240000C024000680040000402403E
:100CD0007047000000B58BB001AB03AA0021FFF7FD
:100CE00064FD0398A0F2012006281AD80E49C0B26C
:100CF00000EB800208700D4901EB420031F8123020
:100D00000381BDF804305BBA21F81230BDF806103B
:100D100049BA4180BDF8081049BA81809DF80A108F
:100D200081710BB000BD000098000020204300201E
:100D3000704770477047000070B5044690F8200077
:100D4000012804D0606A40F40020606218E00220AC
:100D500084F820002068016821F00101016000F0A2
:100D6000B1FA05460EE000BF00F0ACFA401B0A28BD
:100D700008D9606A40F400306062052084F82000E1
:100D8000012070BD20684068C007EDD1606270BD71
:100D90007047704770477047704770477047000052
:100DA0002DE9F84304464FF00009CDF80090634860
:100DB0004FF41651A56D0068B0FBF1F72E6894F85A
:100DC0005C10082000FA01F131420FD021680A6856
:100DD00052070BD50A6822F004020A6094F85C10EE
:100DE0008840A860606D40F00100606594F85C1078
:100DF0004FF0010808FA01F0304208D02168496933
:100E0000090604D5A860606D40F00200606594F8A2
:100E10005C1004208840304208D0216809688907A6
:100E200004D5A860606D40F00400606594F85C1023
:100E300010208840304218D021680968090714D56D
:100E4000A86020680168490304D50068000308D53C
:100E5000A16C07E00168C90503D4016821F008010D
:100E60000160216C09B12046884794F85C1020206D
:100E70008840304231D021680968C9062DD5A86064
:100E800094F8350005282068016806D0490347D545
:100E9000006800031DD4616C1CE021F016010160A4
:100EA0002068416921F080014161206C08B9A06C83
:100EB00020B12068016821F00801016094F85C10FD
:100EC0003F208840A86084F8358084F83490216DF4
:100ED0001FE0E16B09B120468847606D00282BD0E8
:100EE000606DC00714D0052084F8350020680168C3
:100EF00021F0010101600098401C0090B84203D825
:100F000020680068C007F6D184F8358084F83490F2
:100F1000E16C002910D001B02046BDE8F04308473D
:100F20000168C905D5D4016821F01001016084F879
:100F3000358084F83490CCE7BDE8F8832C0000209D
:100F40002DE9F041044600F0BDF906465CB10220EF
:100F500084F83500002584F834502068016821F0B9
:100F6000010101600DE00120BDE8F08100F0AAF967
:100F7000801B052805D920206065032084F83500F2
:100F8000F2E720680068C007F0D1226811682048A5
:100F90000140D4E901031843D4E90336334318432D
:100FA00063691843A3691843E3691843236A184324
:100FB0000843616A042903D1D4E90B131943084398
:100FC000106020684069666A20F0070130460E43D1
:100FD000012704280CD1A06A0643E06A40B12046EC
:100FE000FFF708FB20B14020606584F83570BAE750
:100FF000206846612046FFF7E9FA94F85C203F211B
:1010000091408160656584F835700020ACE7000090
:101010003F8010F02DE9F0410446866D90F83400D1
:10102000002501280DD0012084F8340094F8357093
:101030000020012F07D084F8340002252846BDE89F
:10104000F0810220FBE7022784F8357060652046B6
:10105000FFF7FAFA94F85C103F208840B0602068EF
:10106000016841F016010160206C20B12068016820
:1010700041F0080101602068016841F00101016050
:10108000DCE700002DE9F84FDFF8F8A10022012489
:1010900003254FF00F090AF1040BAAF1040E00BF5B
:1010A0000B6804FA02F63340B34270D10F7907F0AF
:1010B0000307012F01D0022F16D187684FEA42089B
:1010C00005FA08FC27EA0C07D1F80CC00CFA08FC5A
:1010D0004CEA070CC0F808C04768B7430E79C6F35E
:1010E000001696403E4346600E79F643B6070AD096
:1010F000C7684FEA420C05FA0CF6B7438E6806FA49
:101100000CF63E43C6600E7906F00306022E10D19F
:10111000D60800EB8608D8F8206057074FEAD76C4E
:1011200009FA0CF7BE430F6907FA0CF73743C8F802
:10113000207006684FEA420C05FA0CF7BE430F799F
:1011400007F0030707FA0CF7374307604E6816F4F9
:10115000403F1CD04C4E376847F4804737603668B4
:1011600022F0030706F480460096484E07EB060C73
:10117000DCF8086897073F0F09FA07F826EA08061F
:10118000DFF80C81404503D14FF0000841E072E0E8
:10119000DFF80081404502D14FF0010839E0DFF867
:1011A000F880404502D14FF0020832E0DFF8EC80D1
:1011B000404502D14FF003082BE0DFF8E4804045C2
:1011C00002D14FF0040824E0DFF8D880404502D176
:1011D0004FF005081DE0DFF8D080404502D14FF008
:1011E000060816E0DFF8C480404502D14FF007083A
:1011F0000FE0DFF8BC80404502D14FF0080808E05E
:10120000DFF8B080404502D14FF0090801E04FF00F
:101210000A0808FA07F848EA0608CCF80888DAF855
:1012200000605746D1F804C09E435FEACC2C00D53D
:101230001E433E60DBF800605F46D1F804C09E4369
:101240005FEA8C2C00D51E433E60DEF800607746D6
:10125000D1F804C09E435FEA8C3C00D51E433E603B
:10126000084F083F3E68D1F804C09E435FEACC3C7B
:1012700000D51E433E60521C102AFFF411AFBDE89A
:10128000F88F0000083C0140443802400030014023
:10129000000002400004024000080240000C02402E
:1012A000001002400014024000180240001C0240DE
:1012B00000200240002402400AB181617047090405
:1012C000FBE7000001488068704700002000002014
:1012D0000248816802781144816070472000002034
:1012E0000B4810B5016841F400710160016841F4D8
:1012F00080610160016841F480710160032000F0A9
:101300009FF80F2000F006F800F050F8002010BD04
:10131000003C024030B505461F4887B000240168F4
:1013200041F010010160006806A900F01000009073
:1013300001A800F069F90498A8B100F085F940000F
:101340001649174AB0FBF1F11648491E026040F2F7
:10135000E732C0E90324C0E90114846100F07EFB98
:10136000040003D015E000F06FF9E9E70D4800F044
:10137000A3FB04000DD1362000F034F8102D07D265
:1013800000222946362000F03BF80748056000E0BF
:10139000012407B0204630BD4038024040420F00D3
:1013A00000100040E8050020240000200C4882B016
:1013B000016841F480410160006800F480400090C1
:1013C0000748001F016841F0805101600068002259
:1013D00000F0805000900F21901E02B000F010B875
:1013E00044380240002809DB00F01F02012191402F
:1013F0004009800000F1E020C0F8001170470000B3
:10140000F0B40E4B1B680C46C3F30223C3F107056F
:10141000042D00D90425191D072901D2002300E05D
:10142000DB1E012606FA05F1491E214099409E4027
:10143000761E16403143F0BC01F023BA0CED00E0FB
:10144000064900F0070208684FF6FF03184040EA1B
:101450000220034A10430860704700000CED00E0D2
:101460000000FA052DE9F8431748016841F0805162
:1014700001600068154F00F08050012600903E6426
:10148000FFF720FF05464FF47A78114C05E000BFC6
:10149000FFF718FF401B40450DD86068C003F7D523
:1014A0007E64FFF70FFF0546464607E0FFF70AFF99
:1014B000401BB04202D90320BDE8F8836068800376
:1014C000F4D50020F8E700004038024000000E424A
:1014D000007000402DE9F0470E46050065D0DFF8AA
:1014E0001481D8F80000F7B200F00F00B04207D224
:1014F00088F80070D8F8000000F00F00B04254D116
:1015000028683D4C810712D5400703D5206840F478
:10151000E05020602878000703D5206840F4604040
:1015200020602068A96820F0F00008432060287837
:10153000C0072DD0304968680839012812D0022828
:1015400013D0032811D00968890700292DDA2168F2
:1015500021F0030101432160FFF7B4FE814641F20F
:10156000883A0EE009688903EFE709688901ECE72A
:10157000FFF7A8FEA0EB0901514502D90320BDE801
:10158000F0872068696800F00C00B0EB810FEFD1A4
:10159000D8F80010404601F00F01B14207D907709A
:1015A000006800F00F00B04201D00120E7E7287882
:1015B000400705D52068E96820F4E0500843206022
:1015C0002878000706D52068296920F4604040EAA1
:1015D000C100206000F058F82168084AC1F30311E7
:1015E000515CC8400649086006480068FFF792FE53
:1015F0000020C4E7003C02400838024024350008BF
:101600002C000020240000200F2202600C4A1368E6
:1016100003F003034360136803F0F003836013686F
:1016200003F4E053C36012684FF4E05303EAD202BC
:1016300002610448006800F00F0008607047000075
:1016400008380240003C0240044805490068096827
:10165000044AC1F38221515CC84070472C0000202D
:101660000838024034350008044805490068096814
:10167000044AC1F34231515CC84070472C0000203D
:101680000838024034350008154810B5006810F0DD
:101690000C02144813D01449042A0FD0082A0ED182
:1016A0000F4C241F2268236802F03F025B0207D51B
:1016B0002068C0F38810A0FB010106E0084610BDB9
:1016C0002168C1F38811A1FB00010023FEF73EFE53
:1016D0002168C1F30141491C4900B0FBF1F010BD84
:1016E000083802400024F400001BB7002DE9F84F31
:1016F00004006ED02078DFF84C93C007A9F10405F0
:101700004AD009F104000168C1F38101012908D020
:101710000068C0F3810002280AD1D9F80000400215
:1017200006D52868800337D560680028E1D033E00B
:101730006068B0F5803F10D0B0F5A02F286810D0B9
:1017400020F480302860286820F4802028606068B9
:10175000A8B1FFF7B7FD06460DE0286840F48030D9
:10176000F4E740F480202860F7E700BFFFF7AAFD08
:10177000801B642873D828688003F7D50CE0FFF736
:10178000A1FD064605E000BFFFF79CFD801B642815
:10179000F0D828688003F7D42078DFF8AC8280077F
:1017A0004FF0000A3ED5A748001D016811F00C0F4C
:1017B00008D00068C0F3810002280BD1D9F80000DE
:1017C000400207D42868800716D5E068012800D1B8
:1017D00012E033E1E068B8B10120C8F80000FFF77B
:1017E00071FD064605E000BFFFF76CFD801B022877
:1017F000C0D828688007F7D52868216920F0F8004C
:1018000040EAC10028600DE0C8F800A0FFF75AFDCB
:10181000064604E0FFF756FD801B02281FD8286803
:101820008007F7D42078000722D5864F8748616962
:10183000703771B101210160FFF744FD064604E0F5
:10184000FFF740FD801B022809D838688007F7D5CC
:101850000EE0C0F800A0FFF735FD064605E082E087
:10186000FFF730FD801B02287DD838688007F7D449
:101870002078400768D5DFF8CCB100270BF13C0B8E
:10188000DBF80000C0000BD4DBF8001041F0805101
:10189000CBF80010DBF80000012700F0805000902A
:1018A0006B4E3068C00510D4306840F480703060F2
:1018B000FFF708FD009005E0FFF704FD0099401ACE
:1018C000022850D83068C005F6D55E4EA0686C3648
:1018D00001280FD00528306810D020F001003060BA
:1018E000306820F004003060A068B8B1FFF7EAFC6F
:1018F00000900FE0306840F00100F4E740F0040091
:101900003060F7E7FFF7DEFC0099411A41F28830BA
:10191000814266D830688007F4D50EE0FFF7D2FC2C
:10192000009007E0FFF7CEFC0099411A41F28830A1
:10193000814256D830688007F4D42FB1DBF800100C
:1019400021F08051CBF80010A069C8B33D49091DB2
:101950000968C1F3810102294AD00228504607D004
:10196000C8F8600000E03CE0FFF7ACFC04463BE058
:101970004746C8F86000FFF7A5FC064605E000BF33
:10198000FFF7A0FC801B02282BD828688001F7D421
:10199000D4E907010843A16A2E4A490802EB014134
:1019A000626A41EA8211084394F82C1040EA01610E
:1019B000C9F8001001203866FFF784FC044606E0F1
:1019C0003EE000BFFFF77EFC001B022809D8286814
:1019D0008001F7D534E000BFFFF774FC001B02283C
:1019E00002D90320BDE8F88F28688001F4D427E0ED
:1019F0000128F7D0D9F80000E26900F48001914293
:101A00001CD1226A00F03F01914217D147F6C07104
:101A1000626A0140B1EB821F10D1A26A4FF0FF331E
:101A200000F4403103EB5202B1EB024F06D194F8BF
:101A30002C1000F07060B0EB016F01D00120D1E7F5
:101A40000020CFE70438024000004742800E4742A2
:101A5000007000400000FFFF7047704710B50400A1
:101A600003D094F83D0010B107E0012010BD002024
:101A700084F83C00204600F01EF8022084F83D0067
:101A8000211D206800F080FC012084F8460084F8C5
:101A90003E0084F83F0084F8400084F8410084F858
:101AA000420084F8430084F8440084F8450084F838
:101AB0003D00002010BD704790F83D10012901D075
:101AC00001207047022180F83D100168CA6842F089
:101AD0000102CA6000681149884214D0B0F1804FF9
:101AE00011D00F4988420ED00E4988420BD00E49C2
:101AF000884208D00D49884205D00D49884202D05D
:101B00000C49884204D1816801F00701062903D0FD
:101B1000016841F0010101600020704700000140B0
:101B20000004004000080040000C00400004014098
:101B3000004001400018004070472DE9F041044684
:101B40000068C66805694FF00007A90713D5B107FB
:101B500011D5F91E01610120207720688069800776
:101B6000204602D0FFF7E8FF04E000F07EF82046B0
:101B700000F07CF82777680716D5700714D5216820
:101B80006FF004000861022020772068806910F45B
:101B9000407F204602D0FFF7CFFF04E000F065F859
:101BA000204600F063F82777280715D5300713D5AE
:101BB00021686FF008000861042020772068C06960
:101BC0008007204602D0FFF7B7FF04E000F04DF891
:101BD000204600F04BF82777E80616D5F00614D516
:101BE00021686FF010000861082020772068C06924
:101BF00010F4407F204602D0FFF79EFF04E000F083
:101C000034F8204600F032F82777E80708D0F007CC
:101C100006D021686FF001000861204600F028F826
:101C2000280608D5300606D521686FF080000861C7
:101C30002046FFF711FF680608D5700606D5216813
:101C40006FF040000861204600F01CF8A8060AD595
:101C5000B00608D521686FF0200008612046BDE875
:101C6000F041FFF7FABEBDE8F08170477047000011
:101C700000680349884201D1FFF72ABB7047000082
:101C80000010004070477047704770B5040004D0E2
:101C900094F84100002510B106E0012070BD84F8E1
:101CA0004050204600F024F8242084F841002068A9
:101CB000C16821F40051C160204600F0ABFC2068EF
:101CC000016921F4904101612068416921F02A01F4
:101CD00041612068C16841F40051C1606564202001
:101CE00084F8410084F842006563002070BD000064
:101CF0002DE9F04F87B0054614216846FEF7CFFB6B
:101D00007348DFF8C8811038D5F800C07049032245
:101D10000823DFF8C0E1002406154FF0020A4FF057
:101D200020674FF48079C44556D1D1F800C0A3464E
:101D30004CF0804CC1F800C0096801F08041059169
:101D4000016841F0100101600068029400F0100089
:101D50000590D001CDE9000A69467046CDE903231C
:101D6000FFF790F9DFF874A15B495046CAF80010FC
:101D7000C0E90174C0E90346CAF81440C0E9064945
:101D8000B846CAF820404F46CAF82440FFF7D8F8B2
:101D900008B1FEF76EFC514C4F48C5F83CA06034CA
:101DA0003038CAF83850C4E900084020A060C4E9BF
:101DB00003B6C4F814B0C4E906B7C4F820B020468E
:101DC000C4F824B0FFF7BCF808B1FEF752FCAC63CE
:101DD000A56307B0BDE8F08FDFF80481C44538D1B2
:101DE000D1F800C04CF0004CC1F800C0096801F007
:101DF00000410591016841F0100101600068CDE9E2
:101E0000002A00F01000CDE90430CDE90242694615
:101E10007046FFF737F9DFF8C4802F4908F1C00892
:101E200048314046C8F80010C0E90174C0E90346D3
:101E3000C8F81440C0E90649C8F82040C8F8244052
:101E4000FFF77EF808B1FEF714FC4046C5F83C8069
:101E500039E024498C45BCD11D49091DD1F800C089
:101E60004CF0200CC1F800C0096801F02001059178
:101E7000016841F0400101600068029400F04000F8
:101E800005904FF48440CDE9000A69461648CDE933
:101E90000323FFF7F7F8DFF8588014494046E0E8DD
:101EA0000217402152C040F81449C0E906490462B3
:101EB0004046C8F82440FFF743F808B1FEF7D9FBC5
:101EC0004046C5F83880856383E70000007800400D
:101ED0004038024000100240586002406804002070
:101EE000007C00400014014000180240A064024041
:101EF0008805002090F84230202B01D00220704746
:101F000021B11AB10023036300F00ABC012070471D
:101F100010B51049104C884209D1A1F1400000F0E1
:101F20009FFA0C492022206140390A480DE00949F6
:101F3000483188420DD1A1F1680000F091FA0549BD
:101F400020222039E06001F16800BDE81040FFF771
:101F5000D1BF10BD900300200C00002070472DE978
:101F6000F843044690F84100984616460D4620284E
:101F700002D00220BDE8F88385B17EB10020606404
:101F8000212084F84100FFF79DF9A6848146E6846C
:101F9000A0682027B0F5805F02D003E00120E9E7C8
:101FA000206910B12E4600250EE000260CE08021AD
:101FB000204600F0FDFBA8B9C6B116F8010B216858
:101FC0004860E08C401EE084E08C4B464FF00002FD
:101FD000CDF800800028EAD14FF04001204600F003
:101FE000E7FB40B184F841700320C3E735F8020BEA
:101FF000C0F30800E3E784F841700020BAE7FEE789
:102000000F4810B50D4901600521416000214FF4D2
:1020100000328160C0E9031252014261017601225F
:1020200042768176C17601774177FEF736FD00284A
:1020300003D0BDE81040FEF71CBB10BD006400409B
:1020400000030020104810B50E49016005214160D1
:1020500000214FF04072C0E902124FF400320261D9
:10206000520142610176012242768176C176017782
:102070004177FEF712FD002803D0BDE81040FEF7BF
:10208000F8BA10BD0068004028030020194808B5C0
:10209000016841F400110160016801F40011009130
:1020A000016841F4800101600068002200F48000B2
:1020B000009005210C20FFF7A3F90C20FFF792F9FF
:1020C000002205210E20FFF79BF90E20FFF78AF969
:1020D000002205211120FFF793F91120FFF782F963
:1020E000002205214520FFF78BF9BDE80840452077
:1020F000FFF778B93038024010B58EB01C220B497A
:102100006846FEF79AF90021684600F025FC084C65
:1021100006491C2220601C3107A8FEF78EF9002119
:1021200007A800F019FC60600EB010BDE434000890
:102130000000002010B586B014216846FEF7AFF904
:102140001D48016841F010010160016801F01001B3
:102150000591016841F040010160016801F0400112
:102160000591016841F008010160016801F0080172
:102170000591016841F080010160016801F0800172
:102180000591016841F00201016000680B4C00F00C
:102190000200059001223C212046FFF78DF83C20EB
:1021A0000121CDE900010320CDE902106946204656
:1021B000FEF768FF06B010BD30380240001C024038
:1021C0000C4810B50A4901604FF4E131416000212B
:1021D00081600C22C160C0E904128161C161FFF716
:1021E00054FD002803D0BDE81040FEF742BA10BDF0
:1021F00000780040900300200C4810B50A490160A7
:102200004FF4E1314160002181600C22C160C0E9DE
:1022100004128161C161FFF738FD002803D0BDE8D9
:102220001040FEF726BA10BD007C0040D803002005
:102230000C4810B50A4901604FF4E13141600021BA
:1022400081600C22C160C0E904128161C161FFF7A5
:102250001CFD002803D0BDE81040FEF70ABA10BDEF
:102260000014014020040020FEE7FEE7642000F097
:1022700066FBFBE740F2E73423460C2203A1074844
:10228000FFF76DFE642000F05AFBF5E7414D4D4D20
:102290005753534753444743000000009003002026
:1022A00010B5502080F31188BFF34F8FBFF36F8FAD
:1022B00001F042F818B104494FF080500860002046
:1022C00080F3118810BD000004ED00E030B593B03C
:1022D00030216846FEF7E3F814210CA8FEF7DFF87A
:1022E00020480025016841F080510160006800F03D
:1022F000805011901C48016841F440410160006821
:10230000022400F44040119001200090000401904C
:102310008001CDE9064006200890B420CDE90904EB
:1023200004200B906846FFF7E1F908B172B6FEE7AA
:10233000FFF798F808B172B6FEE70CA90F2081E804
:1023400031004FF4A0500F904FF4805010900521B1
:102350000CA8FFF7BFF8002801D072B6FEE713B053
:1023600030BD000040380240007000400248016863
:1023700041F470010160704788ED00E00148FFF70B
:10238000DCBB0000E8050020F0B50268294C2A4DAE
:102390002A4E2B4F2B4B4FF0804CA04209D060456A
:1023A00007D0A84205D0B04203D0B84201D098422D
:1023B00004D122F0700E4A6842EA0E02A0421BD0FD
:1023C000604519D0A84217D0B04215D0B84213D0FA
:1023D000984211D01C4DA8420ED01C4DA8420BD0E3
:1023E0001B4DA84208D01B4DA84205D01A4DA8424B
:1023F00002D01A4DA84203D122F44075CA682A437C
:102400004D6922F080022A4302608A68C2620A682B
:102410008262A04201D0984201D109690163012181
:1024200041610169C90703D0016921F0010101611E
:10243000F0BD000000000140000400400008004022
:10244000000C0040000401400040014000440140F5
:102450000048014000180040001C004000200040DF
:102460002DE9F043DFF85080002706463C46A8F1EE
:102470000809325D98F8001040468A4216D1351995
:1024800042786978914211D1A97898F80200814286
:102490000CD1284699F8001000F04CFE30B13019EC
:1024A000808930B1A86820F07F4702E0641C102CBE
:1024B000DFDB3846BDE8F0831400002070B5846B84
:1024C0002068406994F84110C0F3C010002521290C
:1024D00004D118B1E584204600F08EF820684069E8
:1024E00094F84210C0F38010222904D118B1E58578
:1024F000204600F05AF8606C40F0100060642046FE
:10250000FFF7C2FB70BD10B50146806B0968096812
:102510004FF00002C9052ED4C28501680C3151E884
:10252000003F23F4807341E80034002CF5D10168AA
:10253000143151E8003F23F0010341E80034002C3E
:10254000F5D10168143151E8003F23F0400341E820
:102550000034002CF5D1202180F84210016B0129B4
:1025600009D101680C3151E8003F23F0100341E824
:102570000034002CF5D14263016B012902D0FFF732
:10258000C7FC10BD818DFFF77EFB10BD10B5806BC1
:1025900001214163016B012902D0FFF7DFFC10BD6F
:1025A000818D4908FFF76FFB10BD01680C3151E8C0
:1025B000002F22F4907241E80023002BF5D101682E
:1025C000143151E8002F22F0010241E80023002BD2
:1025D000F5D1016B012909D101680C3151E8002FB7
:1025E00022F0100241E80023002BF5D1202180F8D1
:1025F000421000210163704701680C3151E8002F3F
:1026000022F0C00241E80023002BF5D1202180F800
:102610004110704770B5044600680169E26821F412
:102620004051114301612169A068E2690843616971
:10263000114308432168CA6849F20C639A43024374
:10264000CA6020684169A26921F440711143416167
:1026500031492068884202D03049884202D1FFF7D0
:1026600003F801E0FEF7F0FFE26900231921642579
:102670003226B2F5004F626828D0A0FB0101930F0B
:102680009200FDF763FE0146B0FBF5F06FF0180213
:10269000504301EB800006EB0010B0FBF5F000F0BA
:1026A000F002B1FBF5F002EB0012B1FBF5F06FF0B8
:1026B0001803584301EB800006EB0010B0FBF5F067
:1026C00000F00F0021681044886070BDA0FB01017C
:1026D00092185B41FDF73AFE0146B0FBF5F00201AE
:1026E000B1FBF5F06FF01803584301EB800006EBE7
:1026F000C000B0FBF5F000F0F80002EB4002B1FBC7
:10270000F5F0584301EB800006EBC000B0FBF5F09C
:1027100000F00700D6E7000000100140001401405F
:1027200038B5816204468285002013466064222207
:1027300084F84220E56B1B4AEA63E56B1A4A2A6477
:10274000E56B1A4AEA64E26B10650A462168E06BA1
:10275000091DFEF75FFC2068016840680090206951
:1027600048B120680C3050E8001F41F4807140E807
:102770000012002AF5D12068143050E8001F41F003
:10278000010140E80012002AF5D12068143050E819
:10279000001F41F0400140E80012002AF5D100205E
:1027A00038BD0000072500088D250008BD2400085D
:1027B0002DE9F843984617460D460446089E24E046
:1027C000701C22D0FEF77EFDA0EB0800B0421AD8A4
:1027D000CEB12068C168490717D5802D15D0402D8E
:1027E00013D00168C94309070FD401680025406868
:1027F00000902046FFF7D9FE0820606484F840501E
:102800000120BDE8F8830320FBE72068006835EA73
:10281000000004D00020B842D2D00020F1E701200F
:10282000F9E70000144910B5002048808880C8806E
:102830001249202201F14000FFF75CFB0F492022E2
:10284000203101F16800FFF755FB0C48403000686B
:10285000C16841F01001C160084888300068C16853
:1028600041F01001C1600548D0300068C16841F0F6
:102870001001C16010BD00000C00002050030020BA
:10288000FEE70907090E002804DB00F1E02080F8CC
:102890000014704700F00F0000F1E02080F8141DD4
:1028A0007047000000B58BB000200121CDE9060182
:1028B0000891009001900290039005900490694661
:1028C0000C48FDF7EBFE0B48FEF736FA02210948EB
:1028D000FDF7D1FE0E200990059069460648FDF7E8
:1028E000DDFE0548FEF728FA02210348FDF7C3FE86
:1028F0000BB000BD0003002028030020FEF7F0FC11
:10290000FFF7E4FCFFF716FCFFF7C0FBFFF758FCEE
:10291000FFF772FCFFF78CFCFFF772FBFFF792FBEF
:10292000FFF780FFFFF7BEFFFFF7E6FB00F00FF8B1
:10293000FEE70021842800D0C11C0846704710B56E
:10294000002800D1012000F051FB002010BD10B57F
:1029500000F074FB002010BD30B585B004460D4674
:102960006169B4F90800002910D0A16971B1FFF7BD
:10297000E0FF6269A1690192029100902B462269F1
:102980002168606800F0A8FC049010E0FFF7D1FF18
:1029900004A901910090208A2B4682B221686068C8
:1029A00000F064FC012802D005B0002030BD04987E
:1029B00005B030BD2DE9F04104460F46194EF568CB
:1029C0003068001D00F044FA48B93068012190F8E1
:1029D0002C0001FA00F0316921EA00003061B4F105
:1029E000FF3F07D137B13068BDE8F041011D0E4807
:1029F00000F075BA2C4430684460AC4206D23068AE
:102A0000011DB06BBDE8F04100F04EBA3068011D09
:102A1000706B00F049FAB06A844200D2B462BDE83B
:102A2000F0810000300000200C07002070B5044643
:102A300000F062FA1C4DA868401CA860286810B11C
:102A4000686938B10CE02C60A868012808D100F052
:102A5000EDF805E02868E16AC06A884200D82C6079
:102A6000686A401C6862E06A01212A69814011435A
:102A700029610E4900EB800001EB8000211D00F070
:102A80002EFA00F059FA686900280CD02868E16A2B
:102A9000C06A884207D206494FF080500860BFF3F1
:102AA0004F8FBFF36F8F70BD3000002030060020C5
:102AB00004ED00E070B50D4C6068002815D00C4E98
:102AC00000F01AFAF068C568281D00F0C1F9A06886
:102AD000401EA0606068401E606000F02DFA28462D
:102AE00000F008F860680028EAD170BD30000020CE
:102AF000F806002010B5044694F8511000290BD0B8
:102B0000012911D0022914D0502080F31188BFF37D
:102B10004F8FBFF36F8FFEE7206B00F023FA204644
:102B2000BDE8104000F01EBA2046BDE8104000F09D
:102B300019BA10BD4FF47051104810F0070F06D0AD
:102B4000C01D20F007000D49411AC1F570510C4A13
:102B50001060002353600144083921F00701183A3E
:102B600011604B600B600B1A43600160406890601D
:102B700050604FF000405061704700002007002077
:102B800084000020074E4FF08054074DFFF792FF5E
:102B900030680128FAD92C60BFF34F8FBFF36F8FD5
:102BA000F4E700003006002004ED00E02DE9F047D6
:102BB0008146099E089D0A9C9A46521E206B00EB96
:102BC000820020F00708002700290CD000202318DD
:102BD0000A5C83F834200A5C12B1401C1028F6D33A
:102BE00084F8437001E084F83470072D00D3062583
:102BF000E5626564A764201D00F053F904F1180034
:102C000000F04FF92461C5F10700A0616462E76438
:102C100084F8507052464946404600F003F920605F
:102C2000002E00D03460BDE8F087000070B50024AD
:102C30000F4D04EB840005EB800000F027F9641CC5
:102C4000072CF6D30B4800F021F90B4800F01EF9D1
:102C50000A4800F01BF90A4800F018F9094800F08A
:102C600015F90948034941631431816370BD0000BF
:102C700030060020BC060020D0060020E40600201C
:102C8000F80600200C0700203000002010B4144982
:102C900000E011460A688242FBD34B6803EB010C4B
:102CA000844503D140681844486008460C68D0F851
:102CB00004C00CEB0003A3420CD10A4B1B689A42E0
:102CC00006D05268624442600A681268026002E0FC
:102CD000036000E00260814200D0086010BC7047D1
:102CE000840000206C0000200749486B0068002821
:102CF00005D0486BC068C0684068886270474FF074
:102D0000FF30886270470000300000200A484068A9
:102D1000B0F1FF3F07D0502080F31188BFF34F8FF1
:102D2000BFF36F8FFEE7502080F31188BFF34F8F02
:102D3000BFF36F8FFEE700008C0000202DE9F0410B
:102D40000546002600F0BEF9344F386808B9FFF791
:102D5000F1FE7869054251D19DB1083515F0070F94
:102D60000FD005F00700C0F10800054415F0070F6B
:102D700007D0502080F31188BFF34F8FBFF36F8FC0
:102D8000FEE7002D3AD07868854237D824490846B6
:102D9000046801E0214604466068A84202D2206827
:102DA0000028F7D13868844228D0086800F1080666
:102DB000206808606068411B10290FD9601910F065
:102DC000070F07D0502080F31188BFF34F8FBFF358
:102DD0006F8FFEE741606560FFF758FF61687868B4
:102DE000401A7860BA68904200D2B86078690843A7
:102DF000606000202060F868401CF86000F006FB6E
:102E000016F0070F07D0502080F31188BFF34F8FC3
:102E1000BFF36F8FFEE73046BDE8F0816C00002005
:102E200084000020001F4FF080730360001F21F01A
:102E300001010160001F0549016014380260001F94
:102E40006FF0020101602038704700000D2D00086E
:102E50000169436882689A60836842685A604A6878
:102E6000824201D182684A60002202610868401EE5
:102E70000860086870470000034B036003F15400CA
:102E80000860802010607047AC00002000F108014D
:102E900041604FF0FF328260C1600161002101603A
:102EA000704700210161704710B4D1F800C0BCF137
:102EB000FF3F02D000F1080202E0026904E01A4676
:102EC00053681C686445FAD953684B6099608A60FE
:102ED000516008610168491C016010BC704742687C
:102EE0004A6093688B6093685960916008610168DB
:102EF000491C016070470000502080F31188BFF327
:102F00004F8FBFF36F8F0A494868401C4860012803
:102F10000CD10848006810F0FF0F07D0502080F354
:102F20001188BFF34F8FBFF36F8FFEE7704700002C
:102F30008C00002004ED00E009494868002806D014
:102F4000401E4860002801D180F31188704750204E
:102F500080F31188BFF34F8FBFF36F8FFEE7000040
:102F60008C00002070B500282AD0A0F10804154D6F
:102F700060686969084207D1502080F31188BFF367
:102F80004F8FBFF36F8FFEE722683AB1502080F376
:102F90001188BFF34F8FBFF36F8FFEE788436060E8
:102FA00000F090F860686968084468602046FFF7A0
:102FB0006DFE2869401C2861BDE8704000F026BA0B
:102FC00070BD00006C0000204FF0E0200021016186
:102FD000816105494FF47A720968B1FBF2F1491E2B
:102FE00041610721016170472C00002010B50246A5
:102FF0000020002A12D00F48006B38B1502080F317
:103000001188BFF34F8FBFF36F8FFEE700F05AF8C0
:1030100000211046FFF7CEFC00F0F8F9002807D198
:1030200005494FF080500860BFF34F8FBFF36F8F9B
:1030300010BD00003000002004ED00E010B586B0A7
:1030400000240594049403AA04A905A8FFF714FF1B
:1030500005980499019102900023009415A1174846
:10306000039A00F039F91649C86208B1012000E05E
:10307000002001280AD0B0F1FF3F19D1502080F381
:103080001188BFF34F8FBFF36F8FFEE7502080F39F
:103090001188BFF34F8FBFF36F8F4FF0FF308862FF
:1030A00001204861CC6006B0BDE8104000F05CB87B
:1030B00006B010BD49444C4500000000852B0008B7
:1030C000300000200248016B491C0163704700007A
:1030D00030000020154A106B002802D00120D0617A
:1030E00070470020D0611069B0FA80F0C0F11F0075
:1030F0000F4900EB800051F8203073B101EB8000E4
:1031000041684968416000F10803994201D149686A
:1031100041604068C06810607047502080F311889B
:10312000BFF34F8FBFF36F8FFEE70000300000202A
:103130003006002070B50B4A00234C1E537004E08B
:10314000C55C56785B1C35445570A342F8DB0844D7
:10315000517810F8010C884201D1012070BD002087
:1031600070BD00000C00002010B582B03848016826
:10317000384A914207D1502080F31188BFF34F8F16
:10318000BFF36F8FFEE700683349884207D15020B4
:1031900080F31188BFF34F8FBFF36F8FFEE72F4986
:1031A00008780190FF200870087800909DF80000D2
:1031B0009DF8002000F0F000904207D0502080F3EE
:1031C0001188BFF34F8FBFF36F8FFEE79DF80000AC
:1031D000234C00F0500020700720A0609DF80000F4
:1031E00010F0800F0BD0A068401EA0609DF800007A
:1031F000400000909DF8000010F0800FF3D1A0680F
:10320000032807D0502080F31188BFF34F8FBFF3FE
:103210006F8FFEE74FF44070A0600198087011486E
:10322000016841F470010160016841F07041016082
:10323000FFF7CAFE00206060FDF72CF80A4801681D
:1032400041F040410160FDF711F802B0002010BDCF
:1032500000ED00E071C20F4170C20F4100E400E0D8
:103260008C00002020ED00E034EF00E02DE9F04F6D
:1032700085B081460F9F0E9E8A4690469B464FEA38
:103280008800FFF75BFD054628000AD05420FFF7B1
:1032900055FD04460CB1256304E02846FFF762FEA5
:1032A00000E000249CB1002084F8510003905B46AC
:1032B000424651460197009602944846FFF776FC35
:1032C0002046FFF7B3FB05B00120BDE8F08F05B045
:1032D0004FF0FF30BDE8F08F70B586B00646DDF8E0
:1032E00028C00C9C0B98002816D0ECB154250495EE
:1032F0002063022084F85100002005AD0390CDF832
:1033000000C0019502943046FFF750FC2046FFF7BD
:103310008DFB059806B070BD502080F31188BFF377
:103320004F8FBFF36F8FFEE7502080F31188BFF3FC
:103330004F8FBFF36F8FFEE72DE9F0470026314F27
:10334000386B002805D0B869401CB8613046BDE82C
:10335000F087F868451CFD609DB9786B006838B14E
:10336000502080F31188BFF34F8FBFF36F8FFEE7BC
:10337000786BB96B7963B863386A401C3862FFF7C1
:10338000B3FCB86ADFF8808085420FD34FF00109A3
:10339000786B006838B1786BC068C4686068854233
:1033A00012D2B86202E04FF0FF30B8623868C06AEB
:1033B00000EB800058F82000012800D90126F869A8
:1033C0000028C3D00126C1E7201DFFF741FDA06AF8
:1033D00018B104F11800FFF73BFDE16A3A6909FAF8
:1033E00001F01043386101EB810008EB8000211DE2
:1033F000FFF775FDE06A3968C96A8842C8D30126BB
:10340000C6E7000030000020300600202DE9F0471C
:103410000024A0462D4D286B002807D0FFF76CFD37
:10342000286B401E2863286B40B149E0502080F390
:103430001188BFF34F8FBFF36F8FFEE7A868002896
:103440003ED0234F3868012600B3A7F1B409F868CD
:10345000C46804F11800FFF7FBFC201DFFF7F8FC1F
:10346000E06A2A6906FA00F11143296100EB800045
:1034700009EB8000211DFFF732FDE06A2968C96A67
:10348000884200D3EE6138680028E0D10CB1FFF724
:103490002BFCAC6944B1FFF74FFF00B1EE61641E35
:1034A000002CF8D10020A861E86948B14FF001086C
:1034B00008494FF080500860BFF34F8FBFF36F8F04
:1034C000FFF73AFD4046BDE8F087000030000020DD
:1034D000E406002004ED00E04FF04070E1EE100A39
:1034E000704700003C35000875220008000000000D
:1034F000000000008000000000000000000000004C
:10350000483500086D220008FDFF000000000000A3
:1035100080000000000000000000000000061016FF
:103520000006101600000000000000000102030465
:1035300006070809000000000102030464656661D3
:10354000756C745461736B005049445F436F6E74C3
:10355000726F6C007435000800000020AC000000A1
:10356000E801000820360008AC0000204C490000AB
:10357000040200080000000000000000000000003D
:1035800010000000000000005700FF0000000000D5
:10359000000000000100000010000000000000001A
:1035A0000024F40000000000000000000000000003
:1035B000000000000000000000000000000000000B
:1035C00000000000000000000000000000000000FB
:1035D00000000000000000000000000000000000EB
:1035E00000000000000000000000000000000000DB
:1035F00000000000000000000000000000000000CB
:1036000000000000AAAAAAAA000000000000000012
:1036100000000000000000000000000000000000AA
:04000005080001AD41
:00000001FF
