:020000040800F2
:10000000484D002085020008EB2D0008352B000824
:10001000E92D0008E7090008893B000800000000FE
:10002000000000000000000000000000C501000802
:10003000D90B0008000000002102000891320008DE
:100040009F0200089F0200089F0200089F0200080C
:100050009F0200089F0200089F0200089F020008FC
:100060009F0200089F0200089F0200089F020008EC
:10007000F90A00089F020008050B00089F0200080B
:100080009F020008110B00089F020008F5090008F4
:10009000E90900089F0200089F0200089F0200086B
:1000A0009F0200089F0200089F0200089F020008AC
:1000B0009F0200089F0200089F0200089F0200089C
:1000C0009F0200089F0200089F0200089F0200088C
:1000D0009F0200089F020008013B00089F020008E1
:1000E0009F0200089F0200089F0200089F0200086C
:1000F0009F0200089F0200089F0200089F0200085C
:100100009F0200089F0200089F0200089F0200084B
:100110009F0200089F0200086D3300089F0200083C
:100120009F0200081D0B00089F0200089F020008A4
:100130009F0200089F0200089F0200080D0A0008A5
:10014000010A00089F0200089F0200089F020008A1
:100150009F020008290B00089F0200089F02000868
:100160009F0200089F0200089F0200089F020008EB
:100170009F0200089F0200089F0200080000000084
:100180009F0200089F0200089F0200089F020008CB
:100190009F0200089F0200089F0200089F020008BB
:1001A00000000000000000009F020008DFF810D0EF
:1001B00000F0DCFB00480047ED4C0008AFF3008086
:1001C000484D00202C4B19680868B0E8F04F80F3C8
:1001D0000988BFF36F8F4FF0000080F311887047DC
:1001E0000000000008480068006880F308884FF0AD
:1001F000000080F3148862B661B6BFF34F8FBFF37F
:100200006F8F00DF00BF00BF08ED00E0DFF80C00DB
:10021000016841F470010160704700BF88ED00E0A3
:10022000EFF30980BFF36F8F134B1A681EF0100FA6
:1002300008BF20ED108A20E9F04F106009B44FF09C
:10024000500080F31188BFF34F8FBFF36F8F05F01D
:10025000F7FA4FF0000080F3118809BC19680868AC
:10026000B0E8F04F1EF0100F08BFB0EC108A80F31A
:100270000988BFF36F8F704778000020EFF3058087
:10028000704700000648804706480047FEE7FEE743
:10029000FEE7FEE7FEE7FEE7FEE7FEE7FEE7FEE736
:1002A0005D330008AD0100082DE9F05F0546002030
:1002B00092469B4688460646814640241BE02846D7
:1002C00041464746224600F01BFA53465A46C01A9A
:1002D000914110D311461846224600F002FA2D1A19
:1002E00067EB01084F4622460120002100F0F9F992
:1002F00017EB00094E41201EA4F10104DFDC484643
:1003000031462A464346BDE8F09F40EA01039B0779
:1003100003D009E008C9121F08C0042AFAD203E07A
:1003200011F8013B00F8013B521EF9D27047D2B2DE
:1003300001E000F8012B491EFBD270470022F6E7CE
:1003400010B513460A4604461946FFF7F0FF20464B
:1003500010BD2DE9FE4F804681EA0300C00F0C4618
:10036000009021F0004123F00045B8EB0200A941C4
:1003700005D24046214690461C460B46024623F0D5
:100380000040104347D0270DC7F30A00C3F30A51BA
:100390000290401A019040286BDAC3F3130040F436
:1003A000801B0098924620B10023D2EB030A63EB36
:1003B0000B0B01985946C0F14002504600F091F9EC
:1003C00006460D4650465946019A00F0A9F910EB31
:1003D00008006141002487EA115284EAE7731A4356
:1003E00040D0009A62B3019A012A4FEA075215DC05
:1003F000001B61EB02014FF0004202EA0752CDE917
:100400000042001C41F5801132462B4600F0E0F915
:1004100003B0BDE8F08F40462146F9E7001B61EBD1
:100420000201001C41F5801300185B412018A2F561
:10043000001747EB030140EAD570B6196D4111E092
:100440006D084FEA360645EAC0754FEA0752001BB1
:1004500061EB0201001C41F5801149084FEA3000B0
:100460000019514132462B4603B0BDE8F04F00F071
:10047000A0B90098012240000023D0EB020263EBF8
:10048000E073009821464FEAE074B8EB000061EB9E
:100490000401E9E783F000435BE781F0004158E79E
:1004A0002DE9FE4F81EA030404F0004421F00041ED
:1004B00000944FF0000B23F0004350EA01045ED09B
:1004C00052EA03045BD0C3F30A54C1F30A552C4427
:1004D000A4F2F3340194A0FB0254C1F3130141F4DC
:1004E0008011C3F3130343F4801301FB024400FBA8
:1004F000034E840A970A44EA815447EA8357A4FBCF
:10050000076802958D0A05FB07854FEA932C04FBCB
:100510000C542705029D4FEA065847EA1637B5EBFB
:1005200008056EEB070C870E920E47EA811742EA28
:100530008312A7FB0201B6EB0B0164EB00042B0D49
:1005400043EA0C335E1844EB1C50DA465146E7FB95
:100550000201C5F313044FEA0B3343EA14534FEA85
:100560000432019C43EA0603A4F10C040294009CAB
:10057000CDE900B400F02CF903B0BDE8F08F002005
:100580000146F9E72DE9F04D81EA030404F0004B40
:1005900021F0004514464FF0000A23F0004150EAD4
:1005A000050220D054EA01021DD0C5F30A570246C5
:1005B000C5F31303C1F31300C1F30A5640F48015C9
:1005C00043F48013A7EB0608101BD64608F2FD384B
:1005D00073EB050002D308F1010801E092185B41BA
:1005E000B8F1000F03DA00200146BDE8F08D0020CD
:1005F0004FF48011064684460EE0171B73EB050787
:1006000005D3121B63EB050306434CEA010C4908B2
:100610004FEA300092185B4150EA0107EDD152EAEF
:10062000030012D082EA040083EA0501084305D0E2
:10063000101BAB4106D20122002306E000224FF03E
:10064000004302E06FF0010253101AEB06004CEB7E
:10065000085110EB0A0041EB0B01BDE8F04D00F032
:10066000A8B80EB5C10F80EAE0700844CA0700219F
:1006700040F233438DE80E000A460B4600F0A8F81E
:1006800003B000BD00F0004230F000400AD0C10DC0
:1006900001F56071C0F3160042EA0151C20840073B
:1006A0001143704700200146704701F0004330B409
:1006B00021F0004150EA010206D00A0DA2F5607255
:1006C000C1F31301002A02DC30BC00207047440F44
:1006D00044EAC104C100E01830BC00EBC25000F095
:1006E00031B8202A04DB203A00FA02F100207047DA
:1006F0009140C2F1200320FA03F319439040704760
:10070000202A04DB203A21FA02F00021704721FA66
:1007100002F3D040C2F120029140084319467047CD
:10072000202A06DBCB17203A41FA02F043EAE073B5
:1007300006E041FA02F3D040C2F1200291400843A2
:10074000194670470029A8BF7047401C490008BFE0
:1007500020F00100704710B4B0FA80FC00FA0CF0F1
:1007600050EA010404BF10BC704749B1CCF1200429
:1007700021FA04F411FA0CF118BF012121430843B6
:10078000A3EB0C01CB1D4FEA00614FEA102042BFE2
:10079000002010BC704700EBC35010440029A4BFD8
:1007A00010BC7047401C490008BF20F0010010BC7D
:1007B000704710B5141E73F1000408DA401C41F1B3
:1007C000000192185B411A4301D120F0010010BDD5
:1007D0002DE9F04D92469B4611B1B1FA81F202E04B
:1007E000B0FA80F220329046FFF77BFF04460F46B6
:1007F00040EA0A0041EA0B0153465A46084313D027
:10080000114653EA010019D0C8F140025046FFF7E3
:1008100077FF05460E46504659464246FFF761FFB0
:10082000084305D0012004E020463946BDE8F08D9C
:100830000020054346EAE0762C4337430A986305D7
:10084000E40AA0EB08000022FD0A44EA47540A30FB
:1008500002D500200146E9E7010510196941DDE9EB
:10086000084500196941BDE8F04DA2E770B521F0D7
:10087000004303430CD0C1F30A550024D5EB040513
:1008800064EB0403D617AD1AB34102DB0020014626
:1008900070BD201841EB025170BD2DE9F04D0023D1
:1008A0001A461B1A8A4103DB00200146BDE8F08D81
:1008B000C1F30A52C1F3130141F480154FF0000B4C
:1008C000D10702D100186D41521E0027044640F2A4
:1008D000FF11384601EB620A3E4680460246002080
:1008E0004FF48011FFF70CFFC2197141BB1846EBA2
:1008F0000100B4EB030C75EB000C04D3E41A65EBB8
:10090000000517460E46241908F101006D41804686
:100910003428E3DDF91946EB0600091BA84103D290
:100920004FF0FF32134601E0002213461BEB070095
:1009300046EB0A51BDE8F04DFFF73BBF30B5041E52
:1009400071F1000404DB4FF00044404264EB01010C
:10095000141E73F1000405DB1C464FF000435242A5
:1009600063EB0403994208BF904230BD064C074D2B
:1009700006E0E06840F0010394E80700984710346F
:10098000AC42F6D3FFF716FC005E0008205E0008BC
:1009900070B58C1810F8015B15F0070301D110F841
:1009A000013B2A1106D110F8012B03E010F8016B6E
:1009B00001F8016B5B1EF9D12B0705D40023521EF1
:1009C0000DD401F8013BFAE710F8013BCB1A921C59
:1009D00003E013F8015B01F8015B521EF9D5A14257
:1009E000D8D3002070BDFEE7014800F07CBA0000BB
:1009F000B8050020014800F076BA0000B8050020D4
:100A0000014800F070BA0000E0050020014800F045
:100A10006ABA0000E0050020F8B506AC4FF0010C02
:100A200094E8E0000D4CC4F800C04FF0000CC4F88E
:100A300008C0C4F80CC04FF0080CC4F810C0084C33
:100A400020706170A270E37025716671A7716B46AA
:100A500022460249034800F0DCF8F8BDC4470020F4
:100A6000EA000020B805002010B5002444EA036322
:100A700043EA02422DED048B42EA0121014301D5F4
:100A8000641E00E00124C1F3C750C1F3160100EE5B
:100A9000101A9FED161A7F38B8EE400AC0EE010A10
:100AA000B7EE000A30EE808AFFF7DBFD41EC110B58
:100AB0009FED0F0B03F098F9B0EE409A00EE104A4C
:100AC000F0EE609AB8EEC00A20EE080A10EE100AA6
:100AD000FFF7D8FD53EC192BFFF7E2FCFFF7E5FD1C
:100AE000BDEC048B00EE100A10BD0000FEFFFF4AB3
:100AF0000000000000000040014800F003BD0000BD
:100B0000E8070020014800F0FDBC00008807002035
:100B1000014800F0F7BC000048080020014800F040
:100B2000F1BC000008090020014800F0EBBC000007
:100B3000A808002001681823CAB2103AB2FBF3F2E9
:100B4000054B6FF30901032A9B5CC36500D9091D9E
:100B50008165084670470000085D000810B5014631
:100B600000208B698A6A4FF0C07453B1B3F5005FFF
:100B700015D072B1012A0CD0022A0AD0032A09D159
:100B800004E01AB1012A06D0022A03D1C96AC901B8
:100B900000D5012010BDC96AA142FAD010BD002ABB
:100BA000F7D0012AF2D0022AF3D0032AF3D010BDE5
:100BB00030B50468256825F48025256004686360E5
:100BC0008368402B036803D099600068C26030BD21
:100BD0009A600068C16030BD704772B6FEE7B5EE3E
:100BE000C00AF1EE10FA01DAB1EE400A704790F84F
:100BF0002020012A07D0022A05D0416A41F4802131
:100C0000416201207047006842690A434261002046
:100C10007047F0B590F820500468A468012D05D005
:100C2000022D03D0416A41F4802157E014F0406F57
:100C300001D1E5004FD5C4F301640125A5401D6035
:100C40008D684FF4C0739DB1CE6835434E6845EA58
:100C5000C605066803EB0417F5514FF4C275076823
:100C600005EB04150E697E51097D012905D009E0C7
:100C70000E88CD6845EA4655EBE701684E5946F4C3
:100C800080764E511179D579567941EA0561957989
:100C90002D0445EA062529434FF4C676056806EB80
:100CA0000416A9511178D57841EA056195785278F2
:100CB0002D0445EA022211434FF4C475026805EB86
:100CC00004155151006803EB0411425842F001022F
:100CD00042500020F0BD416A41F400114162012000
:100CE000F0BD000010B590F82020012A07D0022A9C
:100CF00005D0416A41F480214162012010BD3B488A
:100D0000D0F8002242F00102C0F80022D0F8002200
:100D100022F47C52C0F80022D0F800224B6A42EA4A
:100D20000322C0F800220A7D02F01F0301229A402C
:100D3000D0F81C329343C0F81C32CB69B3B9D0F859
:100D40000C329343C0F80C328C894B6864F31F4318
:100D50004C6900EBC404C4F840320C890B6864F39E
:100D60001F434C6900EBC404C4F84432CB69012B27
:100D700016D1D0F80C321343C0F80C320C884B68F3
:100D800064F31F434C6900EBC404C4F840320C897F
:100D9000CB6864F31F434C6900EBC404C4F84432CD
:100DA0008B69002BD0F804320ED01343C0F8043204
:100DB0000B69002BD0F8143208D01343C0F814325A
:100DC000096A012904D008E09343EFE79343F5E76C
:100DD000D0F81C121143C0F81C12D0F8001221F0F8
:100DE0000101C0F80012002010BD000000640040A6
:100DF000704770B590F82040012C05D0022C03D02C
:100E0000416A41F4802128E0046809B32469A407F9
:100E100020D04FF4D874056804EB01142D5915F057
:100E20000405956005682D591AD0ED0855600568D0
:100E30002C5904F00204D4604FF4DA74056804EB12
:100E400001142E5906F00F06082E0CD308250DE0CC
:100E5000E468DCE7416A41F400114162012070BDA1
:100E60006D0D1560E3E72D5905F00F051561056857
:100E70002D59C5F30725956105682C59240C54613B
:100E80004FF4DC72046802EB0112A4581C70046871
:100E9000A458240A5C700468A458240C9C7004684C
:100EA000A258120EDA704FF4DE72046802EB0112DF
:100EB000A4581C710468A458240A5C710468A458DE
:100EC000240C9C710468A258120EDA71006829B1D2
:100ED000016941F020010161002070BDC16841F04D
:100EE0002001C160F8E72DE9F05F054600680024A5
:100EF0004669D0F804908768D0F80CB0D0F810A0FC
:100F0000D0F81880F10748D0F90714D0012181608A
:100F1000B80703D5284600F094FA0CE0780702D50C
:100F20004FF4006407E0380702D54FF4805402E024
:100F3000284600F085FAF80516D529684FF4807028
:100F40008860B80503D5284600F07DFA0CE07805E6
:100F500002D544F4005407E0380502D544F4804437
:100F600002E0284600F06EFAF80316D529684FF41F
:100F700080308860B80303D5284600F066FA0CE09C
:100F8000780302D544F4004407E0380302D544F462
:100F9000803402E0284600F057FA300707D55FEAB0
:100FA000CB6004D52968102044F40074C860700731
:100FB0004FF0080707D55FEA0B7004D52868C760B3
:100FC000284600F0A9F9B00706D52868C068800750
:100FD00002D0284600F0A2F9700607D55FEACA6081
:100FE00004D52968102044F480640861B00607D550
:100FF0005FEA0A7004D528680761284600F0F0F916
:10100000F00606D528680069800702D0284600F05F
:10101000E8F9B00308D55FEAC96005D52968102052
:101020004860284600F0DEF9F00307D55FEA097052
:1010300004D528684760284600F008FA300446D5F1
:101040005FEA497040D5F00504D55FEAC87001D069
:1010500044F00104B00504D55FEA887001D544F07E
:101060000204700504D55FEA487001D544F0040419
:10107000300529D518F0700F26D008F070004028F0
:1010800015D006DC102809D020280AD0302816D127
:101090000AE050280ED0602811D10EE044F0080478
:1010A0000DE044F010040AE044F0200407E044F0AE
:1010B000400404E044F0800401E044F480742868B3
:1010C000816921F070018161296804204860002C49
:1010D00005D0686A204368622846FFF789FEBDE8AC
:1010E000F09F70B5040003D094F8200010B104E024
:1010F000012070BD204600F081F82068016841F0B1
:101100000101016000F090FC0546052604E000F0B6
:101110008BFC401B0A2811D820684068C007F6D015
:101120002068016821F00201016000F07DFC0546A5
:101130000BE000F079FC401B0A2806D9606A40F4F5
:101140000030606284F82060D2E720684068800741
:10115000EFD4207E0128206801683DD021F0800175
:101160000160607E01282068016838D021F04001CC
:101170000160A07E01282068016833D021F02001A1
:101180000160E07E0128206801682ED041F0100146
:101190000160207F01282068016829D021F0080122
:1011A0000160607F01282068016824D021F00401DB
:1011B0000160D4E902010843D4E904121143084351
:1011C0006168491E08432168C861002060620120EF
:1011D00084F82000002070BD41F08001C0E741F09C
:1011E0004001C5E741F02001CAE721F01001CFE737
:1011F00041F00801D4E741F00401D9E7F0B587B028
:10120000044614216846FFF799F83E4B3E48DFF844
:10121000F0E01968D4F800C03B4A032502260927EC
:1012200010300024491CF4452AD11960012907D146
:10123000016841F000710160006800F000700590E5
:10124000106840F0080010601068CDE9005600F00A
:101250000800CDE9047069462C48CDE9024500F04C
:10126000C3FA00220521132000F07CFC132000F0BB
:101270006BFC00220521142000F074FC14203BE0DC
:10128000DFF88CE0F44539D1D0F800C04CF0806C28
:10129000C0F800C0D0F800C001290CF0806CCDF877
:1012A00014C0196007D1016841F000710160006845
:1012B00000F000700590106840F0020010601068A7
:1012C00002AB00F0020005904FF44050CDE900065B
:1012D00083E8B00069460F4800F086FA0022052135
:1012E0003F2000F03FFC3F2000F02EFC00220521B3
:1012F000402000F037FC402000F026FC07B0F0BD95
:10130000006400405000002030380240000C0240D1
:1013100000680040000402407047000030B58DB006
:1013200003AB05AA0021FFF764FD059840F20322F4
:10133000294CA0F2032190421FD006DCA0F50071D9
:1013400001391AD0012916D117E0012915D0A1F5CC
:101350004071FE390FD1BDF80C0040BA6080BDF875
:101360000E0040BAA080BDF8100040BAE080BDF881
:10137000120040BA20810DB030BD401EC0B2174DE2
:1013800000EB8002207005EB420135F812300B8132
:10139000BDF80C305BBA25F81230BDF80E2052BAF9
:1013A0004A80BDF8102052BA8A809DF812208A71B6
:1013B000B1F9021000EE101AB8EEC00A03F016FEE2
:1013C000BDEEC00A217801EB810110EE100A05EB99
:1013D00041014880CFE70000E00000208447002062
:1013E000704770477047000070B5044690F82000C1
:1013F000012804D0606A40F40020606218E00220F6
:1014000084F820002068016821F00101016000F0EB
:101410000BFB05460EE000BF00F006FB401B0A2850
:1014200008D9606A40F400306062052084F820002A
:10143000012070BD20684068C007EDD1606270BDBA
:1014400070477047704770477047704770472DE985
:10145000F0410446876D00F0E7FA064694F835003F
:101460000025022806D08020606584F834500120D1
:10147000BDE8F0812068016821F016010160206854
:10148000416921F080014161206C08B9A06C20B154
:101490002068016821F0080101602068016821F0DE
:1014A000010101600CE000F0BFFA801B052807D99C
:1014B00020206065032084F8350084F83450D7E795
:1014C00020680068C007EED194F85C103F20884087
:1014D000B860012084F8350084F834500020C7E754
:1014E00090F83510022903D0802141650120704712
:1014F000052180F835100068016821F001010160C4
:10150000002070472DE9F84304464FF00009CDF85C
:10151000009063484FF41651A56D0068B0FBF1F7D9
:101520002E6894F85C10082000FA01F131420FD0C7
:1015300021680A6852070BD50A6822F004020A6083
:1015400094F85C108840A860606D40F00100606510
:1015500094F85C104FF0010808FA01F0304208D00E
:1015600021684969090604D5A860606D40F0020051
:10157000606594F85C1004208840304208D02168EF
:101580000968890704D5A860606D40F004006065B3
:1015900094F85C1010208840304218D02168096807
:1015A000090714D5A86020680168490304D50068BC
:1015B000000308D5A16C07E00168C90503D40168E0
:1015C00021F008010160216C09B12046884794F898
:1015D0005C1020208840304231D021680968C9065B
:1015E0002DD5A86094F8350005282068016806D03C
:1015F000490347D5006800031DD4616C1CE021F04D
:10160000160101602068416921F080014161206C70
:1016100008B9A06C20B12068016821F008010160C0
:1016200094F85C103F208840A86084F8358084F8E6
:101630003490216D1FE0E16B09B120468847606D51
:1016400000282BD0606DC00714D0052084F8350029
:101650002068016821F0010101600098401C0090A1
:10166000B84203D820680068C007F6D184F83580F6
:1016700084F83490E16C002910D001B02046BDE818
:10168000F04308470168C905D5D4016821F010016D
:10169000016084F8358084F83490CCE7BDE8F883A5
:1016A000740000202DE9F041044600F0BDF9064623
:1016B0005CB1022084F83500002584F8345020689D
:1016C000016821F0010101600DE00120BDE8F08119
:1016D00000F0AAF9801B052805D9202060650320A9
:1016E00084F83500F2E720680068C007F0D122686E
:1016F000116820480140D4E901031843D4E90336B6
:101700003343184363691843A3691843E3691843D3
:10171000236A18430843616A042903D1D4E90B13EF
:1017200019430843106020684069666A20F0070189
:1017300030460E43012704280CD1A06A0643E06A14
:1017400040B12046FFF70AFA20B14020606584F8D6
:101750003570BAE7206846612046FFF7EBF994F848
:101760005C203F2191408160656584F835700020E0
:10177000ACE700003F8010F02DE9F0410446866D93
:1017800090F83400002501280DD0012084F83400A1
:1017900094F835700020012F07D084F8340002251A
:1017A0002846BDE8F0810220FBE7022784F8357067
:1017B00060652046FFF7FCF994F85C103F208840F4
:1017C000B0602068016841F016010160206C20B112
:1017D0002068016841F0080101602068016841F05B
:1017E00001010160DCE700002DE9F84FDFF8F8A106
:1017F0000022012403254FF00F090AF1040BAAF17E
:10180000040E00BF0B6804FA02F63340B34270D1F5
:101810000F7907F00307012F01D0022F16D1876837
:101820004FEA420805FA08FC27EA0C07D1F80CC079
:101830000CFA08FC4CEA070CC0F808C04768B7432C
:101840000E79C6F3001696403E4346600E79F64385
:10185000B6070AD0C7684FEA420C05FA0CF6B74340
:101860008E6806FA0CF63E43C6600E7906F0030653
:10187000022E10D1D60800EB8608D8F82060570752
:101880004FEAD76C09FA0CF7BE430F6907FA0CF759
:101890003743C8F8207006684FEA420C05FA0CF787
:1018A000BE430F7907F0030707FA0CF737430760C9
:1018B0004E6816F4403F1CD04C4E376847F48047C2
:1018C0003760366822F0030706F480460096484EDB
:1018D00007EB060CDCF8086897073F0F09FA07F8D2
:1018E00026EA0806DFF80C81404503D14FF00008D6
:1018F00041E072E0DFF80081404502D14FF001087D
:1019000039E0DFF8F880404502D14FF0020832E0BC
:10191000DFF8EC80404502D14FF003082BE0DFF800
:10192000E480404502D14FF0040824E0DFF8D8807D
:10193000404502D14FF005081DE0DFF8D08040455A
:1019400002D14FF0060816E0DFF8C480404502D10E
:101950004FF007080FE0DFF8BC80404502D14FF0A0
:10196000080808E0DFF8B080404502D14FF00908D0
:1019700001E04FF00A0808FA07F848EA0608CCF830
:101980000888DAF800605746D1F804C09E435FEA41
:10199000CC2C00D51E433E60DBF800605F46D1F8DA
:1019A00004C09E435FEA8C2C00D51E433E60DEF8E7
:1019B00000607746D1F804C09E435FEA8C3C00D5B6
:1019C0001E433E60084F083F3E68D1F804C09E4366
:1019D0005FEACC3C00D51E433E60521C102AFFF447
:1019E00011AFBDE8F88F0000083C014044380240C8
:1019F00000300140000002400004024000080240A4
:101A0000000C024000100240001402400018024086
:101A1000001C024000200240002402400AB1816103
:101A200070470904FBE70000014880687047000028
:101A30006800002002488168027811448160704784
:101A4000680000200B4810B5016841F40071016086
:101A5000016841F480610160016841F480710160B6
:101A6000032000F09FF80F2000F006F800F050F877
:101A7000002010BD003C024030B505461F4887B02D
:101A80000024016841F010010160006806A900F01F
:101A90001000009001A800F069F90498A8B100F0C6
:101AA00085F940001649174AB0FBF1F11648491E66
:101AB000026040F2E732C0E90324C0E90114846106
:101AC00000F07EFB040003D015E000F06FF9E9E7B9
:101AD0000D4800F0A3FB04000DD1362000F034F8CF
:101AE000102D07D200222946362000F03BF8074887
:101AF000056000E0012407B0204630BD40380240B8
:101B000040420F00001000409C0900206C000020A3
:101B10000C4882B0016841F480410160006800F423
:101B2000804000900748001F016841F0805101602B
:101B30000068002200F0805000900F21901E02B03B
:101B400000F010B844380240002809DB00F01F0202
:101B5000012191404009800000F1E020C0F800110F
:101B600070470000F0B40E4B1B680C46C3F3022311
:101B7000C3F10705042D00D90425191D072901D239
:101B8000002300E0DB1E012606FA05F1491E214074
:101B900099409E40761E16403143F0BC02F020B8BA
:101BA0000CED00E0064900F0070208684FF6FF035D
:101BB000184040EA0220034A1043086070470000C2
:101BC0000CED00E00000FA052DE9F8431748016824
:101BD00041F0805101600068154F00F080500126EF
:101BE00000903E64FFF720FF05464FF47A78114CD1
:101BF00005E000BFFFF718FF401B40450DD86068A7
:101C0000C003F7D57E64FFF70FFF0546464607E0A1
:101C1000FFF70AFF401BB04202D90320BDE8F8835A
:101C200060688003F4D50020F8E7000040380240E7
:101C300000000E42007000402DE9F0470E460500FE
:101C400065D0DFF81481D8F80000F7B200F00F007B
:101C5000B04207D288F80070D8F8000000F00F00FA
:101C6000B04254D128683D4C810712D5400703D5B6
:101C7000206840F4E05020602878000703D52068F1
:101C800040F4604020602068A96820F0F00008431C
:101C900020602878C0072DD03049686808390128AD
:101CA00012D0022813D0032811D00968890700290F
:101CB0002DDA216821F0030101432160FFF7B4FE12
:101CC000814641F2883A0EE009688903EFE7096826
:101CD0008901ECE7FFF7A8FEA0EB0901514502D905
:101CE0000320BDE8F0872068696800F00C00B0EBC5
:101CF000810FEFD1D8F80010404601F00F01B1423A
:101D000007D90770006800F00F00B04201D0012031
:101D1000E7E72878400705D52068E96820F4E05017
:101D2000084320602878000706D52068296920F438
:101D3000604040EAC100206000F058F82168084A7D
:101D4000C1F30311515CC8400649086006480068A9
:101D5000FFF792FE0020C4E7003C02400838024032
:101D6000105D0008740000206C0000200F2202604B
:101D70000C4A136803F003034360136803F0F00395
:101D80008360136803F4E053C36012684FF4E053B8
:101D900003EAD20202610448006800F00F00086004
:101DA0007047000008380240003C024004480549E2
:101DB00000680968044AC1F38221515CC840704739
:101DC0007400002008380240205D000804480549DE
:101DD00000680968044AC1F34231515CC840704749
:101DE0007400002008380240205D0008154810B536
:101DF000006810F00C02144813D01449042A0FD0C4
:101E0000082A0ED10F4C241F2268236802F03F02DB
:101E10005B0207D52068C0F38810A0FB010106E033
:101E2000084610BD2168C1F38811A1FB0001002301
:101E3000FEF73AFA2168C1F30141491C4900B0FBA1
:101E4000F1F010BD083802400024F400001BB70078
:101E50002DE9F84F04006ED02078DFF84C93C007CE
:101E6000A9F104054AD009F104000168C1F3810118
:101E7000012908D00068C0F3810002280AD1D9F8EE
:101E80000000400206D52868800337D56068002826
:101E9000E1D033E06068B0F5803F10D0B0F5A02FFE
:101EA000286810D020F480302860286820F4802032
:101EB00028606068A8B1FFF7B7FD06460DE0286806
:101EC00040F48030F4E740F480202860F7E700BF5A
:101ED000FFF7AAFD801B642873D828688003F7D514
:101EE0000CE0FFF7A1FD064605E000BFFFF79CFDF3
:101EF000801B6428F0D828688003F7D42078DFF8A6
:101F0000AC8280074FF0000A3ED5A748001D01684B
:101F100011F00C0F08D00068C0F3810002280BD12B
:101F2000D9F80000400207D42868800716D5E06879
:101F3000012800D112E033E1E068B8B10120C8F80F
:101F40000000FFF771FD064605E000BFFFF76CFDDE
:101F5000801B0228C0D828688007F7D52868216927
:101F600020F0F80040EAC10028600DE0C8F800A0A9
:101F7000FFF75AFD064604E0FFF756FD801B0228D6
:101F80001FD828688007F7D42078000722D5864F0D
:101F900087486169703771B101210160FFF744FD25
:101FA000064604E0FFF740FD801B022809D8386888
:101FB0008007F7D50EE0C0F800A0FFF735FD064614
:101FC00005E082E0FFF730FD801B02287DD83868ED
:101FD0008007F7D42078400768D5DFF8CCB1002718
:101FE0000BF13C0BDBF80000C0000BD4DBF8001059
:101FF00041F08051CBF80010DBF80000012700F021
:10200000805000906B4E3068C00510D4306840F4AA
:1020100080703060FFF708FD009005E0FFF704FDD9
:102020000099401A022850D83068C005F6D55E4E97
:10203000A0686C3601280FD00528306810D020F039
:1020400001003060306820F004003060A068B8B152
:10205000FFF7EAFC00900FE0306840F00100F4E781
:1020600040F004003060F7E7FFF7DEFC0099411A0A
:1020700041F28830814266D830688007F4D50EE09E
:10208000FFF7D2FC009007E0FFF7CEFC0099411A61
:1020900041F28830814256D830688007F4D42FB19D
:1020A000DBF8001021F08051CBF80010A069C8B314
:1020B0003D49091D0968C1F3810102294AD002285E
:1020C000504607D0C8F8600000E03CE0FFF7ACFCE9
:1020D00004463BE04746C8F86000FFF7A5FC06460B
:1020E00005E000BFFFF7A0FC801B02282BD8286862
:1020F0008001F7D4D4E907010843A16A2E4A4908B0
:1021000002EB0141626A41EA8211084394F82C1003
:1021100040EA0161C9F8001001203866FFF784FC2D
:10212000044606E03EE000BFFFF77EFC001B0228ED
:1021300009D828688001F7D534E000BFFFF774FCA8
:10214000001B022802D90320BDE8F88F286880010F
:10215000F4D427E00128F7D0D9F80000E26900F4B0
:10216000800191421CD1226A00F03F01914217D1B7
:1021700047F6C071626A0140B1EB821F10D1A26ABA
:102180004FF0FF3300F4403103EB5202B1EB024F4A
:1021900006D194F82C1000F07060B0EB016F01D004
:1021A0000120D1E70020CFE7043802400000474279
:1021B000800E4742007000400000FFFF70477047EC
:1021C00010B5040003D094F83D0010B107E00120E1
:1021D00010BD002084F83C00204600F01EF80220CC
:1021E00084F83D00211D206801F0C6F8012084F824
:1021F000460084F83E0084F83F0084F8400084F8EC
:10220000410084F8420084F8430084F8440084F8D4
:10221000450084F83D00002010BD704790F83D1047
:10222000012901D001207047022180F83D1001688A
:10223000CA6842F00102CA6000681149884214D09D
:10224000B0F1804F11D00F4988420ED00E4988421C
:102250000BD00E49884208D00D49884205D00D495F
:10226000884202D00C49884204D1816801F00701FC
:10227000062903D0016841F0010101600020704788
:10228000000001400004004000080040000C004035
:1022900000040140004001400018004070472DE953
:1022A000F04104460068C66805694FF00007A907B9
:1022B00013D5B10711D5F91E0161012020772068DF
:1022C00080698007204602D0FFF7E8FF04E000F0B5
:1022D0007EF8204600F07CF82777680716D570074F
:1022E00014D521686FF0040008610220207720686F
:1022F000806910F4407F204602D0FFF7CFFF04E052
:1023000000F065F8204600F063F82777280715D518
:10231000300713D521686FF008000861042020778A
:102320002068C0698007204602D0FFF7B7FF04E0AD
:1023300000F04DF8204600F04BF82777E80616D558
:10234000F00614D521686FF010000861082020778E
:102350002068C06910F4407F204602D0FFF79EFF3E
:1023600004E000F034F8204600F032F82777E80760
:1023700008D0F00706D021686FF001000861204600
:1023800000F028F8280608D5300606D521686FF039
:10239000800008612046FFF711FF680608D5700627
:1023A00006D521686FF040000861204600F01CF857
:1023B000A8060AD5B00608D521686FF0200008618C
:1023C0002046BDE8F041FFF7FABEBDE8F081704756
:1023D0007047000000680349884201D1FFF72ABB1B
:1023E00070470000001000407047704770470000C1
:1023F000F8B5016804460868CA684B6910F00F0F09
:102400004FF0000559D003F0010602F490773743EE
:1024100065D0C10705D0D10503D5616C41F001013C
:102420006164410705D5D90703D0616C41F0020111
:102430006164810705D5D90703D0616C41F00401BF
:102440006164010707D502F02001314303D0616CBC
:1024500041F008016164616C00293AD0800604D51E
:10246000900602D5204601F0C7F920684069616CEA
:10247000C0F38010090700D460B3204601F087F94B
:1024800020684069400621D52068143050E8001FBC
:1024900021F0400140E80012002AF5D1E06BA8B11C
:1024A0006E490165E06BFFF71BF8002811D0E06B67
:1024B000016D01B0BDE8F040084783060FD59306D3
:1024C0000DD52046BDE8F84001F096B92046FFF74B
:1024D0008DFFF8BD2046FFF789FF6564F8BD266BC8
:1024E0002023012E7DD1C6067BD5D60679D5086876
:1024F0004868009048694FF00206400641D5E16BFC
:10250000086840680004000CE8D0A28D8242E5D93A
:10251000E085C869B0F5807F2DD020680C3050E888
:10252000001F21F4807140E80012002AF5D12068D4
:10253000143050E8001F21F0010140E80012002A89
:10254000F5D12068143050E8001F21F0400140E828
:102550000012002AF5D184F84230256320680C303F
:1025600050E8001F21F0100140E80012002AF5D1C8
:10257000E06BFEF76CFF6663A08DE18D401A81B2BF
:102580002AE0A08DE18D401A81B2E08D0028A5D00F
:102590000029A3D022680C3252E8000F20F490707A
:1025A00042E80007002FF5D12068143050E8002FD2
:1025B00022F0010240E80027002FF5D184F84230D4
:1025C000256320680C3050E8002F22F0100240E80C
:1025D0000023002BF5D166632046FFF706FFF8BD08
:1025E000FFE705062BD5150629D594F841002128CB
:1025F000F5D1A068B0F5805F01D12069B0B1206A43
:10260000411C2162216800784860E08C401E000473
:10261000000CE084E3D12068C16821F08001C16032
:102620002068C16841F04001C160D8E7206A008895
:10263000C0F308004860206A801C2062E5E740067D
:10264000CDD55006CBD5CA68204622F04002CA60DC
:1026500084F8413000F06DFAC1E7000091360008BF
:1026600070B5040004D094F84100002510B106E0D4
:10267000012070BD84F84050204600F023F824204B
:1026800084F841002068C16821F40051C1602046EF
:1026900001F014F92068016921F49041016120687A
:1026A000416921F02A0141612068C16841F400516B
:1026B000C1606564202084F8410084F842006563AD
:1026C000002070BD2DE9F04F87B004461421684604
:1026D000FDF734FE9448DFF84C821038D4F800C07F
:1026E000914B02220321DFF844E2002506154FF04A
:1026F000080A4FF020674FF48079C44557D1D3F8CA
:1027000000C0AB464CF0804CC3F800C01B6803F01F
:1027100080430593036843F0100303600068CDE92C
:10272000025100F010000590C801CDE90002CDF87B
:1027300010A069467046FFF757F8DFF8F8A17C490A
:102740005046CAF80010C0E90175C0E90356CAF83E
:102750001450C0E90659B846CAF820504F46CAF886
:102760002450FEF79FFF08B1FEF737FA714D70480D
:10277000C4F83CA060353038CAF83840C5E90008D4
:102780004020A860C5E903B6C5F814B0C5E906B78E
:10279000C5F820B02846C5F824B0FEF783FF08B17D
:1027A000FEF71BFAA563AC6307B0BDE8F08FDFF856
:1027B0008881C44538D1D3F800C04CF0004CC3F830
:1027C00000C01B6803F000430593036843F0100347
:1027D0000360006800F0100005908DE82600CDE948
:1027E000031A69467046FEF7FFFFDFF8488150493B
:1027F00008F1C00848314046C8F80010C0E901752A
:10280000C0E90356C8F81450C0E90659C8F820506A
:10281000C8F82450FEF746FF08B1FEF7DEF9C4F809
:102820003C80C8F83840BFE7DFF81081C44522D1AA
:102830001C6844F400341C601B6803F400330593E7
:10284000036843F008030360006800F00800059087
:1028500060208DE825000720CDE90310694638483F
:10286000FEF7C2FF002205212620FFF77BF9262074
:10287000FFF76AF998E7334B9C4595D12A4B1B1D0E
:10288000D3F800C04CF0200CC3F800C01B6803F064
:1028900020030593036843F0400303600068CDE91B
:1028A000025100F0400005904FF48440CDE9000251
:1028B000CDF810A069462448FEF796FFDFF890B0E7
:1028C00022495846B046E0E802174021A0E822011C
:1028D000BA4640F814594E46C0E9065905625846B2
:1028E000CBF82450FEF7DEFE08B1FEF776F9184F5C
:1028F0001648C4F838B060377838CBF838403860BC
:10290000C7E901A5C7E903587D61C7E906563D62DD
:1029100038467D62FEF7C6FE08B1FEF75EF9E76352
:10292000BC6341E70078004040380240001002409C
:102930005860024088070020007C004000440040AE
:10294000000C02400014014000180240A064024044
:10295000A808002090F84230202B01D002207047B8
:1029600021B11AB10023036301F02EB80120704792
:1029700090F84230202B01D00220704721B11AB1CB
:102980000023036301F068B80120704770B539492E
:10299000884203D120226039364810E03549483159
:1029A000884204D12022883901F1880007E03149AA
:1029B000D831884207D12022F83901F1F800BDE86A
:1029C0007040FFF7C7BF2B499031884251D12A4C44
:1029D0002A4A00202178257955546378FD2B01D1AE
:1029E000FC2D00D0C9B3491CC9B2012321700129B3
:1029F00008D15678402E02D0412E02D002E0A370BA
:102A000005E0E370A678012E01D1402903D0E678D5
:102A1000012E0ED023E02070A0701948036092F8B8
:102A20003F00FD281BD1402214491648FDF76DFCDC
:102A300015E0382913D12070E0701348036092F834
:102A40003700FD2804D138220C491048FDF75DFC01
:102A500040210A48FDF772FC01E0FFE72070657035
:102A60000549BDE8704003480122091D9030FFF779
:102A70007FBF70BD68060020580000200449002078
:102A8000000100202C480020040100206C48002098
:102A900070472DE9F843044690F8410098461646E1
:102AA0000D46202802D00220BDE8F88385B17EB112
:102AB00000206064212084F84100FEF7B5FFA68461
:102AC0008146E684A0682027B0F5805F02D003E04D
:102AD0000120E9E7206910B12E4600250EE000260E
:102AE0000CE08021204600F0D2FFA8B9C6B116F84C
:102AF000010B21684860E08C401EE084E08C4B466E
:102B00004FF00002CDF800800028EAD14FF04001DC
:102B1000204600F0BCFF40B184F841700320C3E7B9
:102B200035F8020BC0F30800E3E784F84170002099
:102B3000BAE77047FEE700000F4810B50D49016085
:102B40000521416000214FF400328160C0E9031289
:102B5000520142610176012242768176C176017787
:102B60004177FEF7BEFA002803D0BDE81040FEF71B
:102B700034B810BD00640040B8050020104810B5FE
:102B80000E4901600521416000214FF04072C0E90B
:102B900002124FF4003202615201426101760122B9
:102BA00042768176C17601774177FEF79AFA00285E
:102BB00003D0BDE81040FEF710B810BD006800401B
:102BC000E00500201D4808B5016841F400110160CE
:102BD000016801F400110091016841F48001016075
:102BE0000068002200F48000009005210C20FEF710
:102BF000B9FF0C20FEF7A8FF002205210E20FEF7EA
:102C0000B1FF0E20FEF7A0FF002205211120FEF7E4
:102C1000A9FF1120FEF798FF002205213920FEF7B9
:102C2000A1FF3920FEF790FF002205214520FEF785
:102C300099FFBDE808404520FEF786BF30380240C6
:102C400010B58EB01C220B496846FDF75EFB0021D3
:102C5000684602F000FA084C06491C22A0621C31AA
:102C600007A8FDF752FB002107A802F0F4F9E06283
:102C70000EB010BDD05C00082000002010B586B05A
:102C800014216846FDF75AFB1D48016841F0100108
:102C90000160016801F010010591016841F04001F7
:102CA0000160016801F040010591016841F00801EF
:102CB0000160016801F008010591016841F080019F
:102CC0000160016801F080010591016841F0020195
:102CD000016000680B4C00F00200059001223C21CD
:102CE0002046FEF79BFE3C200121CDE90001032098
:102CF000CDE9021069462046FEF776FD06B010BD0C
:102D000030380240001C02400C4810B50A490160EE
:102D10004FF4E1314160002181600C22C160C0E9C3
:102D200004128161C161FFF79BFC002803D0BDE85C
:102D30001040FDF752BF10BD00780040680600202B
:102D40000C4810B50A4901604FF4E131416000219F
:102D500081600C22C160C0E904128161C161FFF78A
:102D60007FFC002803D0BDE81040FDF736BF10BD42
:102D7000007C0040B00600200C4810B50A490160F4
:102D80004FF4E1314160002181600C22C160C0E953
:102D900004128161C161FFF763FC002803D0BDE824
:102DA0001040FDF71ABF10BD00440040F806002097
:102DB0000C4810B50A4901604FF4E131416000212F
:102DC00081600C22C160C0E904128161C161FFF71A
:102DD00047FC002803D0BDE81040FDF7FEBE10BD43
:102DE0000014014040070020FEE7FEE72DED028BB6
:102DF00084B0DFF868815A4F5A4D00264FF084495D
:102E00009FED598ADFF864A1594CB34698F8000049
:102E100001287CD128883988401A00EE100AB8EEC3
:102E2000C00AFDF7DCFE10EE100A484508DA2888D3
:102E30003988401A00EE100AB8EEC00A84ED090A7B
:102E400028883988401A00EE100AB8EEC00AFDF74B
:102E5000C6FE10EE100A48450ADA46484649008880
:102E60000988401A00EE100AB8EEC00A84ED030A81
:102E7000288840F21A418842F0EE480A02D894EDC0
:102E8000090A01E094ED030A3C4800F091F8B1EE24
:102E9000400A84ED000ADAF8000010B1012803D0DE
:102EA00004E002F06FF801E001F0EAFF94ED001A8F
:102EB000D4ED080A94ED070A01F0AAFF3048006833
:102EC000B0F9020000EE100A2E48B8EEC00AD0EDAC
:102ED000000A2D4800F06CF82C480068B0F9020098
:102EE00000EE100A2A48B8EEC00AD0ED000A2948C0
:102EF00000F05EF828480068B0F9020000EE100A01
:102F00002648B8EEC00AD0ED000A254800E021E0CE
:102F100000F04EF823480068B0F9020000EE100AF5
:102F20002148B8EEC00AD0ED000A204800F040F871
:102F3000761CB6F5FA6F584603DA0121CDE9000197
:102F400001E0009001900023029020221946012008
:102F5000FDF762FD022002F071F857E7FC00002047
:102F6000E8000020E200002000000000280100200E
:102F700020000020E4000020E600002008030020DC
:102F800004000020140000203C0100200800002064
:102F900018000020980100200C0000201C000020D8
:102FA000F40100201000002000000020500200204A
:102FB00010B504002DED028B9FED6C2A16D0D4EDD8
:102FC000151AC4ED161A94ED141A84ED151AC4EDF1
:102FD0000B0A84ED0C0A30EEC00A84ED140A207846
:102FE00048B1012841D002287CD077E0B0EE420AF7
:102FF000BDEC028B10BDD4ED010AF0EEC01A11EE4B
:10300000900A60EE800A5A49C4ED0E0A884208DA36
:10301000D4ED0F1A94ED022A42EE001AC4ED0F1AF5
:1030200001E084ED0F2A30EE410A94ED031A20EE00
:10303000011A84ED101AD4ED0F1A94ED0A0AF4EE79
:10304000C01AF1EE10FA09DCB1EE400AF4EEC01A33
:10305000F1EE10FA02D394ED0F0A01E084ED0F0AAD
:1030600030EE800A30EE010A26E070EE410A94ED5F
:10307000012A60EE820AC4ED0E0A94ED022A22EEC5
:10308000002A84ED0F2AD4ED122A70EE820AC4EDD4
:10309000132AD4ED112AC4ED122AF0EE002A01EE13
:1030A000620A30EE210A84ED110A94ED031A21EE32
:1030B000000A84ED100A51E084ED0D0AD4ED090AEE
:1030C000B4EEE00AF1EE10FA06DCF1EE600AB4EEBE
:1030D000E00AF1EE10FA01D2C4ED0D0A94ED0D0AEA
:1030E00086E7FFE7FDF77BFDD4ED060A20EE200A18
:1030F00000F086FDB7EE008A94ED051AC8EE000ACE
:1031000038EE600AD4ED040A41EE000A94ED140A88
:1031100094ED151A30EE411A60EE810AC4ED0E0AE4
:10312000FDF75DFDD4ED070A20EE200A00F068FDF2
:10313000C8EE000A94ED080A94ED151A20EE800AF4
:10314000D4ED140A70EE810AB6EE001A60EE810A20
:1031500020EE200A84ED0F0AD4ED0E0A30EE800A2C
:10316000D4ED0D0A30EE200AA6E7000000000000B2
:1031700000007A4300283CD0002A3AD0017092ED3A
:10318000001A80ED011A92ED011A80ED021A92EDFB
:10319000021A80ED031A92ED031A80ED041A92EDE3
:1031A000041A80ED051A92ED051A80ED081A92EDC9
:1031B000061A80ED061A92ED071A80ED071A80EDC7
:1031C000090A9FED0C0AC0ED0A0A80ED130A80ED92
:1031D000120A80ED110A80ED0D0A80ED100A80EDD3
:1031E0000F0A80ED0E0A80ED160A80ED150A80EDBB
:1031F000140A7047000000000127DFF878801E4C99
:103200001E4D002620784F2804D053280ED0522877
:1032100011D013E060784B2810D1C8F8007020213D
:103220001748AF60FDF78AF8268007E060785428D9
:1032300004D1022107E06078472803D0686801289C
:1032400004D010E00321C8F800106F6020210C4862
:103250006E60FDF773F8268040F2E733042209A17F
:103260000A48FFF716FC00F0F3F80A2001F0E6FE2A
:10327000C8E7000054000020660000202000002065
:1032800048060020414F4B4200000000400700204C
:1032900010B5502080F31188BFF34F8FBFF36F8FAD
:1032A00002F0E6FB18B104494FF08050086000209E
:1032B00080F3118810BD000004ED00E030B593B03C
:1032C00030216846FDF73AF814210CA8FDF736F8CE
:1032D00020480025016841F080510160006800F03D
:1032E000805011901C48016841F440410160006821
:1032F000022400F44040119001200090000401904D
:103300008001CDE9064006200890B420CDE90904EB
:1033100004200B906846FEF79BFD08B172B6FEE7ED
:10332000FEF752FC08B172B6FEE70CA90F2081E847
:1033300031004FF4A0500F904FF4805010900521B1
:103340000CA8FEF779FC002801D072B6FEE713B096
:1033500030BD000040380240007000400248016863
:1033600041F470010160704788ED00E00148FEF70C
:1033700096BF00009C090020F0B50268294C2A4D38
:103380002A4E2B4F2B4B4FF0804CA04209D060456A
:1033900007D0A84205D0B04203D0B84201D098422D
:1033A00004D122F0700E4A6842EA0E02A0421BD0FD
:1033B000604519D0A84217D0B04215D0B84213D0FA
:1033C000984211D01C4DA8420ED01C4DA8420BD0E3
:1033D0001B4DA84208D01B4DA84205D01A4DA8424B
:1033E00002D01A4DA84203D122F44075CA682A437C
:1033F0004D6922F080022A4302608A68C2620A682C
:103400008262A04201D0984201D109690163012181
:1034100041610169C90703D0016921F0010101611E
:10342000F0BD000000000140000400400008004022
:10343000000C0040000401400040014000440140F5
:103440000048014000180040001C004000200040DF
:103450002DE9F047874C2DED068B9FED878BA068FB
:103460004FF00009012874D1854D6878412871D149
:10347000A87830286ED1AB7A6A7A297AE879FDF794
:10348000F3FA05F16C08464688ED000AAB7B6A7BCF
:10349000297BE87AFDF7E8FA86ED010AAB7C6A7CC5
:1034A000297CE87BFDF7E0FA86ED020AAB7D6A7DB8
:1034B000297DE87CFDF7D8FA86ED030AAB7E6A7EAB
:1034C000297EE87DFDF7D0FA86ED040AAB7F6A7F9E
:1034D000297FE87EFDF7C8FA86ED050A10EE105A3E
:1034E000F068FDF7CFF853EC182BFCF7D9FFFDF788
:1034F000DCF800EE100A634E10EE100A624F84ED05
:10350000030A9FED629AB04202DD30EE490A05E0FF
:1035100010EE100AB84203D930EE090A84ED030A0E
:10352000D8F81000FDF7AEF8B0EE48AAF0EE68AAA1
:1035300053EC1A2BFCF7B4FFFDF7B7F800EE100AB6
:1035400010EE100A84ED040AB04204DD30EE490AA0
:1035500007E02CE029E010EE100AB84203D930EE63
:10356000090A84ED040A2846FDF78CF853EC1A2B5F
:10357000FCF796FFFDF799F800EE100A10EE100A1E
:1035800084ED050AB04202DD30EE490A05E010EE96
:10359000100AB84203D930EE090A84ED050A2078F2
:1035A00018B984ED090A01202070C4F808906068F9
:1035B000012859D1324D403D6878402852D1A87831
:1035C00038284FD1AB7A6A7A297AE879FDF74CFA34
:1035D00005F1780686ED000AAB7B6A7B297BE87AE9
:1035E000FDF742FA86ED010AAB7C6A7C297CE87B18
:1035F000FDF73AFA86ED020AAB7D6A7D297DE87C0B
:10360000FDF732FA86ED030AAB7E6A7E297EE87DFD
:10361000FDF72AFA86ED040AAB7F6A7F297FE87EF0
:10362000FDF722FA86ED050A3068FDF72BF853EC1A
:10363000182BFCF735FFFDF738F8A0617068FDF72F
:1036400021F853EC182BFCF72BFFFDF72EF8E06167
:10365000B068FDF717F853EC182BFCF721FFFDF7C6
:1036600024F82062C4F804900020BDEC068BBDE86D
:10367000F0870000FC000020F8C1631ADCA54C4074
:103680006C48002000003443000034C30000B44301
:1036900010B5806B0021C185C184FEF7A7FE10BD67
:1036A00070B5846B2068406994F84110C0F3C01075
:1036B0000025212904D118B1E584204600F08EF8B8
:1036C0002068406994F84210C0F38010222904D188
:1036D00018B1E585204600F05AF8606C40F0100003
:1036E00060642046FEF782FE70BD10B50146806B17
:1036F000096809684FF00002C9052ED4C285016827
:103700000C3151E8003F23F4807341E80034002C71
:10371000F5D10168143151E8003F23F0010341E87D
:103720000034002CF5D10168143151E8003F23F03A
:10373000400341E80034002CF5D1202180F84210EC
:10374000016B012909D101680C3151E8003F23F0D8
:10375000100341E80034002CF5D14263016B0129CC
:1037600002D0FFF713F910BD818DFEF73EFE10BDAC
:1037700010B5806B01214163016B012902D0FFF775
:1037800087F910BD818D4908FEF72FFE10BD016835
:103790000C3151E8002F22F4907241E80023002BF5
:1037A000F5D10168143151E8002F22F0010241E8FF
:1037B0000023002BF5D1016B012909D101680C31DF
:1037C00051E8002F22F0100241E80023002BF5D130
:1037D000202180F8421000210163704701680C31FC
:1037E00051E8002F22F0C00241E80023002BF5D160
:1037F000202180F84110704708B590F84210222926
:1038000001D0022008BD82684FF480539A4201D152
:10381000016921B1816A9A421BD04AB10AE002686B
:10382000816A5268C2F308020A80816A891C08E032
:10383000026972B10268526802F07F020A70816AFE
:10384000491C8162C18D491E0904090CC18503D040
:103850001BE002685268F1E70168CA6822F02002A2
:10386000CA600168CA6822F48072CA6001684A6945
:1038700022F001024A61202180F8421000214163B8
:10388000026B012A03D0FFF781F8002008BD016315
:1038900001680C3151E8002F22F0100241E80023AA
:1038A000002BF5D101680A68D20602D50A6849687A
:1038B0000091818DFEF799FDE7E7000070B50446A1
:1038C00000680169E26821F44051114301612169F6
:1038D000A068E26908436169114308432168CA6826
:1038E00049F20C639A430243CA6020684169A269A5
:1038F00021F440711143416131492068884202D06E
:103900003049884202D1FEF761FA01E0FEF74EFA33
:10391000E2690023192164253226B2F5004F62685E
:1039200028D0A0FB0101930F9200FCF7BDFC0146DB
:10393000B0FBF5F06FF01802504301EB800006EB8E
:103940000010B0FBF5F000F0F002B1FBF5F002EB77
:103950000012B1FBF5F06FF01803584301EB800043
:1039600006EB0010B0FBF5F000F00F0021681044EA
:10397000886070BDA0FB010192185B41FCF794FCCC
:103980000146B0FBF5F00201B1FBF5F06FF0180352
:10399000584301EB800006EBC000B0FBF5F000F0EF
:1039A000F80002EB4002B1FBF5F0584301EB800058
:1039B00006EBC000B0FBF5F000F00700D6E7000012
:1039C000001001400014014038B581620446828530
:1039D000002013466064222284F84220E56B1B4AD3
:1039E000EA63E56B1A4A2A64E56B1A4AEA64E26BF9
:1039F00010650A462168E06B091DFDF7BDFE2068D1
:103A0000016840680090206948B120680C3050E897
:103A1000001F41F4807140E80012002AF5D12068AF
:103A2000143050E8001F41F0010140E80012002A64
:103A3000F5D12068143050E8001F41F0400140E803
:103A40000012002AF5D1002038BD0000EB36000836
:103A500071370008A136000881628285C285002185
:103A60004164222180F84210016921B10168CA68CD
:103A700042F48072CA6001684A6942F001024A61F8
:103A80000068C16841F02001C160002070472DE945
:103A9000F843984617460D460446089E24E0701CDD
:103AA00022D0FDF7C1FFA0EB0800B0421AD8CEB17A
:103AB0002068C168490717D5802D15D0402D13D037
:103AC0000168C94309070FD40168002540680090C8
:103AD0002046FFF75CFE0820606484F84050012017
:103AE000BDE8F8830320FBE72068006835EA0000A2
:103AF00004D00020B842D2D00020F1E70120F9E73D
:103B00000148FEF775BC0000F80600201B4910B5FF
:103B10000020C8800881488188811949202201F14C
:103B20006000FEF717FF16492022203101F18800BE
:103B3000FEF710FF12492022403101F1F800FEF794
:103B400009FF0F4860300068C16841F01001C16092
:103B50000B48A8300068C16841F01001C1600948F5
:103B60000068C16841F01001C1600648483800682B
:103B7000C16841F01001C16010BD00005800002074
:103B80000806002040070020FEE703B4019841002A
:103B9000009850EAC12018BF04204A0D18BF40F019
:103BA000010040F2FF72B2EB515F08BF40F002002B
:103BB000012808BF052002B070474100080218BF65
:103BC00004200A0E18BF40F001004FF07F4232EA95
:103BD000010108BF40F00200012808BF052070471E
:103BE0000907090E002804DB00F1E02080F800142A
:103BF000704700F00F0000F1E02080F8141D7047BE
:103C000010B510EE104A4FF019406849002200EB41
:103C100044002DED028B884257D8DFED650A14F081
:103C2000004F60EE200A14BFBEEE001AB6EE001A76
:103C300071EE200AFDEEE00A10EE900A00EE900A06
:103C4000F8EEE00A9FED5B1A00EEC10A9FED5A1AEA
:103C500000EEC10ADFED590A9FED591A00EE201A55
:103C6000DFED580A40EE010A9FED571A574B00F05E
:103C7000030100EE201A21EE000A7B4403EB8103CE
:103C8000D3ED000A524B7B4403EB810393ED001A02
:103C9000504B41EE000A7B4403EB8101801091ED13
:103CA000000A70EE800AEABB00EE100AB8EEC01AF5
:103CB000DFED491A9FED490ABDEC028B01EE210AA6
:103CC000BCEEC00A20EE200A10BD4FF0FF40A0431A
:103CD0001BD04FF0CE40B0EB440F82BFB7EE000ACE
:103CE000BDEC028B10BD3E48B0EB440F28BF012253
:103CF00093D2022000F094FF14F0004F15D0BDECD9
:103D0000028BBDE8104000F073BF14F5000F02BF36
:103D10009FED340ABDEC028B10BDBDEC028BBDE8FB
:103D2000104000E007E000F057BFBDEC028BBDE89B
:103D3000104000F055BF00EBD07359104FF07E5289
:103D400002EBC15100EE101AA0EB630002EBC05071
:103D500060EE200A00EE100A20EE208A18EE100A0B
:103D600088B118EE100AB0F1FF4F15D018EE100A06
:103D7000FFF723FF042808BF00F03AFFB0EE480A1F
:103D8000BDEC028B10BD022000F04AFFBDEC028B9F
:103D9000BDE8104000F02CBF022000F041FFBDEC58
:103DA000028BBDE8104000F01BBF00000000501E59
:103DB0003BAAB8400070313EF4FD053712BB2A3DE6
:103DC00012BB2A3EFFFFFF3EFFFF7F3FBA200000ED
:103DD000BE2000008E2000000000004B00007E4E40
:103DE0000000A085000000002DE9F04D2DED040B32
:103DF0002DED0E8B96B0DDE92550279CDDF890A0C7
:103E000025F0004624F00048BAF1000F14BF01214C
:103E1000002101EB4502FC4953184A1093422AD372
:103E2000002814BF0123002303EB44030B44F7498C
:103E30008B4220D358EA00019FEDF59B76D0DFF846
:103E4000D8B35D4503D1BAF1000F05D188E0BAF1CE
:103E5000000F08BF002100D0012101EB450111F541
:103E6000001F08D8002814BF0121002101EB4401E4
:103E700011F5001F0BD99DED261B9DED240B16B0EF
:103E8000BDEC0E8B04B0BDE8F04D00F069BE00271C
:103E9000002DBCBFE149884521DAE1498845A8BF2A
:103EA00002271CDAC3451ADCDE4901EB285114292C
:103EB00008DDC1F1340220FA02F101FA02F2824275
:103EC0000DD108E058B9C1F1140228FA02F101FA43
:103ED00002F2424503D101F00101C1F1020756EAA5
:103EE0000A0124D1002C22DA002D18BF022F01D0A4
:103EF000012F0AD0022000F093FE16B0BDEC0E8B0D
:103F000004B0BDE8F04D00F013BE022000F088FEC2
:103F100000F00EFE51EC100B81F0004141EC100B53
:103F200016B0BDEC0E8B04B0BDE8F08D18E09FED2F
:103F3000BEAB9FEDBF8B002871D1B848804522D120
:103F400005F1804010F5801008BFBAF1000F07D0CE
:103F5000B3450ADC002CA8BF9DED260BE0DA0DE08E
:103F6000B0EE490AF0EE690ADAE7002C06DA9DEDB8
:103F7000260B51EC100B81F000416FE0AE48784405
:103F800090ED000BCCE7D8454DD1002C48DA2EB18E
:103F900086423AD1BAF1000F42D126E0BAF1000FC1
:103FA00013D0022000F03CFE00F0F6FD8DED020B78
:103FB0009DED240B8DED000B10EE900A039961F33B
:103FC0001E0003909DED020BAAE78DED02AB9DED67
:103FD000240B1AEE901A10EE900A8DED000B61F38F
:103FE0001E0003909DED020B9AE78DED028B9DED77
:103FF000240B18EE901A10EE900A8DED000B61F371
:104000001E0003909DED020B8AE709DA9DED240B5B
:1040100051EC190B53EC102BFCF7B4FA1EE020E026
:104020009DED240B7CE786421BDAB4F1804F0DD066
:10403000A4F10050B0F1FF5013D1002D11DB9DED24
:10404000240B51EC100B01F083FA07E09DED240BDB
:1040500053EC102B51EC100B00F0C2BC41EC100BD8
:104060005EE79DED240B51EC100B00F00BFEBAF156
:10407000000FCDE90E0142D19FED710B46B3A6F1C1
:10408000E040B0F17F600CD05E4538D1002D00DA01
:10409000A7B3022F0CBF01204FF0FF30FCF7E1FA6D
:1040A000DCE7002D01DD002C0DDA002D01DD002CF8
:1040B0001FDB002D16DA002C14DB012F08BF9FED4B
:1040C000620B3FF42DAFB0EE4A0AF0EE6A0A27E722
:1040D000022F18BF002D0CD0012F0AD1002DFFF6A2
:1040E0001FAF06E0002DB8BF002C08DA012F3FF407
:1040F00017AFB0EE480AF0EE680A11E71BE00120A6
:1041000000EBE57050EA070115D0791EB0EE498A40
:10411000F0EE698A084308BF9FED4D8B4E4800259D
:10412000804570DD4D494E48884514DDB0420DDBB9
:10413000002C19DB2FE0012000F072FD16B0BDEC61
:104140000E8B04B0BDE8F04D00F016BDB34502DCA7
:10415000002C09DC1FE0864202DA002C1BDA03E0A7
:104160005E452BDD002C16DD022000F059FD00F02D
:1041700013FD8DED020B53EC1A2B51EC180BFCF7D1
:104180008FF9CDE900010399019861F31E000390B6
:104190009DED020BC4E6022000F042FD00F00CFD94
:1041A00010EE901A18EE900A8DED020B8DED008B3B
:1041B00061F31E0003909DED020BB1E69DED0E0B29
:1041C00053EC192B51EC100BFCF764F99FED260B07
:1041D000CDE9080153EC102B9DED080B51EC100BB1
:1041E000FCF75EF99FED221B53EC112BFCF755F900
:1041F0009DED081B53EC112BFCF752F99FED1E1B94
:1042000053EC112B3CE08CE0FFFF1F00FFFF0F0081
:10421000000000000000F03F0000F03F0000F07FD1
:104220000000404301FCFFFF000000000000F07FA1
:1042300000000000000000005E1E00000000000002
:104240000000000000000080000000000000F0FFFF
:10425000000000000000F0BF0000E0410000F0435B
:10426000FFFFEF3F00000000000000000000D03F13
:10427000555555555555D53F000000000000E03F0D
:10428000FCF70BF99DED080B41EC1A0B53EC102BCE
:1042900051EC100BFCF704F953EC1A2BFCF700F966
:1042A00041EC1A0B9FEDFE0B53EC102B9DED080B10
:1042B00051EC100BFCF7F4F841EC1B0B9FEDFA0BE3
:1042C00051EC1A0B53EC102BFCF7EAF841EC1A0BEB
:1042D0009FEDF70B53EC102B9DED080B51EC100BE1
:1042E000FCF7DEF853EC1A2BFCF7D4F841EC1A0B70
:1042F00051EC1B0B53EC1A2BFCF72BF80690CDE975
:1043000006519DED060B53EC1B2B51EC100BFCF7EB
:10431000C1F853EC1A2BFCF7C0F841EC100B00F07D
:10432000A1B90020B6F5801F0EDA9FEDE30B53EC28
:10433000102B9DED0E0B51EC100BFCF7B1F8CDE9F5
:104340000E016FF034000E4600EB2650A0F2FF374E
:10435000C6F31300DA4940F07F6646F040568842C3
:10436000D8BF002408DDD7498142C8BF012403DC3F
:104370000024A6F580167F1CD348784400EBC400C7
:104380000F9690ED00CB9DED0E0B53EC1C2B51ECDA
:10439000100BFCF77FF89DED0E0B41EC1B0B53EC63
:1043A0001C2B51EC100BFBF7D4FF41EC100B51EC24
:1043B000190B53EC102BFCF7E5F841EC1D0B51ECFD
:1043C0001B0B53EC1D2BFCF76BF841EC1A0BBF4891
:1043D0008DED10AB7844109590ED000B4FF0005030
:1043E00040EA660000EB84408DED080B00F50020EC
:1043F00009909DED080B53EC1C2B51EC100BFCF7B6
:1044000049F89DED0E1B53EC112BFCF746F841ECDF
:10441000100B53EC102B9DED100B51EC100BFCF717
:104420003FF89DED080B41EC1C0B53EC102B9DED60
:10443000100B51EC100BFCF733F853EC1B2BFCF773
:104440002CF853EC1C2BFCF725F853EC1D2BFCF738
:1044500027F841EC1C0B53EC1A2B51EC1A0BFCF710
:104460001FF841EC1B0B9A480621B0EE4B0AF0EE08
:104470006B0A784400F0E0FAB0EE401AF0EE601AF1
:10448000B0EE41DAF0EE61DA53EC1B2B51EC1B0B72
:10449000FCF706F853EC1D2BFCF702F89DED100B12
:1044A00041EC1B0B53EC1A2B51EC100BFBF751FF9B
:1044B00053EC1C2BFBF7F4FF53EC1B2BFBF749FFD2
:1044C0009DED100B41EC1B0B53EC102B51EC100B22
:1044D000FBF7E6FF41EC1D0B9FED7FEB53EC1E2B32
:1044E000FBF737FF53EC1B2BFBF733FF0890CDE9AD
:1044F00008519DED080B53EC1E2B51EC100BFBF7F4
:10450000C9FF53EC1D2BFBF7C5FF53EC1B2BFBF72F
:10451000C4FF9DED080B41EC1D0B53EC102B9DEDE2
:10452000100B51EC100BFBF7BBFF41EC1B0B53ECDA
:104530001A2B51EC1D0BFBF7B3FF9DED080B41EC63
:104540001A0B53EC102B51EC1C0BFBF7A9FF53EC8F
:104550001A2BFBF7FEFE41EC1A0B51EC1B0B53EC34
:104560001A2BFBF7F6FE0C90CDE90C519DED0C0BD0
:1045700053EC1B2B51EC100BFBF78CFF53EC1A2B5D
:10458000FBF78BFF41EC1B0B9FED550B53EC102BF6
:104590009DED0C0B51EC100BFBF782FF41EC1A0B5D
:1045A0009FED510B51EC1B0B53EC102BFBF778FFDD
:1045B00041EC1B0B9FED4E0B53EC102B9DED0C0BA8
:1045C00051EC100BFBF76CFF53EC1B2BFBF7C1FE00
:1045D00041EC100B4848784400EBC40090ED001B00
:1045E00051EC100B53EC112BFBF7B3FE41EC1B0B02
:1045F0003846FCF736F8CDE9080153EC1B2B51EC9B
:104600001A0BFBF7A6FE41EC100B3C48784400EB7C
:10461000C40090ED00CB51EC100B53EC1C2BFBF7BE
:1046200098FE9DED081B53EC112BFBF792FE0690B4
:10463000CDE906519DED080B53EC102B9DED060BBB
:1046400051EC100BFBF726FF53EC1C2BFBF722FF62
:1046500053EC1A2BFBF71EFF53EC1B2BFBF71DFF34
:1046600041EC100B9DED261B53EC102B8DED001B28
:1046700000959DED260B51EC100BFBF711FF9DED06
:10468000000B41EC1A0B53EC102B9DED260B51EC5B
:10469000100BFBF7FFFE9DED061B53EC112B2FE0DB
:1046A000000000604715F73FFE822B654715F73F76
:1046B00044DF5DF80BAE543E0000000000004043B4
:1046C0008E9803007AB60B00DA190000081A000071
:1046D0001219000000000000000000000000084067
:1046E000000000E009C7EE3FFD033ADC09C7EE3FDA
:1046F000F5015B14E02F3EBE9E1700005817000026
:10470000FBF7CEFE53EC1A2BFBF723FE9DED060BB9
:1047100041EC1A0B53EC102B9DED000B51EC100BE0
:10472000FBF7BEFECDE90C019DED0C0B51EC1A0B15
:1047300053EC102BFBF70DFECDE902010C46AA4904
:104740008C422FDB611A084318D19DED0C0B53EC02
:10475000102B9DED020B51EC100BFBF79BFE41EC77
:104760001B0B9FEDA30B51EC1A0B53EC102BFBF71B
:10477000F0FD53EC1B2BFCF7E1F82DD2022000F0EA
:104780004FFA00F009FA10EE901A18EE900A8DED2B
:10479000020B8DED008B61F31E0003909DED020B6B
:1047A000FFF7BEBB944A24F00041914214D39349D1
:1047B000214408437FF4EFAC9DED0C0B53EC102B20
:1047C0009DED020B51EC100BFBF764FE53EC1A2B22
:1047D000FCF7B4F87FF6DFAC24F000408849894A42
:1047E000002601EB205182422BDA481C4FF4801145
:1047F00021FA00F02044844AC0F30A517A44A1F21D
:10480000FF3192ED000B814A8DED080BCA4020EA82
:104810000202C0F3130040F48010C1F1140120FA29
:1048200001F60992002CB8BF76429DED080B53ECBF
:10483000102B9DED0C0B51EC100BFBF72BFECDE973
:104840000C019DED0C0B51EC1A0B53EC102BFBF7EC
:1048500080FD9FED6F0B0890CDE9085153EC102BB4
:104860009DED080B51EC100BFBF71AFE41EC1B0BF6
:104870009FED690B53EC102B9DED080B51EC100BC9
:10488000FBF70EFE9DED0C0B41EC1C0B53EC102BBB
:104890009DED080B51EC100BFBF7FCFD53EC1A2BB4
:1048A000FBF7FBFD9FED5E1B53EC112BFBF7F8FDB7
:1048B00053EC1C2BFBF74DFD41EC1A0B51EC1B0B81
:1048C00053EC1A2BFBF745FDCDE902019DED020BE0
:1048D00053EC1B2B51EC100BFBF7DCFD53EC1A2BAC
:1048E000FBF7DBFD9DED020B41EC1A0B53EC102B9B
:1048F00051EC100BFBF7D4FDCDE908014A489DEDC2
:10490000080B0521784400F097F89DED081B51EC49
:10491000100B53EC112BFBF7C3FD9DED021B53EC69
:10492000112BFBF7BAFDCDE906019DED020B53EC0F
:104930001A2B51EC100BFBF7B3FD53EC1A2BFBF7C2
:1049400008FD9FED3B0B41EC1A0B53EC102B9DED3A
:10495000060B51EC100BFBF79DFD9DED060B41EC9A
:104960001B0B53EC102B9DED020B51EC100BFBF7C6
:1049700097FD53EC1B2BFBF705FE53EC1A2BFBF7B3
:1049800089FD9DED021B53EC112BFBF783FD53ECCE
:10499000192BFBF782FDCDE9020101EB0650011551
:1049A0000029C8BF039015DC9DED020B324651EC87
:1049B000100BFBF75BFFFFF7E8F8042808BF00F0D7
:1049C000FBF832469DED020B51EC100BFBF74EFF4E
:1049D000CDE902019DED020B51EC180B53EC102BAD
:1049E000FBF75EFDFFF73ABB0000904000000000BF
:1049F000FE822B654715973C00CC904000346F3FFA
:104A000001FCFFFF0000E03FE0150000FFFF0F008A
:104A100000000000432EE63F396CA80C615C20BE0C
:104A2000EF39FAFE422EE63FB0140000000000000D
:104A3000000000000000004070B504462DED028B20
:104A40004D1E00EBC500B0EE408AF0EE608A90ED9E
:104A5000000B35F0060017D053EC182B51EC100B5F
:104A6000FBF71EFD41EC100B6D1E04EBC50090ED35
:104A7000001B51EC100B53EC112BFBF76AFC41ECC3
:104A8000100B35F00600E7D1022D36D0042D1CD0D6
:104A9000062D1CBFBDEC028B70BD53EC182B51ECE6
:104AA000100BFBF7FDFC94ED0A1B53EC112BFBF7ED
:104AB00050FC53EC182BFBF7F3FC94ED081B53EC64
:104AC000112BFBF746FC41EC100B53EC182B51EC6F
:104AD000100BFBF7E5FC94ED061B53EC112BFBF7D9
:104AE00038FC53EC182BFBF7DBFC94ED040B53EC78
:104AF000102BFBF72EFC41EC100B53EC182B51EC58
:104B0000100BFBF7CDFC94ED021B53EC112BFBF7C4
:104B100020FC53EC182BFBF7C3FC94ED001B53EC6B
:104B2000112BFBF716FCBDEC028B41EC100B70BD9A
:104B30009FED070B10B553EC102B9FED070B51ECBD
:104B4000100BFBF71FFD41EC100B10BD0000000027
:104B50000000000000000000000000000000F03F26
:104B600010B553EC112B51EC100BFBF7F2FB41ECA1
:104B7000100B10BD000000009FED050B10B553ECAD
:104B8000102B51EC100BFBF7FDFC41EC100B10BD92
:104B900000000000000000009FED050B10B553EC75
:104BA000102B51EC100BFBF77BFC41EC100B10BDF4
:104BB00000000000000000709FED050B10B553ECE5
:104BC000102B51EC100BFBF76BFC41EC100B10BDE4
:104BD000000000000000001030EE000A70470000E6
:104BE0009FED020A20EE000A7047000000000070EE
:104BF0009FED020A20EE000A70470000000000103E
:104C000002E008C8121F08C1002AFAD17047704795
:104C1000002001E001C1121F002AFBD170470000F3
:104C200001490860704700003801002000B58BB0D2
:104C300000200121CDE90601089100900190029029
:104C400003900590049069460C48FCF74BF80B481C
:104C5000FCF7CAFB02210948FBF7C9FF0E200990A7
:104C6000059069460648FCF73DF80548FCF7BCFB93
:104C700002210348FBF7BBFF0BB000BDB8050020C5
:104C8000E005002082B0CDE9000121F00040019054
:104C90009DED000B02B051EC100B704700F00300CB
:104CA000024900EB800001EB400070478447002080
:104CB00030B500210B4B9FED0C0A0C4601EB410077
:104CC00000EBC10003EB80020020946202EB800540
:104CD000401C85ED000A0A28F8DB491C0429EDDB9D
:104CE00030BD0000D4460020000000002DED028BF6
:104CF000FCF7A8FEFEF7E2FAFDF7C0FFFDF762FF42
:104D0000FEF702F8FEF71CF8FEF752F8FDF714FF65
:104D1000FDF734FFFEF730F8FEF7F8FEFFF786FFE9
:104D2000FFF7C6FF01222D492D48FDF721FE002087
:104D3000FFF7B4FF2B4C20600120FFF7AFFF60604E
:104D40000220FFF7ABFFA0600320FFF7A7FF9FED56
:104D5000268AE060254AF0EE480AB0EE480A0021B3
:104D60002348FEF707FA214A2148F0EE480AB0EE40
:104D7000480A203200215C30FEF7FCF91B4A1C482F
:104D8000F0EE480AB0EE480A40320021B830FEF793
:104D9000F1F9164AF0EE480AB0EE480A60320021F6
:104DA0001448FEF7E7F9114A1248DFED130A9FEDA8
:104DB000130A803200215C30FEF7DCF99FED100A07
:104DC0000A4A0C48F0EE400AA0320021B830FEF743
:104DD000D1F9FDF735FF00F039F9FEE75C0000205E
:104DE000F80600200400002000803B45105C00080D
:104DF0003C010020500200200000E14400800945F1
:104E000000007A440021842800D0C11C0846704765
:104E1000164870EE602A164990ED042AD0ED051A66
:104E200030EE803A41EE022A62EEA12AC1ED002A5C
:104E3000D0ED062A0F4801EE223A23EE213A80ED0A
:104E4000003A30EEC03AF1EE600A0B4830EEC00A8C
:104E500001EE023A01EE220A23EE212A80ED002A19
:104E600020EE210A054880ED000A7047200000204E
:104E700014000020180000201C000020000000206A
:104E8000F0B536489FED361A36494578364A9FEDDB
:104E9000370A40F2DC5C40F266370124DDB1344B66
:104EA0000026DFED340A1B88012D1FD0324F4FF44E
:104EB000BC7C022D3F883CD0032D0BD1634509D229
:104EC000B7F5346F45D32D4882ED000A81ED000A15
:104ED00080ED000AF0BD2A4B1B88FA2B02DB82ED25
:104EE000001A38E082ED000A4470F0BDC26892B149
:104EF000C1ED000A634503DB0169491CC0E9036198
:104F00000169032910D00429EFD181680129ECD16E
:104F100003214170F0BD81ED001ABB42F0DC016954
:104F2000491CC0E90341EBE781680029F2D1022165
:104F3000EFE78460634503D2C2ED000A81ED000A09
:104F400040F6FC018F42E5D982ED000A447006610B
:104F5000F0BDC2ED000A81ED000AF0BD2401002081
:104F6000000096C3400000203C000020000000002C
:104F7000E200002000009643E40000202000002012
:104F8000E600002070B51249DFED120A124D0E78CE
:104F90009FED120A124840F2663440F2AA520123F1
:104FA0005EB1104C85ED000AC0ED000A24889442E1
:104FB00002DB80ED000A4B6070BDC5ED000A80ED9C
:104FC000000A09480088A042F6DB0B7070BD0000A3
:104FD00024010020000096433C0000200000000057
:104FE00040000020E2000020E600002000EB40012D
:104FF00001EBC0000F4901EB8000816A00EB8102E8
:10500000491C816282ED000A816A0A2901DB0021C4
:105010008162DFED090A002100EB8102491C92ED5B
:10502000000A0A2970EE200AF6DBB2EE041A80EEBE
:10503000810A7047D44600200000000010B5002807
:1050400000D1012000F088FB002010BD10B500F059
:10505000ABFB002010BD30B585B004460D4661693C
:10506000B4F90800002910D0A16971B1FFF7CAFE98
:105070006269A1690192029100902B462269216820
:10508000606800F0C5FC049010E0FFF7BBFE04A9C7
:1050900001910090208A2B4682B22168606800F05E
:1050A00081FC012802D005B0002030BD049805B075
:1050B00030BD00002DE9F04104460F46194EF56859
:1050C0003068001D00F07BFA48B93068012190F883
:1050D0002C0001FA00F0316921EA00003061B4F1DE
:1050E000FF3F07D137B13068BDE8F041011D0E48E0
:1050F00000F0ABBA2C4430684460AC4206D2306851
:10510000011DB06BBDE8F04100F084BA3068011DAC
:10511000706B00F07FFAB06A844200D2B462BDE8DE
:10512000F081000078000020C00A002070B504461D
:1051300000F098FA1C4DA868401CA860286810B1BF
:10514000686938B10CE02C60A868012808D100F02B
:10515000EDF805E02868E16AC06A884200D82C6052
:10516000686A401C6862E06A01212A698140114333
:1051700029610E4900EB800001EB8000211D00F049
:1051800064FA00F08FFA686900280CD02868E16A98
:10519000C06A884207D206494FF080500860BFF3CA
:1051A0004F8FBFF36F8F70BD78000020E40900209F
:1051B00004ED00E070B50D4C6068002815D00C4E71
:1051C00000F050FAF068C568281D00F0F8F9A068F2
:1051D000401EA0606068401E606000F063FA2846D0
:1051E00000F008F860680028EAD170BD780000205F
:1051F000AC0A002010B5044694F8511000290BD0D9
:10520000012911D0022914D0502080F31188BFF356
:105210004F8FBFF36F8FFEE7206B00F059FA2046E7
:10522000BDE8104000F054BA2046BDE8104000F040
:105230004FBA10BD4FF47051104810F0070F06D050
:10524000C01D20F007000D49411AC1F570510C4AEC
:105250001060002353600144083921F00701183A17
:1052600011604B600B600B1A4360016040689060F6
:1052700050604FF00040506170470000D40A002099
:10528000CC000020074E4FF08054074DFFF792FFEF
:1052900030680128FAD92C60BFF34F8FBFF36F8FAE
:1052A000F4E70000E409002004ED00E02DE9F047F8
:1052B0008146099E089D0A9C9A46521E206B00EB6F
:1052C000820020F00708002700290CD000202318B6
:1052D0000A5C83F834200A5C12B1401C1028F6D313
:1052E00084F8437001E084F83470072D00D306255C
:1052F000E5626564A764201D00F089F904F11800D7
:1053000000F085F92461C5F10700A0616462E764DB
:1053100084F8507052464946404600F003F9206038
:10532000002E00D03460BDE8F087000070B5002486
:105330000F4D04EB840005EB800000F05DF9641C68
:10534000072CF6D30B4800F057F90B4800F054F93E
:105350000A4800F051F90A4800F04EF9094800F0F7
:105360004BF90948034941631431816370BD000062
:10537000E4090020700A0020840A0020980A002016
:10538000AC0A0020C00A00207800002010B41449A4
:1053900000E011460A688242FBD34B6803EB010C24
:1053A000844503D140681844486008460C68D0F82A
:1053B00004C00CEB0003A3420CD10A4B1B689A42B9
:1053C00006D05268624442600A681268026002E0D5
:1053D000036000E00260814200D0086010BC7047AA
:1053E000CC000020B40000200749486B006800286A
:1053F00005D0486BC068C0684068886270474FF04D
:10540000FF30886270470000780000200A4840683A
:10541000B0F1FF3F07D0502080F31188BFF34F8FCA
:10542000BFF36F8FFEE7502080F31188BFF34F8FDB
:10543000BFF36F8FFEE70000D40000202DE9F0419C
:105440000546002600F0F4F9344F386808B9FFF734
:10545000F1FE7869054251D19DB1083515F0070F6D
:105460000FD005F00700C0F10800054415F0070F44
:1054700007D0502080F31188BFF34F8FBFF36F8F99
:10548000FEE7002D3AD07868854237D8244908468F
:10549000046801E0214604466068A84202D2206800
:1054A0000028F7D13868844228D0086800F108063F
:1054B000206808606068411B10290FD9601910F03E
:1054C000070F07D0502080F31188BFF34F8FBFF331
:1054D0006F8FFEE741606560FFF758FF616878688D
:1054E000401A7860BA68904200D2B8607869084380
:1054F000606000202060F868401CF86000F022FB2B
:1055000016F0070F07D0502080F31188BFF34F8F9C
:10551000BFF36F8FFEE73046BDE8F081B400002096
:10552000CC000020001F4FF080730360001F21F0AB
:1055300001010160001F0549016014380260001F6D
:105540006FF0020101602038704700000D54000820
:1055500000B52DED048B83B041EC190BFBF79DF9E1
:1055600041EC180B18EE100A18EE901A8DED008B16
:10557000002818BF0120084320F00040C0F17F60E0
:1055800000F1E040C00F14D019EE101A19EE900A85
:105590008DED009B002918BF0121084320F0004039
:1055A000C0F17F6000F1E040C00F04BF0120FFF7B1
:1055B00037FB51EC180B03B0BDEC048B00BD016947
:1055C000436882689A60836842685A604A68824287
:1055D00001D182684A60002202610868401E0860AA
:1055E00008687047034B036003F154000860802093
:1055F000106070476403002000F1080141604FF023
:10560000FF328260C16001610021016070470021AA
:105610000161704710B4D1F800C0BCF1FF3F02D067
:1056200000F1080202E0026904E01A4653681C68AF
:105630006445FAD953684B6099608A60516008618B
:105640000168491C016010BC704742684A60936859
:105650008B6093685960916008610168491C016022
:1056600070470000502080F31188BFF34F8FBFF3C5
:105670006F8F0A494868401C486001280CD10848CF
:10568000006810F0FF0F07D0502080F31188BFF39F
:105690004F8FBFF36F8FFEE770470000D4000020EC
:1056A00004ED00E009494868002806D0401E486023
:1056B000002801D180F311887047502080F31188B1
:1056C000BFF34F8FBFF36F8FFEE70000D4000020C1
:1056D00070B500282AD0A0F10804154D60686969EA
:1056E000084207D1502080F31188BFF34F8FBFF3DA
:1056F0006F8FFEE722683AB1502080F31188BFF324
:105700004F8FBFF36F8FFEE78843606000F090F823
:1057100060686968084468602046FFF737FE2869BA
:10572000401C2861BDE8704000F00CBA70BD00005C
:10573000B40000204FF0E0200021016181610549A3
:105740004FF47A720968B1FBF2F1491E41610721F9
:10575000016170477400002010B502460020002A45
:1057600012D00F48006B38B1502080F31188BFF37E
:105770004F8FBFF36F8FFEE700F05AF800211046FD
:10578000FFF798FC00F0DEF9002807D105494FF03B
:1057900080500860BFF34F8FBFF36F8F10BD0000C4
:1057A0007800002004ED00E010B586B000240594D8
:1057B000049403AA04A905A8FFF714FF0598049907
:1057C000019102900023009415A11748039A00F05C
:1057D0001FF91649C86208B1012000E00020012825
:1057E0000AD0B0F1FF3F19D1502080F31188BFF3E8
:1057F0004F8FBFF36F8FFEE7502080F31188BFF308
:105800004F8FBFF36F8F4FF0FF30886201204861E8
:10581000CC6006B0BDE8104000F042B806B010BD44
:1058200049444C45000000008552000878000020E3
:105830000248016B491C016370470000780000209A
:10584000154A106B002802D00120D061704700205B
:10585000D0611069B0FA80F0C0F11F000F4900EB71
:10586000800051F8203073B101EB80004168496835
:10587000416000F10803994201D1496841604068E4
:10588000C06810607047502080F31188BFF34F8FBD
:10589000BFF36F8FFEE7000078000020E4090020CE
:1058A00010B582B038480168384A914207D150207B
:1058B00080F31188BFF34F8FBFF36F8FFEE700684F
:1058C0003349884207D1502080F31188BFF34F8FAE
:1058D000BFF36F8FFEE72F4908780190FF20087013
:1058E000087800909DF800009DF8002000F0F0007E
:1058F000904207D0502080F31188BFF34F8FBFF341
:105900006F8FFEE79DF80000234C00F050002070E0
:105910000720A0609DF8000010F0800F0BD0A06859
:10592000401EA0609DF80000400000909DF800001F
:1059300010F0800FF3D1A068032807D0502080F327
:105940001188BFF34F8FBFF36F8FFEE74FF44070A6
:10595000A060019808701148016841F4700101606D
:10596000016841F070410160FFF7E4FE00206060D3
:10597000FAF74CFC0A48016841F040410160FAF72F
:1059800031FC02B0002010BD00ED00E071C20F41FB
:1059900070C20F4100E400E0D400002020ED00E0E0
:1059A00034EF00E02DE9F04F85B081460F9F0E9E49
:1059B0008A4690469B464FEA8800FFF73FFD054622
:1059C00028000AD05420FFF739FD04460CB12563A6
:1059D00004E02846FFF77CFE00E000249CB1002094
:1059E00084F8510003905B46424651460197009669
:1059F00002944846FFF75AFC2046FFF797FB05B094
:105A00000120BDE8F08F05B04FF0FF30BDE8F08F0A
:105A100070B586B00646DDF828C00C9C0B980028AF
:105A200016D0ECB1542504952063022084F851006F
:105A3000002005AD0390CDF800C0019502943046DA
:105A4000FFF734FC2046FFF771FB059806B070BDE8
:105A5000502080F31188BFF34F8FBFF36F8FFEE7A5
:105A6000502080F31188BFF34F8FBFF36F8FFEE795
:105A70002DE9F0470026314F386B002805D0B86972
:105A8000401CB8613046BDE8F087F868451CFD60F1
:105A90009DB9786B006838B1502080F31188BFF34E
:105AA0004F8FBFF36F8FFEE7786BB96B7963B86385
:105AB000386A401C3862FFF797FCB86ADFF88080CC
:105AC00085420FD34FF00109786B006838B1786BCD
:105AD000C068C4686068854212D2B86202E04FF0C4
