:020000040800F2
:10000000A84F002085020008A93F0008A52E00087F
:10001000793E0008E7090008F94C000800000000DC
:10002000000000000000000000000000C501000802
:10003000FD0B0008000000002102000871440008C8
:100040009F0200089F0200089F0200089F0200080C
:100050009F0200089F0200089F0200089F020008FC
:100060009F0200089F0200089F0200089F020008EC
:100070009F0200089F020008410B00089F02000831
:100080009F0200084D0B00089F020008F5090008B8
:10009000E90900089F0200089F0200089F0200086B
:1000A0009F0200089F0200089F0200089F020008AC
:1000B0009F0200089F0200089F0200089F0200089C
:1000C0009F0200089F0200089F0200089F0200088C
:1000D0009F0200089F0200087D4C00089F02000854
:1000E0009F0200089F0200089F0200089F0200086C
:1000F0009F0200089F0200089F0200089F0200085C
:100100009F0200089F0200089F0200089F0200084B
:100110009F0200089F0200084D450008594500084D
:100120009F0200089F0200089F0200089F0200082B
:100130009F0200089F0200089F0200080D0A0008A5
:10014000010A00089F0200089F0200089F020008A1
:100150009F0200089F0200089F020008894C0008C7
:100160009F0200089F0200089F0200089F020008EB
:100170009F0200089F0200089F0200080000000084
:100180009F0200089F0200089F0200089F020008CB
:100190009F0200089F0200089F0200089F020008BB
:1001A00000000000000000009F020008DFF810D0EF
:1001B00000F0DCFB00480047315F0008AFF300802F
:1001C000A84F00202C4B19680868B0E8F04F80F366
:1001D0000988BFF36F8F4FF0000080F311887047DC
:1001E0000000000008480068006880F308884FF0AD
:1001F000000080F3148862B661B6BFF34F8FBFF37F
:100200006F8F00DF00BF00BF08ED00E0DFF80C00DB
:10021000016841F470010160704700BF88ED00E0A3
:10022000EFF30980BFF36F8F134B1A681EF0100FA6
:1002300008BF20ED108A20E9F04F106009B44FF09C
:10024000500080F31188BFF34F8FBFF36F8F07F01B
:1002500089F84FF0000080F3118809BC196808681C
:10026000B0E8F04F1EF0100F08BFB0EC108A80F31A
:100270000988BFF36F8F7047BC000020EFF3058043
:10028000704700000648804706480047FEE7FEE743
:10029000FEE7FEE7FEE7FEE7FEE7FEE7FEE7FEE736
:1002A0003D450008AD0100082DE9F05F054600203E
:1002B00092469B4688460646814640241BE02846D7
:1002C00041464746224600F01BFA53465A46C01A9A
:1002D000914110D311461846224600F002FA2D1A19
:1002E00067EB01084F4622460120002100F0F9F992
:1002F00017EB00094E41201EA4F10104DFDC484643
:1003000031462A464346BDE8F09F40EA01039B0779
:1003100003D009E008C9121F08C0042AFAD203E07A
:1003200011F8013B00F8013B521EF9D27047D2B2DE
:1003300001E000F8012B491EFBD270470022F6E7CE
:1003400010B513460A4604461946FFF7F0FF20464B
:1003500010BD2DE9FE4F804681EA0300C00F0C4618
:10036000009021F0004123F00045B8EB0200A941C4
:1003700005D24046214690461C460B46024623F0D5
:100380000040104347D0270DC7F30A00C3F30A51BA
:100390000290401A019040286BDAC3F3130040F436
:1003A000801B0098924620B10023D2EB030A63EB36
:1003B0000B0B01985946C0F14002504600F091F9EC
:1003C00006460D4650465946019A00F0A9F910EB31
:1003D00008006141002487EA115284EAE7731A4356
:1003E00040D0009A62B3019A012A4FEA075215DC05
:1003F000001B61EB02014FF0004202EA0752CDE917
:100400000042001C41F5801132462B4600F0E0F915
:1004100003B0BDE8F08F40462146F9E7001B61EBD1
:100420000201001C41F5801300185B412018A2F561
:10043000001747EB030140EAD570B6196D4111E092
:100440006D084FEA360645EAC0754FEA0752001BB1
:1004500061EB0201001C41F5801149084FEA3000B0
:100460000019514132462B4603B0BDE8F04F00F071
:10047000A0B90098012240000023D0EB020263EBF8
:10048000E073009821464FEAE074B8EB000061EB9E
:100490000401E9E783F000435BE781F0004158E79E
:1004A0002DE9FE4F81EA030404F0004421F00041ED
:1004B00000944FF0000B23F0004350EA01045ED09B
:1004C00052EA03045BD0C3F30A54C1F30A552C4427
:1004D000A4F2F3340194A0FB0254C1F3130141F4DC
:1004E0008011C3F3130343F4801301FB024400FBA8
:1004F000034E840A970A44EA815447EA8357A4FBCF
:10050000076802958D0A05FB07854FEA932C04FBCB
:100510000C542705029D4FEA065847EA1637B5EBFB
:1005200008056EEB070C870E920E47EA811742EA28
:100530008312A7FB0201B6EB0B0164EB00042B0D49
:1005400043EA0C335E1844EB1C50DA465146E7FB95
:100550000201C5F313044FEA0B3343EA14534FEA85
:100560000432019C43EA0603A4F10C040294009CAB
:10057000CDE900B400F02CF903B0BDE8F08F002005
:100580000146F9E72DE9F04D81EA030404F0004B40
:1005900021F0004514464FF0000A23F0004150EAD4
:1005A000050220D054EA01021DD0C5F30A570246C5
:1005B000C5F31303C1F31300C1F30A5640F48015C9
:1005C00043F48013A7EB0608101BD64608F2FD384B
:1005D00073EB050002D308F1010801E092185B41BA
:1005E000B8F1000F03DA00200146BDE8F08D0020CD
:1005F0004FF48011064684460EE0171B73EB050787
:1006000005D3121B63EB050306434CEA010C4908B2
:100610004FEA300092185B4150EA0107EDD152EAEF
:10062000030012D082EA040083EA0501084305D0E2
:10063000101BAB4106D20122002306E000224FF03E
:10064000004302E06FF0010253101AEB06004CEB7E
:10065000085110EB0A0041EB0B01BDE8F04D00F032
:10066000A8B80EB5C10F80EAE0700844CA0700219F
:1006700040F233438DE80E000A460B4600F0A8F81E
:1006800003B000BD00F0004230F000400AD0C10DC0
:1006900001F56071C0F3160042EA0151C20840073B
:1006A0001143704700200146704701F0004330B409
:1006B00021F0004150EA010206D00A0DA2F5607255
:1006C000C1F31301002A02DC30BC00207047440F44
:1006D00044EAC104C100E01830BC00EBC25000F095
:1006E00031B8202A04DB203A00FA02F100207047DA
:1006F0009140C2F1200320FA03F319439040704760
:10070000202A04DB203A21FA02F00021704721FA66
:1007100002F3D040C2F120029140084319467047CD
:10072000202A06DBCB17203A41FA02F043EAE073B5
:1007300006E041FA02F3D040C2F1200291400843A2
:10074000194670470029A8BF7047401C490008BFE0
:1007500020F00100704710B4B0FA80FC00FA0CF0F1
:1007600050EA010404BF10BC704749B1CCF1200429
:1007700021FA04F411FA0CF118BF012121430843B6
:10078000A3EB0C01CB1D4FEA00614FEA102042BFE2
:10079000002010BC704700EBC35010440029A4BFD8
:1007A00010BC7047401C490008BF20F0010010BC7D
:1007B000704710B5141E73F1000408DA401C41F1B3
:1007C000000192185B411A4301D120F0010010BDD5
:1007D0002DE9F04D92469B4611B1B1FA81F202E04B
:1007E000B0FA80F220329046FFF77BFF04460F46B6
:1007F00040EA0A0041EA0B0153465A46084313D027
:10080000114653EA010019D0C8F140025046FFF7E3
:1008100077FF05460E46504659464246FFF761FFB0
:10082000084305D0012004E020463946BDE8F08D9C
:100830000020054346EAE0762C4337430A986305D7
:10084000E40AA0EB08000022FD0A44EA47540A30FB
:1008500002D500200146E9E7010510196941DDE9EB
:10086000084500196941BDE8F04DA2E770B521F0D7
:10087000004303430CD0C1F30A550024D5EB040513
:1008800064EB0403D617AD1AB34102DB0020014626
:1008900070BD201841EB025170BD2DE9F04D0023D1
:1008A0001A461B1A8A4103DB00200146BDE8F08D81
:1008B000C1F30A52C1F3130141F480154FF0000B4C
:1008C000D10702D100186D41521E0027044640F2A4
:1008D000FF11384601EB620A3E4680460246002080
:1008E0004FF48011FFF70CFFC2197141BB1846EBA2
:1008F0000100B4EB030C75EB000C04D3E41A65EBB8
:10090000000517460E46241908F101006D41804686
:100910003428E3DDF91946EB0600091BA84103D290
:100920004FF0FF32134601E0002213461BEB070095
:1009300046EB0A51BDE8F04DFFF73BBF30B5041E52
:1009400071F1000404DB4FF00044404264EB01010C
:10095000141E73F1000405DB1C464FF000435242A5
:1009600063EB0403994208BF904230BD064C074D2B
:1009700006E0E06840F0010394E80700984710346F
:10098000AC42F6D3FFF716FCA07B0008C07B000842
:1009900070B58C1810F8015B15F0070301D110F841
:1009A000013B2A1106D110F8012B03E010F8016B6E
:1009B00001F8016B5B1EF9D12B0705D40023521EF1
:1009C0000DD401F8013BFAE710F8013BCB1A921C59
:1009D00003E013F8015B01F8015B521EF9D5A14257
:1009E000D8D3002070BDFEE7014800F08EBA0000A9
:1009F00080070020014800F088BA0000800700202E
:100A0000014800F082BA0000A8070020014800F069
:100A10007CBA0000A807002038B50E4C4FF40075D2
:100A200025600025A560E560082525610A4C050ABA
:100A300025706070080AA070E170100A2071627160
:100A4000180AA071E3716B4622460249034800F080
:100A5000F2F838BDFC4900203C010020800700204E
:100A6000F8B506AC4FF0010C94E8E0000D4CC4F86A
:100A700000C04FF0000CC4F808C0C4F80CC04FF020
:100A8000080CC4F810C0084C20706170A270E370AC
:100A900025716671A7716B4622460249034800F032
:100AA000CAF8F8BD144A00202D010020800700205C
:100AB00010B5002444EA036343EA02422DED048B9F
:100AC00042EA0121014301D5641E00E00124C1F383
:100AD000C750C1F3160100EE101A9FED161A7F38A9
:100AE000B8EE400AC0EE010AB7EE000A30EE808A86
:100AF000FFF7B7FD41EC110B9FED0F0B04F02CFA43
:100B0000B0EE409A00EE104AF0EE609AB8EEC00ADD
:100B100020EE080A10EE100AFFF7B4FD53EC192B73
:100B2000FFF7BEFCFFF7C1FDBDEC048B00EE100A21
:100B300010BD0000FEFFFF4A000000000000004062
:100B4000014800F025BD000058090020014800F0D0
:100B50001FBD0000B809002001681823CAB2103A6E
:100B6000B2FBF3F2054B6FF30901032A9B5CC365EB
:100B700000D9091D816508467047000048780008C3
:100B800010B5014600208B698A6A4FF0C07453B1DA
:100B9000B3F5005F15D072B1012A0CD0022A0AD039
:100BA000032A09D104E01AB1012A06D0022A03D18E
:100BB000C96AC90100D5012010BDC96AA142FAD095
:100BC00010BD002AF7D0012AF2D0022AF3D0032A5E
:100BD000F3D010BD30B50468256825F48025256064
:100BE000046863608368402B036803D099600068E1
:100BF000C26030BD9A600068C16030BD704772B697
:100C0000FEE7B5EEC00AF1EE10FA01DAB1EE400AE5
:100C1000704790F82020012A07D0022A05D0416AA7
:100C200041F48021416201207047006842690A4313
:100C3000426100207047F0B590F820500468A46825
:100C4000012D05D0022D03D0416A41F4802157E0E7
:100C500014F0406F01D1E5004FD5C4F301640125C4
:100C6000A5401D608D684FF4C0739DB1CE683543BB
:100C70004E6845EAC605066803EB0417F5514FF4C4
:100C8000C275076805EB04150E697E51097D0129BF
:100C900005D009E00E88CD6845EA4655EBE70168C6
:100CA0004E5946F480764E511179D579567941EAFC
:100CB000056195792D0445EA062529434FF4C6764A
:100CC000056806EB0416A9511178D57841EA05614B
:100CD000957852782D0445EA022211434FF4C475E9
:100CE000026805EB04155151006803EB04114258EA
:100CF00042F0010242500020F0BD416A41F400116F
:100D000041620120F0BD000010B590F82020012ABA
:100D100007D0022A05D0416A41F4802141620120B6
:100D200010BD3B48D0F8002242F00102C0F800227A
:100D3000D0F8002222F47C52C0F80022D0F8002221
:100D40004B6A42EA0322C0F800220A7D02F01F0328
:100D500001229A40D0F81C329343C0F81C32CB6970
:100D6000B3B9D0F80C329343C0F80C328C894B687D
:100D700064F31F434C6900EBC404C4F840320C898F
:100D80000B6864F31F434C6900EBC404C4F844329D
:100D9000CB69012B16D1D0F80C321343C0F80C32BA
:100DA0000C884B6864F31F434C6900EBC404C4F81F
:100DB00040320C89CB6864F31F434C6900EBC404D8
:100DC000C4F844328B69002BD0F804320ED01343A0
:100DD000C0F804320B69002BD0F8143208D013434A
:100DE000C0F81432096A012904D008E09343EFE700
:100DF0009343F5E7D0F81C121143C0F81C12D0F849
:100E0000001221F00101C0F80012002010BD000006
:100E100000640040704770B590F82040012C05D068
:100E2000022C03D0416A41F4802128E0046809B310
:100E30002469A40720D04FF4D874056804EB01148A
:100E40002D5915F00405956005682D591AD0ED0847
:100E5000556005682C5904F00204D4604FF4DA742C
:100E6000056804EB01142E5906F00F06082E0CD36A
:100E700008250DE0E468DCE7416A41F400114162B5
:100E8000012070BD6D0D1560E3E72D5905F00F05CC
:100E9000156105682D59C5F30725956105682C591D
:100EA000240C54614FF4DC72046802EB0112A45864
:100EB0001C700468A458240A5C700468A458240CAC
:100EC0009C700468A258120EDA704FF4DE72046847
:100ED00002EB0112A4581C710468A458240A5C7126
:100EE0000468A458240C9C710468A258120EDA718C
:100EF000006829B1016941F020010161002070BD45
:100F0000C16841F02001C160F8E72DE9F05F0546B6
:100F1000006800244669D0F804908768D0F80CB0C7
:100F2000D0F810A0D0F81880F10748D0F90714D0F5
:100F300001218160B80703D5284600F0C8FA0CE00B
:100F4000780702D54FF4006407E0380702D54FF464
:100F5000805402E0284600F0B9FAF80516D5296851
:100F60004FF480708860B80503D5284600F0B1FAC8
:100F70000CE0780502D544F4005407E0380502D5AA
:100F800044F4804402E0284600F0A2FAF80316D5A3
:100F900029684FF480308860B80303D5284600F0F4
:100FA0009AFA0CE0780302D544F4004407E03803D1
:100FB00002D544F4803402E0284600F08BFA300772
:100FC00007D55FEACB6004D52968102044F400748B
:100FD000C86070074FF0080707D55FEA0B7004D5AB
:100FE0002868C760284600F0A9F9B00706D5286828
:100FF000C068800702D0284600F0A2F9700607D525
:101000005FEACA6004D52968102044F4806408614E
:10101000B00607D55FEA0A7004D52868076128463C
:1010200000F024FAF00606D528680069800702D08F
:10103000284600F01CFAB00308D55FEAC96005D560
:10104000296810204860284600F012FAF00307D5FE
:101050005FEA097004D528684760284600F03CFA2A
:10106000300446D55FEA497040D5F00504D55FEA03
:10107000C87001D044F00104B00504D55FEA88705F
:1010800001D544F00204700504D55FEA487001D52B
:1010900044F00404300529D518F0700F26D008F06C
:1010A0007000402815D006DC102809D020280AD06E
:1010B000302816D10AE050280ED0602811D10EE059
:1010C00044F008040DE044F010040AE044F0200469
:1010D00007E044F0400404E044F0800401E044F4FC
:1010E00080742868816921F0700181612968042079
:1010F0004860002C05D0686A204368622846FFF7E4
:1011000089FEBDE8F09F70B5040003D094F820007C
:1011100010B104E0012070BD204600F081F8206885
:10112000016841F00101016000F0D6FC054605268A
:1011300004E000F0D1FC401B0A2811D82068406868
:10114000C007F6D02068016821F00201016000F0BC
:10115000C3FC05460BE000F0BFFC401B0A2806D983
:10116000606A40F40030606284F82060D2E7206852
:1011700040688007EFD4207E0128206801683DD0B8
:1011800021F080010160607E01282068016838D06C
:1011900021F040010160A07E01282068016833D061
:1011A00021F020010160E07E0128206801682ED036
:1011B00041F010010160207F01282068016829D0DA
:1011C00021F008010160607F01282068016824D0B7
:1011D00021F004010160D4E902010843D4E90412BA
:1011E000114308436168491E08432168C861002013
:1011F0006062012084F82000002070BD41F0800171
:10120000C0E741F04001C5E741F02001CAE721F005
:101210001001CFE741F00801D4E741F00401D9E71C
:10122000F0B587B0044614216846FFF787F83E4BB7
:101230003E48DFF8F0E01968D4F800C03B4A0325C7
:101240000226092710300024491CF4452AD11960D0
:10125000012907D1016841F000710160006800F0C8
:1012600000700590106840F0080010601068CDE92B
:10127000005600F00800CDE9047069462C48CDE91D
:10128000024500F009FB00220521132000F0C2FCFA
:10129000132000F0B1FC00220521142000F0BAFC5C
:1012A00014203BE0DFF88CE0F44539D1D0F800C0E1
:1012B0004CF0806CC0F800C0D0F800C001290CF0E0
:1012C000806CCDF814C0196007D1016841F000713D
:1012D0000160006800F000700590106840F00200A6
:1012E0001060106802AB00F0020005904FF440500F
:1012F000CDE9000683E8B00069460F4800F0CCFA5B
:10130000002205213F2000F085FC3F2000F074FC06
:1013100000220521402000F07DFC402000F06CFC04
:1013200007B0F0BD00640040740000203038024077
:10133000000C0240006800400004024070470000BA
:1013400030B58DB003AB05AA0021FFF764FD059809
:1013500040F20322A0F20321904253D006DCA0F514
:10136000007101394ED001294AD14BE0012949D001
:10137000A1F54071FE3943D1BDF80C00394C40BA9B
:1013800000EE100A2080BDF80E10B8EE400A49BAEF
:101390006180BDF81010042049BAA180BDF8121078
:1013A00049BAE18005F04CF9BCEEC00A10EE100A13
:1013B0002080608800EE100A0520B8EE400A05F093
:1013C0003FF9BCEEC00A10EE100A6080A08800EE63
:1013D000100A0620B8EE400A05F032F9BCEEC00A49
:1013E00010EE100AA080E08800EE100A0720B8EE88
:1013F000400A05F025F9BCEEC00A10EE100AE080A4
:101400000DB030BD401E174DC0B2083D164C00EB6C
:101410008002287004EB420134F812300B81BDF8D1
:101420000C305BBA24F81230BDF80E2052BA4A8054
:10143000BDF8102052BA8A809DF812208A71B1F945
:10144000021000EE101AB8EEC00A05F0F9F8BDEE71
:10145000C00A297801EB810110EE100A04EB41016A
:101460004880CDE734010020D44900207047704700
:101470007047000070B5044690F82000012804D0A1
:10148000606A40F40020606218E0022084F82000C6
:101490002068016821F00101016000F01DFB054694
:1014A0000EE000BF00F018FB401B0A2808D9606A54
:1014B00040F400306062052084F82000012070BDF7
:1014C00020684068C007EDD1606270BD704770470A
:1014D000704770477047704770472DE9F0410446E8
:1014E000876D00F0F9FA064694F8350000250228C9
:1014F00006D08020606584F834500120BDE8F0817A
:101500002068016821F0160101602068416921F01E
:1015100080014161206C08B9A06C20B1206801688D
:1015200021F0080101602068016821F001010160DB
:101530000CE000F0D1FA801B052807D92020606557
:10154000032084F8350084F83450D7E72068006819
:10155000C007EED194F85C103F208840B8600120AD
:1015600084F8350084F834500020C7E790F835102F
:10157000022903D08021416501207047052180F8B0
:1015800035100068016821F00101016000207047FA
:101590002DE9F84304464FF00009CDF80090634868
:1015A0004FF41651A56D0068B0FBF1F72E6894F862
:1015B0005C10082000FA01F131420FD021680A685E
:1015C00052070BD50A6822F004020A6094F85C10F6
:1015D0008840A860606D40F00100606594F85C1080
:1015E0004FF0010808FA01F0304208D0216849693B
:1015F000090604D5A860606D40F00200606594F8AB
:101600005C1004208840304208D0216809688907AE
:1016100004D5A860606D40F00400606594F85C102B
:1016200010208840304218D021680968090714D575
:10163000A86020680168490304D50068000308D544
:10164000A16C07E00168C90503D4016821F0080115
:101650000160216C09B12046884794F85C10202075
:101660008840304231D021680968C9062DD5A8606C
:1016700094F8350005282068016806D0490347D54D
:10168000006800031DD4616C1CE021F016010160AC
:101690002068416921F080014161206C08B9A06C8B
:1016A00020B12068016821F00801016094F85C1005
:1016B0003F208840A86084F8358084F83490216DFC
:1016C0001FE0E16B09B120468847606D00282BD0F0
:1016D000606DC00714D0052084F8350020680168CB
:1016E00021F0010101600098401C0090B84203D82D
:1016F00020680068C007F6D184F8358084F83490FB
:10170000E16C002910D001B02046BDE8F043084745
:101710000168C905D5D4016821F01001016084F881
:10172000358084F83490CCE7BDE8F883B800002019
:101730002DE9F041044600F0CFF906465CB10220E5
:1017400084F83500002584F834502068016821F0C1
:10175000010101600DE00120BDE8F08100F0BCF95D
:10176000801B052805D920206065032084F83500FA
:10177000F2E720680068C007F0D1226811682048AD
:101780000140D4E901031843D4E903363343184335
:1017900063691843A3691843E3691843236A18432C
:1017A0000843616A042903D1D4E90B1319430843A0
:1017B000106020684069666A20F0070130460E43D9
:1017C000012704280CD1A06A0643E06A40B12046F4
:1017D000FFF7D6F920B14020606584F83570BAE78C
:1017E000206846612046FFF7B7F994F85C203F2156
:1017F00091408160656584F835700020ACE7000099
:101800003F8010F02DE9F0410446866D90F83400D9
:10181000002501280DD0012084F8340094F835709B
:101820000020012F07D084F8340002252846BDE8A7
:10183000F0810220FBE7022784F8357060652046BE
:10184000FFF7C8F994F85C103F208840B06020682A
:10185000016841F016010160206C20B12068016828
:1018600041F0080101602068016841F00101016058
:10187000DCE7000070B5044600F02EF90546601C58
:1018800002D004480078044400F026F9401BA0422E
:10189000FAD370BDAC0000202DE9F84FDFF8F8A1B5
:1018A0000022012403254FF00F090AF1040BAAF1CD
:1018B000040E00BF0B6804FA02F63340B34270D145
:1018C0000F7907F00307012F01D0022F16D1876887
:1018D0004FEA420805FA08FC27EA0C07D1F80CC0C9
:1018E0000CFA08FC4CEA070CC0F808C04768B7437C
:1018F0000E79C6F3001696403E4346600E79F643D5
:10190000B6070AD0C7684FEA420C05FA0CF6B7438F
:101910008E6806FA0CF63E43C6600E7906F00306A2
:10192000022E10D1D60800EB8608D8F820605707A1
:101930004FEAD76C09FA0CF7BE430F6907FA0CF7A8
:101940003743C8F8207006684FEA420C05FA0CF7D6
:10195000BE430F7907F0030707FA0CF73743076018
:101960004E6816F4403F1CD04C4E376847F4804711
:101970003760366822F0030706F480460096484E2A
:1019800007EB060CDCF8086897073F0F09FA07F821
:1019900026EA0806DFF80C81404503D14FF0000825
:1019A00041E072E0DFF80081404502D14FF00108CC
:1019B00039E0DFF8F880404502D14FF0020832E00C
:1019C000DFF8EC80404502D14FF003082BE0DFF850
:1019D000E480404502D14FF0040824E0DFF8D880CD
:1019E000404502D14FF005081DE0DFF8D0804045AA
:1019F00002D14FF0060816E0DFF8C480404502D15E
:101A00004FF007080FE0DFF8BC80404502D14FF0EF
:101A1000080808E0DFF8B080404502D14FF009081F
:101A200001E04FF00A0808FA07F848EA0608CCF87F
:101A30000888DAF800605746D1F804C09E435FEA90
:101A4000CC2C00D51E433E60DBF800605F46D1F829
:101A500004C09E435FEA8C2C00D51E433E60DEF836
:101A600000607746D1F804C09E435FEA8C3C00D505
:101A70001E433E60084F083F3E68D1F804C09E43B5
:101A80005FEACC3C00D51E433E60521C102AFFF496
:101A900011AFBDE8F88F0000083C01404438024017
:101AA00000300140000002400004024000080240F3
:101AB000000C0240001002400014024000180240D6
:101AC000001C024000200240002402400AB1816153
:101AD00070470904FBE70000014880687047000078
:101AE000AC00002002488168027811448160704790
:101AF000AC0000200B4810B5016841F40071016092
:101B0000016841F480610160016841F48071016005
:101B1000032000F09FF80F2000F006F800F050F8C6
:101B2000002010BD003C024030B505461F4887B07C
:101B30000024016841F010010160006806A900F06E
:101B40001000009001A800F069F90498A8B100F015
:101B500085F940001649174AB0FBF1F11648491EB5
:101B6000026040F2E732C0E90324C0E90114846155
:101B700000F0C6FB040003D015E000F06FF9E9E7C0
:101B80000D4800F009FC04000DD1362000F034F8B7
:101B9000102D07D200222946362000F03BF80748D6
:101BA000056000E0012407B0204630BD4038024007
:101BB00040420F00001000403C0B0020B00000200D
:101BC0000C4882B0016841F480410160006800F473
:101BD000804000900748001F016841F0805101607B
:101BE0000068002200F0805000900F21901E02B08B
:101BF00000F010B844380240002809DB00F01F0252
:101C0000012191404009800000F1E020C0F800115E
:101C100070470000F0B40E4B1B680C46C3F3022360
:101C2000C3F10705042D00D90425191D072901D288
:101C3000002300E0DB1E012606FA05F1491E2140C3
:101C400099409E40761E16403143F0BC03F080B8A8
:101C50000CED00E0064900F0070208684FF6FF03AC
:101C6000184040EA0220034A104308607047000011
:101C70000CED00E00000FA052DE9F8431748016873
:101C800041F0805101600068154F00F0805001263E
:101C900000903E64FFF720FF05464FF47A78114C20
:101CA00005E000BFFFF718FF401B40450DD86068F6
:101CB000C003F7D57E64FFF70FFF0546464607E0F1
:101CC000FFF70AFF401BB04202D90320BDE8F883AA
:101CD00060688003F4D50020F8E700004038024037
:101CE00000000E42007000402DE9F0470E4605004E
:101CF00065D0DFF81481D8F80000F7B200F00F00CB
:101D0000B04207D288F80070D8F8000000F00F0049
:101D1000B04254D128683D4C810712D5400703D505
:101D2000206840F4E05020602878000703D5206840
:101D300040F4604020602068A96820F0F00008436B
:101D400020602878C0072DD03049686808390128FC
:101D500012D0022813D0032811D00968890700295E
:101D60002DDA216821F0030101432160FFF7B4FE61
:101D7000814641F2883A0EE009688903EFE7096875
:101D80008901ECE7FFF7A8FEA0EB0901514502D954
:101D90000320BDE8F0872068696800F00C00B0EB14
:101DA000810FEFD1D8F80010404601F00F01B14289
:101DB00007D90770006800F00F00B04201D0012081
:101DC000E7E72878400705D52068E96820F4E05067
:101DD000084320602878000706D52068296920F488
:101DE000604040EAC100206000F058F82168084ACD
:101DF000C1F30311515CC8400649086006480068F9
:101E0000FFF792FE0020C4E7003C02400838024081
:101E100050780008B8000020B00000200F220260B7
:101E20000C4A136803F003034360136803F0F003E4
:101E30008360136803F4E053C36012684FF4E05307
:101E400003EAD20202610448006800F00F00086053
:101E50007047000008380240003C02400448054931
:101E600000680968044AC1F38221515CC840704788
:101E7000B80000200838024060780008044805498E
:101E800000680968044AC1F34231515CC840704798
:101E9000B80000200838024060780008154810B5E6
:101EA000006810F00C02144813D01449042A0FD013
:101EB000082A0ED10F4C241F2268236802F03F022B
:101EC0005B0207D52068C0F38810A0FB010106E083
:101ED000084610BD2168C1F38811A1FB0001002351
:101EE000FEF7E2F92168C1F30141491C4900B0FB4A
:101EF000F1F010BD083802400024F400001BB700C8
:101F00002DE9F84F04006ED02078DFF84C93C0071D
:101F1000A9F104054AD009F104000168C1F3810167
:101F2000012908D00068C0F3810002280AD1D9F83D
:101F30000000400206D52868800337D56068002875
:101F4000E1D033E06068B0F5803F10D0B0F5A02F4D
:101F5000286810D020F480302860286820F4802081
:101F600028606068A8B1FFF7B7FD06460DE0286855
:101F700040F48030F4E740F480202860F7E700BFA9
:101F8000FFF7AAFD801B642873D828688003F7D563
:101F90000CE0FFF7A1FD064605E000BFFFF79CFD42
:101FA000801B6428F0D828688003F7D42078DFF8F5
:101FB000AC8280074FF0000A3ED5A748001D01689B
:101FC00011F00C0F08D00068C0F3810002280BD17B
:101FD000D9F80000400207D42868800716D5E068C9
:101FE000012800D112E033E1E068B8B10120C8F85F
:101FF0000000FFF771FD064605E000BFFFF76CFD2E
:10200000801B0228C0D828688007F7D52868216976
:1020100020F0F80040EAC10028600DE0C8F800A0F8
:10202000FFF75AFD064604E0FFF756FD801B022825
:102030001FD828688007F7D42078000722D5864F5C
:1020400087486169703771B101210160FFF744FD74
:10205000064604E0FFF740FD801B022809D83868D7
:102060008007F7D50EE0C0F800A0FFF735FD064663
:1020700005E082E0FFF730FD801B02287DD838683C
:102080008007F7D42078400768D5DFF8CCB1002767
:102090000BF13C0BDBF80000C0000BD4DBF80010A8
:1020A00041F08051CBF80010DBF80000012700F070
:1020B000805000906B4E3068C00510D4306840F4FA
:1020C00080703060FFF708FD009005E0FFF704FD29
:1020D0000099401A022850D83068C005F6D55E4EE7
:1020E000A0686C3601280FD00528306810D020F089
:1020F00001003060306820F004003060A068B8B1A2
:10210000FFF7EAFC00900FE0306840F00100F4E7D0
:1021100040F004003060F7E7FFF7DEFC0099411A59
:1021200041F28830814266D830688007F4D50EE0ED
:10213000FFF7D2FC009007E0FFF7CEFC0099411AB0
:1021400041F28830814256D830688007F4D42FB1EC
:10215000DBF8001021F08051CBF80010A069C8B363
:102160003D49091D0968C1F3810102294AD00228AD
:10217000504607D0C8F8600000E03CE0FFF7ACFC38
:1021800004463BE04746C8F86000FFF7A5FC06465A
:1021900005E000BFFFF7A0FC801B02282BD82868B1
:1021A0008001F7D4D4E907010843A16A2E4A4908FF
:1021B00002EB0141626A41EA8211084394F82C1053
:1021C00040EA0161C9F8001001203866FFF784FC7D
:1021D000044606E03EE000BFFFF77EFC001B02283D
:1021E00009D828688001F7D534E000BFFFF774FCF8
:1021F000001B022802D90320BDE8F88F286880015F
:10220000F4D427E00128F7D0D9F80000E26900F4FF
:10221000800191421CD1226A00F03F01914217D106
:1022200047F6C071626A0140B1EB821F10D1A26A09
:102230004FF0FF3300F4403103EB5202B1EB024F99
:1022400006D194F82C1000F07060B0EB016F01D053
:102250000120D1E70020CFE70438024000004742C8
:10226000800E4742007000400000FFFF704770473B
:1022700070B590F83C20012A32D0012480F83C400F
:10228000022280F83D2003685A689D6822F070069B
:102290000A6832435A60134B02689A4214D0B2F172
:1022A000804F11D0104B9A420ED0104B9A420BD057
:1022B0000F4B9A4208D00F4B9A4205D00E4B9A42D0
:1022C00002D00E4B9A4204D1496825F0800319438D
:1022D000916080F83D40002180F83C10084670BDB8
:1022E000022070BD000001400004004000080040D2
:1022F000000C004000040140004001400018004074
:1023000010B5040003D094F83D0010B107E001209F
:1023100010BD002084F83C00204600F01FF8022089
:1023200084F83D00211D206802F01CF9012084F88A
:10233000460084F83E0084F83F0084F8400084F8AA
:10234000410084F8420084F8430084F8440084F893
:10235000450084F83D00002010BD000008B500686D
:102360000B49884212D10B48016841F020010160FD
:102370000068002200F02000009005213720FFF7C0
:1023800049FCBDE808403720FFF736BC08BD000017
:10239000001400404038024090F83D10012901D05F
:1023A00001207047022180F83D100168CA6842F0A0
:1023B0000102CA6000681149884214D0B0F1804F10
:1023C00011D00F4988420ED00E4988420BD00E49D9
:1023D000884208D00D49884205D00D49884202D074
:1023E0000C49884204D1816801F00701062903D015
:1023F000016841F0010101600020704700000140C8
:102400000004004000080040000C004000040140AF
:1024100000400140001800400168CA6822F0010233
:10242000CA6001680A6A41F211131A4207D10A6AA6
:102430009B101A4203D10A6822F001020A600121AE
:1024400080F83D100020704770472DE9F0410446A8
:102450000068C66805694FF00007A90713D5B107E2
:1024600011D5F91E0161012020772068806980075D
:10247000204602D0FFF7E8FF04E000F07EF8204697
:1024800000F07CF82777680716D5700714D5216807
:102490006FF004000861022020772068806910F442
:1024A000407F204602D0FFF7CFFF04E000F065F840
:1024B000204600F063F82777280715D5300713D595
:1024C00021686FF008000861042020772068C06947
:1024D0008007204602D0FFF7B7FF04E000F04DF878
:1024E000204600F04BF82777E80616D5F00614D5FD
:1024F00021686FF010000861082020772068C0690B
:1025000010F4407F204602D0FFF79EFF04E000F069
:1025100034F8204600F032F82777E80708D0F007B3
:1025200006D021686FF001000861204600F028F80D
:10253000280608D5300606D521686FF080000861AE
:102540002046FFF793FE680608D5700606D5216879
:102550006FF040000861204600F02AF8A8060AD56E
:10256000B00608D521686FF0200008612046BDE85C
:10257000F041FFF77CBEBDE8F08170477047000076
:1025800010B5044600680749884201D1FFF7AAFA4E
:1025900005492068884203D104480168491C01604C
:1025A00010BD000000100040001400400400002096
:1025B0007047704770470000F8B501680446086826
:1025C000CA684B6910F00F0F4FF0000559D003F0A7
:1025D000010602F49077374365D0C10705D0D105D5
:1025E00003D5616C41F001016164410705D5D9074C
:1025F00003D0616C41F002016164810705D5D90700
:1026000003D0616C41F004016164010707D502F059
:102610002001314303D0616C41F008016164616CB9
:1026200000293AD0800604D5900602D5204602F053
:10263000A1F920684069616CC0F38010090700D4DB
:1026400060B3204602F061F920684069400621D558
:102650002068143050E8001F21F0400140E80012CB
:10266000002AF5D1E06BA8B16E490165E06BFEF779
:102670007DFF002811D0E06B016D01B0BDE8F04096
:10268000084783060FD593060DD52046BDE8F840D0
:1026900002F070B92046FFF78DFFF8BD2046FFF726
:1026A00089FF6564F8BD266B2023012E7DD1C60607
:1026B0007BD5D60679D508684868009048694FF000
:1026C0000206400641D5E16B086840680004000C32
:1026D000E8D0A28D8242E5D9E085C869B0F5807F57
:1026E0002DD020680C3050E8001F21F4807140E8A4
:1026F0000012002AF5D12068143050E8001F21F0A4
:10270000010140E80012002AF5D12068143050E899
:10271000001F21F0400140E80012002AF5D184F8A2
:102720004230256320680C3050E8001F21F0100172
:1027300040E80012002AF5D1E06BFEF7CEFE66639A
:10274000A08DE18D401A81B22AE0A08DE18D401A62
:1027500081B2E08D0028A5D00029A3D022680C32D8
:1027600052E8000F20F4907042E80007002FF5D1E6
:102770002068143050E8002F22F0010240E80027C2
:10278000002FF5D184F84230256320680C3050E8E2
:10279000002F22F0100240E80023002BF5D16663E1
:1027A0002046FFF706FFF8BDFFE705062BD5150607
:1027B00029D594F841002128F5D1A068B0F5805FB3
:1027C00001D12069B0B1206A411C216221680078E2
:1027D0004860E08C401E0004000CE084E3D12068D7
:1027E000C16821F08001C1602068C16841F04001EA
:1027F000C160D8E7206A0088C0F308004860206AFA
:10280000801C2062E5E74006CDD55006CBD5CA68CE
:10281000204622F04002CA6084F8413000F041FBBB
:10282000C1E700000D48000870B5040004D094F81A
:102830004100002510B106E0012070BD84F8405031
:10284000204600F023F8242084F841002068C16865
:1028500021F40051C160204602F0EEF820680169C1
:1028600021F4904101612068416921F02A01416110
:102870002068C16841F40051C1606564202084F87B
:10288000410084F842006563002070BD2DE9F047E7
:1028900086B0054614216846FDF750FD6249DFF811
:1028A0008481D5F800C000245F4810390223032238
:1028B0000827DFF878A14FF020664FF48069C445FF
:1028C0002FD1D0F800C04CF0804CC0F800C0006898
:1028D00000F080400590086840F01000086008682B
:1028E000694600F010000590D0018DE81900CDE98F
:1028F00003275046FEF7D0FF4E4F4D483860C7E9DA
:102900000164C7E903497C614FF44030BC61C7E909
:10291000074038467C6232E0EF63BD6306B0BDE835
:10292000F087DFF81481C44530D1D0F800C04CF0F6
:10293000004CC0F800C0006800F000400590086836
:1029400040F01000086008688DE81C0000F01000DE
:10295000CDE90470694603925046FEF79DFF354F5E
:102960003348603748303860C7E90164C7E9034934
:1029700080157C61C7E906403C6238467C62FEF700
:10298000D7FE0028C8D0FEF73AF9C5E72B4DAC4575
:1029900020D1056845F400350560006800F400307A
:1029A0000590086840F0080008600868694600F073
:1029B0000800059060208DE819000720CDE903206C
:1029C0001F48FEF769FF002205212620FFF722F9A4
:1029D000262024E01B488445A0D11348001D05682B
:1029E00045F020050560006800F0200005900868AB
:1029F00040F0400008600868694600F0400005901B
:102A00004FF484408DE81900CDE903270E48FEF706
:102A100043FF002205214720FFF7FCF84720FFF77E
:102A2000EBF87BE70078004040380240001002409D
:102A30005860024058090020007C004000440040DB
:102A4000000C0240001401400018024090F842308F
:102A5000202B01D00220704721B11AB1002303635B
:102A600002F070B80120704790F84230202B01D05E
:102A70000220704721B11AB10023036302F0AAB803
:102A8000012070472DE9F041D549884203D1042245
:102A9000D449D34807E0D2494831884207D120229F
:102AA000683901F16800BDE8F041FFF7CFBFCC49BC
:102AB000CC4CD83100260127243C884276D1257998
:102AC00004F10C006B1C00780F2203F0FF0C042DA6
:102AD00006D2AA2801D026716CE084F804C069E00F
:102AE0002B1F062B63D2BF492439062B497961D2AB
:102AF000DFE803F0030612484B5488B12671667173
:102B0000022810D00D2817D00F281DD0102823D050
:102B1000142829D02671667170B32671667132E06F
:102B2000052323712CE00221E1712179491C2171D7
:102B30006179891C617140E00D20E0712079401CB1
:102B4000207160790D3005E0E2712079401C207120
:102B500060790F306071E7E01020E0712079401C4F
:102B6000207160791030F5E71420E0712079401C65
:102B7000207160791430EDE72179491C2171617968
:102B8000617117E038B12671667120722179491C94
:102B90002171617908E084F804C0F1E7237A03EB3E
:102BA000002323720A2323710144E9E7C2E00A2DBE
:102BB00000D16672E179022974D1617A002971D15C
:102BC000217909296ED9884DBE297BD2A1F10A034A
:102BD00093FBF2FC02FB1C3202F0FF0C814A84F8EA
:102BE0000AC0243ABCF10F0F937903EB830269D238
:102BF000DFE80CF0080B12161D21272E34383C425A
:102C0000494F590025F8220046E035F8223003EB01
:102C1000002325F822303FE005EB820250803BE0A4
:102C200005EB8202538803EB0023538034E005EB6D
:102C30008202506030E005EB8202536803EB002310
:102C400004E005EB8202536803EB0043536023E08A
:102C500005EB8202536803EB0063F7E705EB8202A2
:102C6000107219E005EB8202D06015E005EB8202DC
:102C7000D36803EB002304E005EB8202D36803EB87
:102C80000043D36008E005EB8202D36803EB0063E6
:102C9000F7E705EB820210826279491C02446271F7
:102CA00021710FE040E005EB8202491CB2F810C030
:102CB0005B1C0CEB002CA2F810C06279024462711C
:102CC0002171A371C9B2BE290BD0464A243ABF294B
:102CD000126A09D0C0290FD0C12912D0C22915D03B
:102CE00022E0BF21206203E002EB00212162C0212B
:102CF0002171617908442DE702EB00412162C12175
:102D0000F6E702EB00612162C221F1E761798842B6
:102D100004D103F087F8E08A401CE08228882083F1
:102D2000667126716772A6712E492D4801221839E5
:102D3000D8304EE02A49903188424ED12B49207834
:102D4000E57A0D546278FD2A01D1FC2D00D0C0B384
:102D5000401CC0B22070012808D14A78402A02D015
:102D6000412A02D002E0A77005E0E770A278012AAC
:102D700001D1402803D0E278012A0ED023E01C487C
:102D80002670A670076091F83F00FD281BD14022F5
:102D900016491848FDF7B9FA15E0382813D1164836
:102DA0002670E670076091F83700FD2804D13822BC
:102DB0000E491248FDF7A9FA40210C48FDF7BEFA6A
:102DC00001E0FFE7267007490548012219396570BF
:102DD0009030BDE8F041FFF747BEBDE8F08100004C
:102DE00038080020A0000020180A0020544B0020C2
:102DF000480100207C4A00204C010020BC4A0020F1
:102E000070472DE9F843044690F84100984616466D
:102E10000D46202802D00220BDE8F88385B17EB19E
:102E200000206064212084F84100FEF755FEA6844E
:102E30008146E684A0682027B0F5805F02D003E0D9
:102E40000120E9E7206910B12E4600250EE000269A
:102E50000CE08021204601F0D8FEA8B9C6B116F8D2
:102E6000010B21684860E08C401EE084E08C4B46FA
:102E70004FF00002CDF800800028EAD14FF0400169
:102E8000204601F0C2FE40B184F841700320C3E740
:102E900035F8020BC0F30800E3E784F84170002026
:102EA000BAE77047FEE70000F0B5C4222DED028BB3
:102EB000B9B0F0EE608AB0EE408ACF496846FDF7BF
:102EC00024FACE49B1EE081A002091ED000A31AD86
:102ED000C0EE010A00EE100A05EB8001401CB8EEBE
:102EE000400AC0B2072820EE800A81ED000AF1D323
:102EF000DFEDC31AC14C0021A034A44694ED001AA2
:102F00009CED060A4E1EB4EEC81A8F1EF7EE000A9C
:102F1000F1EE10FA08460B460A4647D2B4EEC80A4C
:102F2000F1EE10FA42DD94ED012AB4EEC82AF1EE7A
:102F300010FA01DB3B460FE094ED021AB4EEC81A1A
:102F4000F1EE10FA01DB334613E094ED032AB4EE00
:102F5000C82AF1EE10FA04DB32EE411A32EE482AAA
:102F600021E094ED041AB4EEC81AF1EE10FA07DB72
:102F7000012331EE422A31EE481A81EE020A26E0A0
:102F800094ED052AB4EEC82AF1EE10FA01DB022313
:102F9000E2E7B4EEC80AF1EE10FA1ADB30EE421A9C
:102FA00030EE482A032382EE010A10E0B4EEC81A7C
:102FB000F1EE10FA03DB3B4610EE901A09E0B4EE96
:102FC000C80AF1EE10FA04D80323B0EE610A10EE3D
:102FD000101A01EE101A894984310C4691ED003A1D
:102FE00030EEC12A94ED060AB4EEE83AF1EE10FA9A
:102FF00047D2B4EEE80AF1EE10FA42DDD1ED012A33
:10300000F4EEE82AF1EE10FA01DB3A460FE091ED1A
:10301000023AB4EEE83AF1EE10FA01DB324615E07E
:10302000D1ED032AF4EEE82AF1EE10FA06DB32EED7
:10303000C33A72EEE82A82EE830A33E091ED043A55
:10304000B4EEE83AF1EE10FA07DB012273EE622AE1
:1030500033EE683A83EE220A24E0D1ED052AF4EE3D
:10306000E82AF1EE10FA01DB0222E0E7B4EEE80A0A
:10307000F1EE10FA18DB032270EE622A30EE683AA5
:10308000E8E7B4EEE83AF1EE10FA03DB3A4610EE68
:10309000900A09E0B4EEE80AF1EE10FA04D803222F
:1030A000B0EE610A10EE100AC3EBC30100EE100A85
:1030B000684600EB810000EB820370EEC02AD3E982
:1030C0001002B4EEC01AD3E91713F1EE10FA02D8C9
:1030D000F0EE410A01E0F0EE400AB4EEC02AF1EE53
:1030E00010FA01D8B0EE420AB4EEE21AF1EE10FA8C
:1030F00001D9B0EE621AB4EEE22AF1EE10FA01D96B
:10310000B0EE622A884209D1F4EEC00AF1EE10FA5C
:1031100002DDB0EE610A01E0F0EE610A904209D1F1
:10312000F4EEC10AF1EE10FA02DDB0EE611A01E030
:10313000F0EE610A984209D1F4EEC20AF1EE10FAFB
:1031400002DDB0EE612A01E0F0EE610A914209D1A0
:10315000B4EEC10AF1EE10FA02DDB0EE611A01E040
:10316000B0EE610A994209D1B4EEC20AF1EE10FA4A
:1031700002DDB0EE612A01E0B0EE610A9A4209D1A7
:10318000B4EEC21AF1EE10FA02DDB0EE612A01E0EF
:10319000B0EE611A05EB8000D0ED002A05EB81004E
:1031A00090ED003A05EB820060EEA22A20EE033A91
:1031B000D0ED003A30EE800A05EB830061EE233A51
:1031C00072EE832A90ED004A30EE010A22EE044AA4
:1031D00072EEA32A30EE020A72EE842AB5EEC00A1D
:1031E000F1EE10FA01D0C2EE801A39B0BDEC028BBC
:1031F000B0EE610AF0BD0000687800089C01002074
:1032000000000000F0B5C4222DED028BB9B0F0EE45
:10321000608AB0EE408ACF496846FDF776F8CE491D
:10322000B1EE081A002091ED090A31ADC0EE010A95
:1032300000EE100A05EB8001401CB8EE400AC0B257
:10324000072820EE800A81ED000AF1D3DFEDC31AD2
:10325000C14C0021D834A44694ED001A9CED060A16
:103260004E1EB4EEC81A8F1EF7EE000AF1EE10FAE9
:1032700008460B460A4647D2B4EEC80AF1EE10FAE9
:1032800042DD94ED012AB4EEC82AF1EE10FA01DB1A
:103290003B460FE094ED021AB4EEC81AF1EE10FAB4
:1032A00001DB334613E094ED032AB4EEC82AF1EEB5
:1032B00010FA04DB32EE411A32EE482A21E094ED96
:1032C000041AB4EEC81AF1EE10FA07DB012331EE4E
:1032D000422A31EE481A81EE020A26E094ED052AD0
:1032E000B4EEC82AF1EE10FA01DB0223E2E7B4EEF5
:1032F000C80AF1EE10FA1ADB30EE421A30EE482A14
:10330000032382EE010A10E0B4EEC81AF1EE10FABF
:1033100003DB3B4610EE901A09E0B4EEC80AF1EE6A
:1033200010FA04D80323B0EE610A10EE101A01EE71
:10333000101A8949BC310C4691ED003A30EEC12A91
:1033400094ED060AB4EEE83AF1EE10FA47D2B4EE84
:10335000E80AF1EE10FA42DDD1ED012AF4EEE82A96
:10336000F1EE10FA01DB3A460FE091ED023AB4EECD
:10337000E83AF1EE10FA01DB324615E0D1ED032A0E
:10338000F4EEE82AF1EE10FA06DB32EEC33A72EE02
:10339000E82A82EE830A33E091ED043AB4EEE83A8B
:1033A000F1EE10FA07DB012273EE622A33EE683A7F
:1033B00083EE220A24E0D1ED052AF4EEE82AF1EEAC
:1033C00010FA01DB0222E0E7B4EEE80AF1EE10FAAF
:1033D00018DB032270EE622A30EE683AE8E7B4EEBA
:1033E000E83AF1EE10FA03DB3A4610EE900A09E0F3
:1033F000B4EEE80AF1EE10FA04D80322B0EE610A46
:1034000010EE100AC3EBC30100EE100A684600EB91
:10341000810000EB820370EEC02AD3E91002B4EE03
:10342000C01AD3E91713F1EE10FA02D8F0EE410AF0
:1034300001E0F0EE400AB4EEC02AF1EE10FA01D835
:10344000B0EE420AB4EEE21AF1EE10FA01D9B0EE93
:10345000621AB4EEE22AF1EE10FA01D9B0EE622A55
:10346000884209D1F4EEC00AF1EE10FA02DDB0EEA6
:10347000610A01E0F0EE610A904209D1F4EEC10A5E
:10348000F1EE10FA02DDB0EE611A01E0F0EE610A31
:10349000984209D1F4EEC20AF1EE10FA02DDB0EE64
:1034A000612A01E0F0EE610A914209D1B4EEC10A4D
:1034B000F1EE10FA02DDB0EE611A01E0B0EE610A41
:1034C000994209D1B4EEC20AF1EE10FA02DDB0EE73
:1034D000612A01E0B0EE610A9A4209D1B4EEC21A43
:1034E000F1EE10FA02DDB0EE612A01E0B0EE611AF1
:1034F00005EB8000D0ED002A05EB810090ED003A4D
:1035000005EB820060EEA22A20EE033AD0ED003AED
:1035100030EE800A05EB830061EE233A72EE832AD7
:1035200090ED004A30EE010A22EE044A72EEA32A20
:1035300030EE020A72EE842AB5EEC00AF1EE10FAFD
:1035400001D0C2EE801A39B0BDEC028BB0EE610A38
:10355000F0BD00002C7900089C0100200000000054
:10356000F0B5C4222DED028BB9B0F0EE608AB0EE5A
:10357000408ACF496846FCF7C8FECE49B1EE081A2A
:10358000002091ED120A31ADC0EE010A00EE100AE2
:1035900005EB8001401CB8EE400AC0B2072820EEBF
:1035A000800A81ED000AF1D3DFEDC31AC34C00217C
:1035B000A44694ED001A9CED060A4E1EB4EEC81AFD
:1035C0008F1EF7EE000AF1EE10FA08460B460A4687
:1035D00047D2B4EEC80AF1EE10FA42DD94ED012AAA
:1035E000B4EEC82AF1EE10FA01DB3B460FE094ED91
:1035F000021AB4EEC81AF1EE10FA01DB334613E0FA
:1036000094ED032AB4EEC82AF1EE10FA04DB32EE90
:10361000411A32EE482A21E094ED041AB4EEC81A99
:10362000F1EE10FA07DB012331EE422A31EE481A9F
:1036300081EE020A26E094ED052AB4EEC82AF1EEE6
:1036400010FA01DB0223E2E7B4EEC80AF1EE10FA49
:103650001ADB30EE421A30EE482A032382EE010ACA
:1036600010E0B4EEC81AF1EE10FA03DB3B4610EEA0
:10367000901A09E0B4EEC80AF1EE10FA04D8032358
:10368000B0EE610A10EE101A01EE101A8B491C39C7
:103690000C4691ED003A30EEC12A94ED060AB4EEE4
:1036A000E83AF1EE10FA48D2B4EEE80AF1EE10FA78
:1036B00043DDD1ED012AF4EEE82AF1EE10FA01DB48
:1036C0003A460FE091ED023AB4EEE83AF1EE10FA24
:1036D00001DB324615E0D1ED032AF4EEE82AF1EEE3
:1036E00010FA06DB32EEC33A72EEE82A82EE830A63
:1036F00034E091ED043AB4EEE83AF1EE10FA08DB6A
:10370000012273EE622A33EE683A00BF83EE220A8A
:1037100024E0D1ED052AF4EEE82AF1EE10FA01DBFF
:103720000222DFE7B4EEE80AF1EE10FA18DB03221A
:1037300070EE622A30EE683AE8E7B4EEE83AF1EE6D
:1037400010FA03DB3A4610EE900A09E0B4EEE80AFC
:10375000F1EE10FA04D80322B0EE610A10EE100A5E
:10376000C3EBC30100EE100A684600EB810000EBDA
:10377000820370EEC02AD3E91002B4EEC01AD3E976
:103780001713F1EE10FA02D8F0EE410A01E0F0EE64
:10379000400AB4EEC02AF1EE10FA01D8B0EE420AA7
:1037A000B4EEE21AF1EE10FA01D9B0EE621AB4EEFC
:1037B000E22AF1EE10FA01D9B0EE622A884209D16C
:1037C000F4EEC00AF1EE10FA02DDB0EE610A01E09B
:1037D000F0EE610A904209D1F4EEC10AF1EE10FA5E
:1037E00002DDB0EE611A01E0F0EE610A984209D103
:1037F000F4EEC20AF1EE10FA02DDB0EE612A01E049
:10380000F0EE610A914209D1B4EEC10AF1EE10FA6C
:1038100002DDB0EE611A01E0B0EE610A994209D111
:10382000B4EEC20AF1EE10FA02DDB0EE612A01E058
:10383000B0EE610A9A4209D1B4EEC21AF1EE10FA62
:1038400002DDB0EE612A01E0B0EE611A05EB800006
:10385000D0ED002A05EB810090ED003A05EB8200E7
:1038600060EEA22A20EE033AD0ED003A30EE800A54
:1038700005EB830061EE233A72EE832A90ED004A55
:1038800030EE010A22EE044A72EEA32A30EE020A5A
:1038900072EE842AB5EEC00AF1EE10FA01D0C2EE43
:1038A000801A39B0BDEC028BB0EE610AF0BD0000A9
:1038B000F07900089C01002000000000AC0200200C
:1038C00030B53B4AF1EE082A9FED381A92ED012AF5
:1038D000002087B0C2EE221AF0EE410A01460546EA
:1038E0006C4600BF02EE100A04EB8002401CB8EEEA
:1038F000422AC0B2072821EE822A82ED002AF1D3A3
:103900002B4AF7EE001A843292ED002AB4EEC02A58
:10391000F1EE10FA03DDF0EE610A002132E092EDE3
:10392000062AB4EEC02AF1EE10FA03D2F0EE610AD4
:10393000062127E05FF0000002EB800393ED002AF0
:10394000B4EEC02AF1EE10FA18D893ED012AB4EEC5
:10395000C02AF1EE10FA11DD02EB800193ED001A9E
:10396000D1ED010A0146401C30EEC11A30EEC00A0A
:10397000C5B2C0EE010A31EEE01A03E0401CC0B24D
:103980000628D9D30B4850F8211050F8250004EB35
:10399000810104EB800091ED000A20EE200AD0EDB9
:1039A000000A07B000EE810A30BD000000000000F0
:1039B0009C010020C802002030B53B4AF1EE082AE5
:1039C0009FED381A92ED0A2A002087B0C2EE221A23
:1039D000F0EE410A014605466C4600BF02EE100AB1
:1039E00004EB8002401CB8EE422AC0B2072821EE48
:1039F000822A82ED002AF1D32B4AF7EE001ABC325C
:103A000092ED002AB4EEC02AF1EE10FA03DDF0EEDA
:103A1000610A002132E092ED062AB4EEC02AF1EEEE
:103A200010FA03D2F0EE610A062127E05FF00000F1
:103A300002EB800393ED002AB4EEC02AF1EE10FAF7
:103A400018D893ED012AB4EEC02AF1EE10FA11DD78
:103A500002EB800193ED001AD1ED010A0146401CF2
:103A600030EEC11A30EEC00AC5B2C0EE010A31EE26
:103A7000E01A03E0401CC0B20628D9D30B4850F826
:103A8000211050F8250004EB810104EB800091ED3A
:103A9000000A20EE200AD0ED000A07B000EE810AED
:103AA00030BD0000000000009C010020C802002082
:103AB00030B53B4AF1EE082A9FED381A92ED132AF1
:103AC000002087B0C2EE221AF0EE410A01460546F8
:103AD0006C4600BF02EE100A04EB8002401CB8EEF8
:103AE000422AC0B2072821EE822A82ED002AF1D3B1
:103AF0002B4AF7EE001AF43292ED002AB4EEC02AF7
:103B0000F1EE10FA03DDF0EE610A002132E092EDF1
:103B1000062AB4EEC02AF1EE10FA03D2F0EE610AE2
:103B2000062127E05FF0000002EB800393ED002AFE
:103B3000B4EEC02AF1EE10FA18D893ED012AB4EED3
:103B4000C02AF1EE10FA11DD02EB800193ED001AAC
:103B5000D1ED010A0146401C30EEC11A30EEC00A18
:103B6000C5B2C0EE010A31EEE01A03E0401CC0B25B
:103B70000628D9D30B4850F8211050F8250004EB43
:103B8000810104EB800091ED000A20EE200AD0EDC7
:103B9000000A07B000EE810A30BD000000000000FE
:103BA0009C010020C80200200F4810B50D4901609B
:103BB0000521416000214FF400328160C0E9031209
:103BC000520142610176012242768176C176017707
:103BD0004177FDF798FA002803D0BDE81040FDF7C3
:103BE0000EB810BD0064004080070020104810B5DA
:103BF0000E4901600521416000214FF04072C0E98B
:103C000002124FF400320261520142610176012238
:103C100042768176C17601774177FDF774FA002804
:103C200003D0BDE81040FCF7EABF10BD00680040BB
:103C3000A80700200D4808B5016841F40011016093
:103C40000068002200F40010009005210E20FDF70E
:103C5000E1FF0E20FDF7D0FF002205211120FDF726
:103C6000D9FFBDE808401120FDF7C6BF303802403B
:103C700010B596B01C2211496846FCF746FB00219E
:103C8000684602F012FD0E4C0C491C2260641C3187
:103C900007A8FCF73AFB002107A802F006FD074938
:103CA000A0641C2238310EA8FCF72FFB00210EA8BF
:103CB00002F0FBFCE06416B010BD0000F4770008D1
:103CC0002400002010B586B014216846FCF736FBAE
:103CD0001D48016841F010010160016801F0100108
:103CE0000591016841F040010160016801F0400167
:103CF0000591016841F008010160016801F00801C7
:103D00000591016841F080010160016801F08001C6
:103D10000591016841F00201016000680B4C00F060
:103D20000200059001223C212046FDF7CFFE3C20F9
:103D30000121CDE900010320CDE9021069462046AA
:103D4000FDF7AAFD06B010BD30380240001C02404D
:103D50001CB500240F4800940D490194016042F203
:103D60002731C0E9011441F28731C16080218161AE
:103D7000FEF7C6FA08B1FCF742FF00946946054811
:103D80000194FEF775FA002801D0FCF738FF1CBD3E
:103D900000140040D00700200C4810B50A4901600B
:103DA0004FF4E1314160002181600C22C160C0E923
:103DB00004128161C161FEF737FD002803D0BDE820
:103DC0001040FCF71CBF10BD0078004038080020F0
:103DD0000C4810B50A4901604FF4E13141600021FF
:103DE00081600C22C160C0E904128161C161FEF7EB
:103DF0001BFD002803D0BDE81040FCF700BF10BD3C
:103E0000007C0040800800200C4810B50A49016081
:103E10004FF4E1314160002181600C22C160C0E9B2
:103E200004128161C161FEF7FFFC002803D0BDE8E8
:103E30001040FCF7E4BE10BD00440040C80800205C
:103E40000C4810B50A4901604FF46131416000210E
:103E500081600C22C160C0E904128161C161FEF77A
:103E6000E3FC002803D0BDE81040FCF7C8BE10BD3D
:103E70000014014010090020FEE70000DFF8EC808C
:103E8000DFF8ECB03B4D3C4FDFF8F090DFF8F0A0EE
:103E90003C4C00BFB8F800202A80B8F802103980E6
:103EA000B8F80430A9F80030B8F80600CE18AAF81F
:103EB00000007608A662161876086662DBF80060D5
:103EC000192E4CDBE66806B32F48DFED300A314986
:103ED00090ED000A2E4870EE200AC4ED040A90ED21
:103EE000000A10EE100A884203D99FED2B1A30EE1B
:103EF000010A84ED060AB4EEE00AF1EE10FA19D2D6
:103F00009FED260A84ED010A16E0101A00EE100A51
:103F1000C81A00EE900AB8EEC00AF8EEE00A84ED86
:103F2000100AC4ED020A606930B902F089FCB1EEF2
:103F3000400AE7E70020E0601948006810B1012856
:103F40000BD00CE002F0D6FA16480078012806D112
:103F50000221D72003F06AF801E002F0C5F800F072
:103F60006DFB022002F094FB94E700003401002076
:103F70000400002024010020260100202801002048
:103F80002A010020240000206801002000002A43AC
:103F9000580100200000B4C20000B44300001644E1
:103FA0007001002044010020FEE700004A4D4B4C08
:103FB000287801287DD14A480068192879DB4948CA
:103FC000FEF72AFAE069002809DD40F2E73304220F
:103FD00045A14748FEF715FFE069401EE0614548EE
:103FE0000068022805D19FED440A84ED0E0A84ED95
:103FF0000F0AA06AA0F5167000EE100A3F48B8EE4E
:10400000C00A80ED000A94ED011AD4ED0F0A94ED78
:104010000E0A02F031F83A480068B0F9020000EEEA
:10402000100A3848B8EEC00AD0ED000A364800F051
:104030007FF836480068B0F9020000EE100A3448F4
:10404000B8EEC00AD0ED000A324800F071F83248EC
:104050000068B0F9020000EE100A3048B8EEC00A5D
:10406000D0ED000A2E4800F063F82E480068B0F941
:10407000020000EE100A2C48B8EEC00AD0ED000A8B
:104080002A4800F055F8294890ED0D0ABDEEC00A07
:1040900010EE100A03B2224890ED0D0ABDEEC00AE0
:1040A00010EE100A02B21B4890ED0D0ABDEEC00AD8
:1040B00000E00CE010EE100A01B2134890ED0D0A7A
:1040C000BDEEC00A10EE100A00B2FCF7A5FC0220FB
:1040D00002F0DEFA6CE7000044010020240000201A
:1040E00004000020D007002041474E42000000009D
:1040F000380800207800002000000000E4020020C2
:104100000800002018000020EC0200200C00002015
:104110001C0000204C030020100000202000002084
:10412000AC03002014000020000000200C0400203C
:1041300010B504002DED028B9FED6B2A18D0D4ED45
:10414000151AC4ED161A94ED141A84ED151AC4ED5F
:104150000B0A84ED0C0A30EEC00A84ED140A2078B4
:10416000F0EEC00A48B101283DD002287AD075E0AF
:10417000B0EE420ABDEC028B10BDD4ED011A10EE78
:10418000900A5A4961EE801A8842C4ED0E1A08DA84
:10419000D4ED0F0A94ED022A42EE000AC4ED0F0A94
:1041A00001E084ED0F2A30EE410AD4ED030A60EEFF
:1041B000200AC4ED100A94ED0F1A94ED0A0AB4EE29
:1041C000C01AF1EE10FA09DCB1EE400AB4EEC01AE2
:1041D000F1EE10FA02D394ED0F0A01E084ED0F0A1C
:1041E00031EE800A26E070EE410A94ED012A60EE7D
:1041F000820AC4ED0E0A94ED022A22EE002A84ED12
:104200000F2AD4ED122A70EE820AC4ED132AD4EDDF
:10421000112AC4ED122AF0EE002A01EE620A30EEF5
:10422000210A84ED110A94ED031A21EE000A84EDAF
:10423000100A53E030EE200A84ED0D0AD4ED090A8D
:10424000B4EEE00AF1EE10FA06DCF1EE600AB4EE2C
:10425000E00AF1EE10FA01D2C4ED0D0A94ED0D0A58
:1042600088E7FFE7FCF7CDFCD4ED060A20EE200A34
:1042700000F07EFDB7EE008A94ED051AC8EE000A44
:1042800038EE600AD4ED040A41EE000A94ED140AF7
:1042900094ED151A30EE411A60EE810AC4ED0E0A53
:1042A000FCF7AFFCD4ED070A20EE200A00F060FD19
:1042B000C8EE000A94ED080A94ED151A20EE800A63
:1042C000D4ED140A70EE810AB6EE001A60EE810A8F
:1042D00020EE200A84ED0F0AD4ED0E0A30EE800A9B
:1042E000D4ED0D0AA6E700000000000000007A43AC
:1042F00000283CD0002A3AD0017092ED001A80EDDF
:10430000011A92ED011A80ED021A92ED021A80ED67
:10431000031A92ED031A80ED041A92ED041A80ED4F
:10432000051A92ED051A80ED081A92ED061A80ED35
:10433000061A92ED071A80ED071A80ED090A9FED23
:104340000C0AC0ED0A0A80ED130A80ED120A80ED16
:10435000110A80ED0D0A80ED100A80ED0F0A80ED44
:104360000E0A80ED160A80ED150A80ED140A7047DA
:1043700000000000DFF8D480324E334F344CDFF8B9
:10438000D4904FF0010B4FF0030A4546707820702F
:10439000B17861704A2808D053280BD052280DD02C
:1043A000432810D0482817D01BE04B2919D1C9F851
:1043B00000B016E0542914D1022110E0472910D191
:1043C000C9F800A00DE044290BD10421C9F8001060
:1043D0002149C1F800B004E04A2902D10521C9F8F9
:1043E00000103868012814D1D8F8200000280CDD0E
:1043F00040F2E733042219A11A48FEF702FDD8F86B
:104400002010491EC8F8201003E000203860C8F8CA
:1044100020A029782078814210D06A7861788A4279
:104420000CD028706970D9F80000012806D040F23D
:10443000E73304220CA10B48FEF7E3FC022002F054
:1044400027F9A3E7A000002080010020240000201D
:1044500090000020780000207001002041464D426D
:104460000000000038080020414A4B4200000000D4
:1044700010B5502080F31188BFF34F8FBFF36F8FBB
:1044800003F088F818B104494FF08050086000200C
:1044900080F3118810BD000004ED00E030B593B04A
:1044A00030216846FBF74AFF14210CA8FBF746FFB2
:1044B00020480025016841F080510160006800F04B
:1044C000805011901C48016841F44041016000682F
:1044D000022400F44040119001200090000401905B
:1044E0008001CDE9064006200890B420CDE90904FA
:1044F00004200B906846FDF703FD08B172B6FEE795
:10450000FDF7BAFB08B172B6FEE70CA90F2081E8EF
:1045100031004FF4A0500F904FF4805010900521BF
:104520000CA8FDF7E1FB002801D072B6FEE713B03E
:1045300030BD000040380240007000400248016871
:1045400041F470010160704788ED00E00148FDF71B
:104550007CBF00003C0B00200148FDF776BF000047
:10456000D0070020F0B50268294C2A4D2A4E2B4F67
:104570002B4B4FF0804CA04209D0604507D0A84299
:1045800005D0B04203D0B84201D0984204D122F005
:10459000700E4A6842EA0E02A0421BD0604519D054
:1045A000A84217D0B04215D0B84213D0984211D0CB
:1045B0001C4DA8420ED01C4DA8420BD01B4DA8424A
:1045C00008D01B4DA84205D01A4DA84202D01A4D62
:1045D000A84203D122F44075CA682A434D6922F0EB
:1045E00080022A4302608A68C2620A688262A0422C
:1045F00001D0984201D1096901630121416101693A
:10460000C90703D0016921F001010161F0BD00007B
:10461000000001400004004000080040000C004081
:1046200000040140004001400044014000480140B6
:1046300000180040001C0040002000402DE9F0411F
:104640006E4D2DED028B9FED6E8BA8680026012824
:1046500072D16D4C607841286DD1A07830286AD134
:10466000A37A627A217AE079FCF722FA04F16C07E6
:1046700087ED000AA37B627B217BE07AFCF718FAC6
:1046800087ED010AA37C627C217CE07BFCF710FAB9
:1046900087ED020AA37D627D217DE07CFCF708FAAC
:1046A00087ED030AA37E627E217EE07DFCF700FA9F
:1046B00087ED040AA37F627F217FE07EFCF7F8F993
:1046C00087ED050AF868FBF7DDFF53EC182BFBF7C5
:1046D000E7FEFBF7EAFF00EE100A85ED030A01F0A2
:1046E0005DFB85ED030A3869FBF7CCFF53EC182B13
:1046F000FBF7D6FEFBF7D9FF00EE100A85ED040AA2
:1047000001F04CFB85ED040A7869FBF7BBFF53EC25
:10471000182BFBF7C5FEFBF7C8FF00EE100A85ED6E
:10472000050A01F03BFB85ED050A287818B985EDEF
:10473000090A01202870AE606868012858D1324CFF
:10474000403C6078402852D1A07838284FD1A37AD5
:10475000627A217AE079FCF7ABF904F1780787ED0A
:10476000000AA37B627B217BE07AFCF7A1F987ED4D
:10477000010AA37C627C217CE07BFCF799F987ED40
:10478000020AA37D627D217DE07CFCF791F987ED33
:10479000030AA37E627E217EE07DFCF789F987ED26
:1047A000040AA37F627F217FE07EFCF781F987ED19
:1047B000050A3868FBF766FF53EC182BFBF770FE11
:1047C000FBF773FFA8617868FBF75CFF53EC182BCD
:1047D000FBF766FEFBF769FFE861B868FBF752FF7D
:1047E00053EC182BFBF75CFEFBF75FFF28626E6053
:1047F0000020BDEC028BBDE8F081000044010020E8
:10480000F8C1631ADCA54C40BC4A002010B5806B8F
:104810000021C185C184FDF7CDFE10BD70B5846B4C
:104820002068406994F84110C0F3C0100025212988
:1048300004D118B1E584204600F08EF82068406964
:1048400094F84210C0F38010222904D118B1E585F4
:10485000204600F05AF8606C40F01000606420467A
:10486000FDF7A8FE70BD10B50146806B09680968A8
:104870004FF00002C9052ED4C28501680C3151E801
:10488000003F23F4807341E80034002CF5D1016827
:10489000143151E8003F23F0010341E80034002CBB
:1048A000F5D10168143151E8003F23F0400341E89D
:1048B0000034002CF5D1202180F84210016B012931
:1048C00009D101680C3151E8003F23F0100341E8A1
:1048D0000034002CF5D14263016B012902D0FEF7B0
:1048E000D1F810BD818DFDF764FE10BD10B5806B51
:1048F00001214163016B012902D0FEF781FA10BD4D
:10490000818D4908FDF755FE10BD01680C3151E855
:10491000002F22F4907241E80023002BF5D10168AA
:10492000143151E8002F22F0010241E80023002B4E
:10493000F5D1016B012909D101680C3151E8002F33
:1049400022F0100241E80023002BF5D1202180F84D
:10495000421000210163704701680C3151E8002FBB
:1049600022F0C00241E80023002BF5D1202180F87D
:104970004110704708B590F84210222901D002205A
:1049800008BD82684FF480539A4201D1016921B178
:10499000816A9A421BD04AB10AE00268816A526871
:1049A000C2F308020A80816A891C08E0026972B1B8
:1049B0000268526802F07F020A70816A491C8162B3
:1049C000C18D491E0904090CC18503D01BE0026892
:1049D0005268F1E70168CA6822F02002CA600168E3
:1049E000CA6822F48072CA6001684A6922F0010232
:1049F0004A61202180F8421000214163026B012AA4
:104A000003D0FEF73FF8002008BD016301680C31B8
:104A100051E8002F22F0100241E80023002BF5D1CD
:104A200001680A68D20602D50A6849680091818D3A
:104A3000FDF7BFFDE7E7000070B5044600680169B7
:104A4000E26821F44051114301612169A068E269E3
:104A500008436169114308432168CA6849F20C633D
:104A60009A430243CA6020684169A26921F44071F7
:104A70001143416131492068884202D0304988425F
:104A800002D1FDF7FBF901E0FDF7E8F9E269002347
:104A9000192164253226B2F5004F626828D0A0FBA8
:104AA0000101930F9200FBF7FFFB0146B0FBF5F00D
:104AB0006FF01802504301EB800006EB0010B0FBD2
:104AC000F5F000F0F002B1FBF5F002EB0012B1FBE3
:104AD000F5F06FF01803584301EB800006EB00106F
:104AE000B0FBF5F000F00F0021681044886070BD45
:104AF000A0FB010192185B41FBF7D6FB0146B0FB1E
:104B0000F5F00201B1FBF5F06FF01803584301EB2B
:104B1000800006EBC000B0FBF5F000F0F80002EBFF
:104B20004002B1FBF5F0584301EB800006EBC000FA
:104B3000B0FBF5F000F00700D6E7000000100140E0
:104B40000014014038B58162044682850020134676
:104B50006064222284F84220E56B1B4AEA63E56B1D
:104B60001A4A2A64E56B1A4AEA64E26B10650A463F
:104B70002168E06B091DFCF745FE2068016840686C
:104B80000090206948B120680C3050E8001F41F4C3
:104B9000807140E80012002AF5D12068143050E8F6
:104BA000001F41F0010140E80012002AF5D1206801
:104BB000143050E8001F41F0400140E80012002A84
:104BC000F5D1002038BD000067480008ED48000816
:104BD0001D48000881628285C2850021416422212E
:104BE00080F84210016921B10168CA6842F48072FC
:104BF000CA6001684A6942F001024A610068C168FE
:104C000041F02001C160002070472DE9F84398462B
:104C100017460D460446089E24E0701C22D0FCF77F
:104C20005BFFA0EB0800B0421AD8CEB12068C16883
:104C3000490717D5802D15D0402D13D00168C943E1
:104C400009070FD401680025406800902046FFF74F
:104C50005CFE0820606484F840500120BDE8F883C1
:104C60000320FBE72068006835EA000004D000203C
:104C7000B842D2D00020F1E70120F9E70148FDF762
:104C80009BBC0000C80800200148FDF795BC00004F
:104C900010090020164910B500200882488204221D
:104CA00024311448FDF7D2FE12492022203901F1A7
:104CB0006800FDF7CBFE0F480068C16841F01001A5
:104CC000C1600C4848300068C16841F01001C16003
:104CD0000848D8300068C16841F01001C16005483B
:104CE00090300068C16841F01001C16010BD000043
:104CF0007C00002038080020FEE703B40198410042
:104D0000009850EAC12018BF04204A0D18BF40F097
:104D1000010040F2FF72B2EB515F08BF40F00200A9
:104D2000012808BF052002B070474100080218BFE3
:104D300004200A0E18BF40F001004FF07F4232EA13
:104D4000010108BF40F00200012808BF052070479C
:104D50000907090E002804DB00F1E02080F80014A8
:104D6000704700F00F0000F1E02080F8141D70473C
:104D700010B510EE104A4FF019406849002200EBC0
:104D800044002DED028B884257D8DFED650A14F000
:104D9000004F60EE200A14BFBEEE001AB6EE001AF5
:104DA00071EE200AFDEEE00A10EE900A00EE900A85
:104DB000F8EEE00A9FED5B1A00EEC10A9FED5A1A69
:104DC00000EEC10ADFED590A9FED591A00EE201AD4
:104DD000DFED580A40EE010A9FED571A574B00F0DD
:104DE000030100EE201A21EE000A7B4403EB81034D
:104DF000D3ED000A524B7B4403EB810393ED001A81
:104E0000504B41EE000A7B4403EB8101801091ED91
:104E1000000A70EE800AEABB00EE100AB8EEC01A73
:104E2000DFED491A9FED490ABDEC028B01EE210A24
:104E3000BCEEC00A20EE200A10BD4FF0FF40A04398
:104E40001BD04FF0CE40B0EB440F82BFB7EE000A4C
:104E5000BDEC028B10BD3E48B0EB440F28BF0122D1
:104E600093D2022000F094FF14F0004F15D0BDEC57
:104E7000028BBDE8104000F073BF14F5000F02BFB5
:104E80009FED340ABDEC028B10BDBDEC028BBDE87A
:104E9000104000E007E000F057BFBDEC028BBDE81A
:104EA000104000F055BF00EBD07359104FF07E5208
:104EB00002EBC15100EE101AA0EB630002EBC050F0
:104EC00060EE200A00EE100A20EE208A18EE100A8A
:104ED00088B118EE100AB0F1FF4F15D018EE100A85
:104EE000FFF723FF042808BF00F03AFFB0EE480A9E
:104EF000BDEC028B10BD022000F04AFFBDEC028B1E
:104F0000BDE8104000F02CBF022000F041FFBDECD6
:104F1000028BBDE8104000F01BBF00000000501ED7
:104F20003BAAB8400070313EF4FD053712BB2A3D64
:104F300012BB2A3EFFFFFF3EFFFF7F3FD62C000043
:104F4000DA2C0000AA2C00000000004B00007E4E6E
:104F50000000A085000000002DE9F04D2DED040BB0
:104F60002DED0E8B96B0DDE92550279CDDF890A045
:104F700025F0004624F00048BAF1000F14BF0121CB
:104F8000002101EB4502FC4953184A1093422AD3F1
:104F9000002814BF0123002303EB44030B44F7490B
:104FA0008B4220D358EA00019FEDF59B76D0DFF8C5
:104FB000D8B35D4503D1BAF1000F05D188E0BAF14D
:104FC000000F08BF002100D0012101EB450111F5C0
:104FD000001F08D8002814BF0121002101EB440163
:104FE00011F5001F0BD99DED261B9DED240B16B06E
:104FF000BDEC0E8B04B0BDE8F04D00F069BE00279B
:10500000002DBCBFE149884521DAE1498845A8BFA8
:1050100002271CDAC3451ADCDE4901EB28511429AA
:1050200008DDC1F1340220FA02F101FA02F28242F3
:105030000DD108E058B9C1F1140228FA02F101FAC1
:1050400002F2424503D101F00101C1F1020756EA23
:105050000A0124D1002C22DA002D18BF022F01D022
:10506000012F0AD0022000F093FE16B0BDEC0E8B8B
:1050700004B0BDE8F04D00F013BE022000F088FE41
:1050800000F00EFE51EC100B81F0004141EC100BD2
:1050900016B0BDEC0E8B04B0BDE8F08D18E09FEDAE
:1050A000BEAB9FEDBF8B002871D1B848804522D19F
:1050B00005F1804010F5801008BFBAF1000F07D04D
:1050C000B3450ADC002CA8BF9DED260BE0DA0DE00D
:1050D000B0EE490AF0EE690ADAE7002C06DA9DED37
:1050E000260B51EC100B81F000416FE0AE48784484
:1050F00090ED000BCCE7D8454DD1002C48DA2EB10D
:1051000086423AD1BAF1000F42D126E0BAF1000F3F
:1051100013D0022000F03CFE00F0F6FD8DED020BF6
:105120009DED240B8DED000B10EE900A039961F3B9
:105130001E0003909DED020BAAE78DED02AB9DEDE5
:10514000240B1AEE901A10EE900A8DED000B61F30D
:105150001E0003909DED020B9AE78DED028B9DEDF5
:10516000240B18EE901A10EE900A8DED000B61F3EF
:105170001E0003909DED020B8AE709DA9DED240BDA
:1051800051EC190B53EC102BFBF7FCF91EE020E05F
:105190009DED240B7CE786421BDAB4F1804F0DD0E5
:1051A000A4F10050B0F1FF5013D1002D11DB9DEDA3
:1051B000240B51EC100B01F0D3FE07E09DED240B06
:1051C00053EC102B51EC100B00F0C2BC41EC100B57
:1051D0005EE79DED240B51EC100B00F075FEBAF16B
:1051E000000FCDE90E0142D19FED710B46B3A6F140
:1051F000E040B0F17F600CD05E4538D1002D00DA80
:10520000A7B3022F0CBF01204FF0FF30FBF729FAA4
:10521000DCE7002D01DD002C0DDA002D01DD002C76
:105220001FDB002D16DA002C14DB012F08BF9FEDC9
:10523000620B3FF42DAFB0EE4A0AF0EE6A0A27E7A0
:10524000022F18BF002D0CD0012F0AD1002DFFF620
:105250001FAF06E0002DB8BF002C08DA012F3FF485
:1052600017AFB0EE480AF0EE680A11E71BE0012024
:1052700000EBE57050EA070115D0791EB0EE498ABF
:10528000F0EE698A084308BF9FED4D8B4E4800251C
:10529000804570DD4D494E48884514DDB0420DDB38
:1052A000002C19DB2FE0012000F072FD16B0BDECE0
:1052B0000E8B04B0BDE8F04D00F016BDB34502DC26
:1052C000002C09DC1FE0864202DA002C1BDA03E026
:1052D0005E452BDD002C16DD022000F059FD00F0AC
:1052E00013FD8DED020B53EC1A2B51EC180BFBF751
:1052F000D7F8CDE900010399019861F31E000390EE
:105300009DED020BC4E6022000F042FD00F00CFD12
:1053100010EE901A18EE900A8DED020B8DED008BB9
:1053200061F31E0003909DED020BB1E69DED0E0BA7
:1053300053EC192B51EC100BFBF7ACF89FED260B3F
:10534000CDE9080153EC102B9DED080B51EC100B2F
:10535000FBF7A6F89FED221B53EC112BFBF79DF8F2
:105360009DED081B53EC112BFBF79AF89FED1E1BCC
:1053700053EC112B3CE08CE0FFFF1F00FFFF0F0000
:10538000000000000000F03F0000F03F0000F07F50
:105390000000404301FCFFFF000000000000F07F20
:1053A00000000000000000007E2A00000000000055
:1053B0000000000000000080000000000000F0FF7E
:1053C000000000000000F0BF0000E0410000F043DA
:1053D000FFFFEF3F00000000000000000000D03F92
:1053E000555555555555D53F000000000000E03F8C
:1053F000FBF753F89DED080B41EC1A0B53EC102B07
:1054000051EC100BFBF74CF853EC1A2BFBF748F858
:1054100041EC1A0B9FEDFE0B53EC102B9DED080B8E
:1054200051EC100BFBF73CF841EC1B0B9FEDFA0B1A
:1054300051EC1A0B53EC102BFBF732F841EC1A0B22
:105440009FEDF70B53EC102B9DED080B51EC100B5F
:10545000FBF726F853EC1A2BFBF71CF841EC1A0B60
:1054600051EC1B0B53EC1A2BFAF773FF0690CDE9A6
:1054700006519DED060B53EC1B2B51EC100BFBF76B
:1054800009F853EC1A2BFBF708F841EC100B00F06D
:10549000A1B90020B6F5801F0EDA9FEDE30B53ECA7
:1054A000102B9DED0E0B51EC100BFAF7F9FFCDE927
:1054B0000E016FF034000E4600EB2650A0F2FF37CD
:1054C000C6F31300DA4940F07F6646F04056884242
:1054D000D8BF002408DDD7498142C8BF012403DCBE
:1054E0000024A6F580167F1CD348784400EBC40046
:1054F0000F9690ED00CB9DED0E0B53EC1C2B51EC59
:10550000100BFAF7C7FF9DED0E0B41EC1B0B53EC94
:105510001C2B51EC100BFAF71CFF41EC100B51EC5B
:10552000190B53EC102BFBF72DF841EC1D0B51EC34
:105530001B0B53EC1D2BFAF7B3FF41EC1A0BBF48C2
:105540008DED10AB7844109590ED000B4FF00050AE
:1055500040EA660000EB84408DED080B00F500206A
:1055600009909DED080B53EC1C2B51EC100BFAF736
:1055700091FF9DED0E1B53EC112BFAF78EFF41ECC2
:10558000100B53EC102B9DED100B51EC100BFAF798
:1055900087FF9DED080B41EC1C0B53EC102B9DED90
:1055A000100B51EC100BFAF77BFF53EC1B2BFAF7A7
:1055B00074FF53EC1C2BFAF76DFF53EC1D2BFAF71D
:1055C0006FFF41EC1C0B53EC1A2B51EC1A0BFAF742
:1055D00067FF41EC1B0B9A480621B0EE4B0AF0EE38
:1055E0006B0A784400F0E0FAB0EE401AF0EE601A70
:1055F000B0EE41DAF0EE61DA53EC1B2B51EC1B0BF1
:10560000FAF74EFF53EC1D2BFAF74AFF9DED100BF6
:1056100041EC1B0B53EC1A2B51EC100BFAF799FED3
:1056200053EC1C2BFAF73CFF53EC1B2BFAF791FEC3
:105630009DED100B41EC1B0B53EC102B51EC100BA0
:10564000FAF72EFF41EC1D0B9FED7FEB53EC1E2B69
:10565000FAF77FFE53EC1B2BFAF77BFE0890CDE99F
:1056600008519DED080B53EC1E2B51EC100BFAF773
:1056700011FF53EC1D2BFAF70DFF53EC1B2BFAF720
:105680000CFF9DED080B41EC1D0B53EC102B9DED19
:10569000100B51EC100BFAF703FF41EC1B0B53EC12
:1056A0001A2B51EC1D0BFAF7FBFE9DED080B41EC9C
:1056B0001A0B53EC102B51EC1C0BFAF7F1FE53ECC8
:1056C0001A2BFAF746FE41EC1A0B51EC1B0B53EC6C
:1056D0001A2BFAF73EFE0C90CDE90C519DED0C0B08
:1056E00053EC1B2B51EC100BFAF7D4FE53EC1A2B96
:1056F000FAF7D3FE41EC1B0B9FED550B53EC102B2F
:105700009DED0C0B51EC100BFAF7CAFE41EC1A0B95
:105710009FED510B51EC1B0B53EC102BFAF7C0FE15
:1057200041EC1B0B9FED4E0B53EC102B9DED0C0B26
:1057300051EC100BFAF7B4FE53EC1B2BFAF709FEF1
:1057400041EC100B4848784400EBC40090ED001B7E
:1057500051EC100B53EC112BFAF7FBFD41EC1B0B3A
:105760003846FAF77EFFCDE9080153EC1B2B51ECCC
:105770001A0BFAF7EEFD41EC100B3C48784400EBB5
:10578000C40090ED00CB51EC100B53EC1C2BFAF73E
:10579000E0FD9DED081B53EC112BFAF7DAFD0690A6
:1057A000CDE906519DED080B53EC102B9DED060B3A
:1057B00051EC100BFAF76EFE53EC1C2BFAF76AFE55
:1057C00053EC1A2BFAF766FE53EC1B2BFAF765FE27
:1057D00041EC100B9DED261B53EC102B8DED001BA7
:1057E00000959DED260B51EC100BFAF759FE9DED3F
:1057F000000B41EC1A0B53EC102B9DED260B51ECDA
:10580000100BFAF747FE9DED061B53EC112B2FE012
:10581000000000604715F73FFE822B654715F73FF4
:1058200044DF5DF80BAE543E000000000000404332
:105830008E9803007AB60B00FA2500002826000097
:1058400032250000000000000000000000000840B9
:10585000000000E009C7EE3FFD033ADC09C7EE3F58
:10586000F5015B14E02F3EBEBE230000782300004C
:10587000FAF716FE53EC1A2BFAF76BFD9DED060BAB
:1058800041EC1A0B53EC102B9DED000B51EC100B5F
:10589000FAF706FECDE90C019DED0C0B51EC1A0B4D
:1058A00053EC102BFAF755FDCDE902010C46AA493D
:1058B0008C422FDB611A084318D19DED0C0B53EC81
:1058C000102B9DED020B51EC100BFAF7E3FD41ECB0
:1058D0001B0B9FEDA30B51EC1A0B53EC102BFAF79B
:1058E00038FD53EC1B2BFBF729F82DD2022000F0DA
:1058F0004FFA00F009FA10EE901A18EE900A8DEDAA
:10590000020B8DED008B61F31E0003909DED020BE9
:10591000FFF7BEBB944A24F00041914214D393494F
:10592000214408437FF4EFAC9DED0C0B53EC102B9E
:105930009DED020B51EC100BFAF7ACFD53EC1A2B5A
:10594000FAF7FCFF7FF6DFAC24F000408849894A73
:10595000002601EB205182422BDA481C4FF48011C3
:1059600021FA00F02044844AC0F30A517A44A1F29B
:10597000FF3192ED000B814A8DED080BCA4020EA01
:105980000202C0F3130040F48010C1F1140120FAA8
:1059900001F60992002CB8BF76429DED080B53EC3E
:1059A000102B9DED0C0B51EC100BFAF773FDCDE9AC
:1059B0000C019DED0C0B51EC1A0B53EC102BFAF76C
:1059C000C8FC9FED6F0B0890CDE9085153EC102BEC
:1059D0009DED080B51EC100BFAF762FD41EC1B0B2F
:1059E0009FED690B53EC102B9DED080B51EC100B48
:1059F000FAF756FD9DED0C0B41EC1C0B53EC102BF4
:105A00009DED080B51EC100BFAF744FD53EC1A2BEB
:105A1000FAF743FD9FED5E1B53EC112BFAF740FDA7
:105A200053EC1C2BFAF795FC41EC1A0B51EC1B0BB9
:105A300053EC1A2BFAF78DFCCDE902019DED020B18
:105A400053EC1B2B51EC100BFAF724FD53EC1A2BE3
:105A5000FAF723FD9DED020B41EC1A0B53EC102BD2
:105A600051EC100BFAF71CFDCDE908014A489DEDF9
:105A7000080B0521784400F097F89DED081B51ECC8
:105A8000100B53EC112BFAF70BFD9DED021B53ECA1
:105A9000112BFAF702FDCDE906019DED020B53EC47
:105AA0001A2B51EC100BFAF7FBFC53EC1A2BFAF7FC
:105AB00050FC9FED3B0B41EC1A0B53EC102B9DED72
:105AC000060B51EC100BFAF7E5FC9DED060B41ECD3
:105AD0001B0B53EC102B9DED020B51EC100BFAF746
